{
  "contractName": "CarbonCreditCard",
  "abi": [
    {
      "inputs": [],
      "stateMutability": "nonpayable",
      "type": "constructor"
    },
    {
      "anonymous": false,
      "inputs": [
        {
          "indexed": true,
          "internalType": "address",
          "name": "account",
          "type": "address"
        },
        {
          "indexed": true,
          "internalType": "address",
          "name": "operator",
          "type": "address"
        },
        {
          "indexed": false,
          "internalType": "bool",
          "name": "approved",
          "type": "bool"
        }
      ],
      "name": "ApprovalForAll",
      "type": "event"
    },
    {
      "anonymous": false,
      "inputs": [
        {
          "indexed": false,
          "internalType": "uint256",
          "name": "tokenId",
          "type": "uint256"
        },
        {
          "indexed": false,
          "internalType": "uint256",
          "name": "amount",
          "type": "uint256"
        },
        {
          "indexed": false,
          "internalType": "address",
          "name": "recipient",
          "type": "address"
        }
      ],
      "name": "Mint",
      "type": "event"
    },
    {
      "anonymous": false,
      "inputs": [
        {
          "indexed": true,
          "internalType": "address",
          "name": "previousOwner",
          "type": "address"
        },
        {
          "indexed": true,
          "internalType": "address",
          "name": "newOwner",
          "type": "address"
        }
      ],
      "name": "OwnershipTransferred",
      "type": "event"
    },
    {
      "anonymous": false,
      "inputs": [
        {
          "indexed": false,
          "internalType": "address",
          "name": "account",
          "type": "address"
        }
      ],
      "name": "Paused",
      "type": "event"
    },
    {
      "anonymous": false,
      "inputs": [
        {
          "indexed": true,
          "internalType": "address",
          "name": "operator",
          "type": "address"
        },
        {
          "indexed": true,
          "internalType": "address",
          "name": "from",
          "type": "address"
        },
        {
          "indexed": true,
          "internalType": "address",
          "name": "to",
          "type": "address"
        },
        {
          "indexed": false,
          "internalType": "uint256[]",
          "name": "ids",
          "type": "uint256[]"
        },
        {
          "indexed": false,
          "internalType": "uint256[]",
          "name": "values",
          "type": "uint256[]"
        }
      ],
      "name": "TransferBatch",
      "type": "event"
    },
    {
      "anonymous": false,
      "inputs": [
        {
          "indexed": true,
          "internalType": "address",
          "name": "operator",
          "type": "address"
        },
        {
          "indexed": true,
          "internalType": "address",
          "name": "from",
          "type": "address"
        },
        {
          "indexed": true,
          "internalType": "address",
          "name": "to",
          "type": "address"
        },
        {
          "indexed": false,
          "internalType": "uint256",
          "name": "id",
          "type": "uint256"
        },
        {
          "indexed": false,
          "internalType": "uint256",
          "name": "value",
          "type": "uint256"
        }
      ],
      "name": "TransferSingle",
      "type": "event"
    },
    {
      "anonymous": false,
      "inputs": [
        {
          "indexed": false,
          "internalType": "string",
          "name": "value",
          "type": "string"
        },
        {
          "indexed": true,
          "internalType": "uint256",
          "name": "id",
          "type": "uint256"
        }
      ],
      "name": "URI",
      "type": "event"
    },
    {
      "anonymous": false,
      "inputs": [
        {
          "indexed": false,
          "internalType": "address",
          "name": "account",
          "type": "address"
        }
      ],
      "name": "Unpaused",
      "type": "event"
    },
    {
      "inputs": [
        {
          "internalType": "address",
          "name": "account",
          "type": "address"
        },
        {
          "internalType": "uint256",
          "name": "id",
          "type": "uint256"
        }
      ],
      "name": "balanceOf",
      "outputs": [
        {
          "internalType": "uint256",
          "name": "",
          "type": "uint256"
        }
      ],
      "stateMutability": "view",
      "type": "function"
    },
    {
      "inputs": [
        {
          "internalType": "address[]",
          "name": "accounts",
          "type": "address[]"
        },
        {
          "internalType": "uint256[]",
          "name": "ids",
          "type": "uint256[]"
        }
      ],
      "name": "balanceOfBatch",
      "outputs": [
        {
          "internalType": "uint256[]",
          "name": "",
          "type": "uint256[]"
        }
      ],
      "stateMutability": "view",
      "type": "function"
    },
    {
      "inputs": [
        {
          "internalType": "address",
          "name": "account",
          "type": "address"
        },
        {
          "internalType": "uint256",
          "name": "id",
          "type": "uint256"
        },
        {
          "internalType": "uint256",
          "name": "value",
          "type": "uint256"
        }
      ],
      "name": "burn",
      "outputs": [],
      "stateMutability": "nonpayable",
      "type": "function"
    },
    {
      "inputs": [
        {
          "internalType": "address",
          "name": "account",
          "type": "address"
        },
        {
          "internalType": "uint256[]",
          "name": "ids",
          "type": "uint256[]"
        },
        {
          "internalType": "uint256[]",
          "name": "values",
          "type": "uint256[]"
        }
      ],
      "name": "burnBatch",
      "outputs": [],
      "stateMutability": "nonpayable",
      "type": "function"
    },
    {
      "inputs": [
        {
          "internalType": "address",
          "name": "account",
          "type": "address"
        },
        {
          "internalType": "address",
          "name": "operator",
          "type": "address"
        }
      ],
      "name": "isApprovedForAll",
      "outputs": [
        {
          "internalType": "bool",
          "name": "",
          "type": "bool"
        }
      ],
      "stateMutability": "view",
      "type": "function"
    },
    {
      "inputs": [],
      "name": "name",
      "outputs": [
        {
          "internalType": "string",
          "name": "",
          "type": "string"
        }
      ],
      "stateMutability": "view",
      "type": "function"
    },
    {
      "inputs": [],
      "name": "owner",
      "outputs": [
        {
          "internalType": "address",
          "name": "",
          "type": "address"
        }
      ],
      "stateMutability": "view",
      "type": "function"
    },
    {
      "inputs": [],
      "name": "paused",
      "outputs": [
        {
          "internalType": "bool",
          "name": "",
          "type": "bool"
        }
      ],
      "stateMutability": "view",
      "type": "function"
    },
    {
      "inputs": [],
      "name": "renounceOwnership",
      "outputs": [],
      "stateMutability": "nonpayable",
      "type": "function"
    },
    {
      "inputs": [
        {
          "internalType": "address",
          "name": "from",
          "type": "address"
        },
        {
          "internalType": "address",
          "name": "to",
          "type": "address"
        },
        {
          "internalType": "uint256[]",
          "name": "ids",
          "type": "uint256[]"
        },
        {
          "internalType": "uint256[]",
          "name": "amounts",
          "type": "uint256[]"
        },
        {
          "internalType": "bytes",
          "name": "data",
          "type": "bytes"
        }
      ],
      "name": "safeBatchTransferFrom",
      "outputs": [],
      "stateMutability": "nonpayable",
      "type": "function"
    },
    {
      "inputs": [
        {
          "internalType": "address",
          "name": "from",
          "type": "address"
        },
        {
          "internalType": "address",
          "name": "to",
          "type": "address"
        },
        {
          "internalType": "uint256",
          "name": "id",
          "type": "uint256"
        },
        {
          "internalType": "uint256",
          "name": "amount",
          "type": "uint256"
        },
        {
          "internalType": "bytes",
          "name": "data",
          "type": "bytes"
        }
      ],
      "name": "safeTransferFrom",
      "outputs": [],
      "stateMutability": "nonpayable",
      "type": "function"
    },
    {
      "inputs": [
        {
          "internalType": "address",
          "name": "operator",
          "type": "address"
        },
        {
          "internalType": "bool",
          "name": "approved",
          "type": "bool"
        }
      ],
      "name": "setApprovalForAll",
      "outputs": [],
      "stateMutability": "nonpayable",
      "type": "function"
    },
    {
      "inputs": [],
      "name": "symbol",
      "outputs": [
        {
          "internalType": "string",
          "name": "",
          "type": "string"
        }
      ],
      "stateMutability": "view",
      "type": "function"
    },
    {
      "inputs": [
        {
          "internalType": "uint256",
          "name": "index",
          "type": "uint256"
        }
      ],
      "name": "tokenByIndex",
      "outputs": [
        {
          "internalType": "uint256",
          "name": "",
          "type": "uint256"
        }
      ],
      "stateMutability": "view",
      "type": "function"
    },
    {
      "inputs": [
        {
          "internalType": "address",
          "name": "owner",
          "type": "address"
        }
      ],
      "name": "tokenCountOf",
      "outputs": [
        {
          "internalType": "uint256",
          "name": "",
          "type": "uint256"
        }
      ],
      "stateMutability": "view",
      "type": "function"
    },
    {
      "inputs": [
        {
          "internalType": "address",
          "name": "owner",
          "type": "address"
        },
        {
          "internalType": "uint256",
          "name": "index",
          "type": "uint256"
        }
      ],
      "name": "tokenOfOwnerByIndex",
      "outputs": [
        {
          "internalType": "uint256",
          "name": "",
          "type": "uint256"
        }
      ],
      "stateMutability": "view",
      "type": "function"
    },
    {
      "inputs": [
        {
          "internalType": "uint256",
          "name": "offset",
          "type": "uint256"
        },
        {
          "internalType": "uint256",
          "name": "limit",
          "type": "uint256"
        }
      ],
      "name": "tokens",
      "outputs": [
        {
          "internalType": "uint256",
          "name": "total",
          "type": "uint256"
        },
        {
          "internalType": "uint256[]",
          "name": "tokenIds",
          "type": "uint256[]"
        }
      ],
      "stateMutability": "view",
      "type": "function"
    },
    {
      "inputs": [
        {
          "internalType": "address",
          "name": "owner",
          "type": "address"
        },
        {
          "internalType": "uint256",
          "name": "offset",
          "type": "uint256"
        },
        {
          "internalType": "uint256",
          "name": "limit",
          "type": "uint256"
        }
      ],
      "name": "tokensOf",
      "outputs": [
        {
          "internalType": "uint256",
          "name": "total",
          "type": "uint256"
        },
        {
          "internalType": "uint256[]",
          "name": "tokenIds",
          "type": "uint256[]"
        }
      ],
      "stateMutability": "view",
      "type": "function"
    },
    {
      "inputs": [
        {
          "internalType": "address",
          "name": "newOwner",
          "type": "address"
        }
      ],
      "name": "transferOwnership",
      "outputs": [],
      "stateMutability": "nonpayable",
      "type": "function"
    },
    {
      "inputs": [
        {
          "internalType": "uint256",
          "name": "",
          "type": "uint256"
        }
      ],
      "name": "uri",
      "outputs": [
        {
          "internalType": "string",
          "name": "",
          "type": "string"
        }
      ],
      "stateMutability": "view",
      "type": "function"
    },
    {
      "inputs": [
        {
          "internalType": "string",
          "name": "tokenURI_",
          "type": "string"
        },
        {
          "internalType": "uint256",
          "name": "tokenId_",
          "type": "uint256"
        }
      ],
      "name": "_setTokenURI",
      "outputs": [],
      "stateMutability": "nonpayable",
      "type": "function"
    },
    {
      "inputs": [
        {
          "internalType": "string",
          "name": "newuri",
          "type": "string"
        }
      ],
      "name": "setURI",
      "outputs": [],
      "stateMutability": "nonpayable",
      "type": "function"
    },
    {
      "inputs": [
        {
          "internalType": "uint256",
          "name": "tokenId_",
          "type": "uint256"
        }
      ],
      "name": "_tokenURI",
      "outputs": [
        {
          "internalType": "string",
          "name": "",
          "type": "string"
        }
      ],
      "stateMutability": "view",
      "type": "function"
    },
    {
      "inputs": [
        {
          "internalType": "uint256",
          "name": "amount",
          "type": "uint256"
        },
        {
          "internalType": "string",
          "name": "hash",
          "type": "string"
        }
      ],
      "name": "mintNewToken",
      "outputs": [
        {
          "internalType": "uint256",
          "name": "",
          "type": "uint256"
        }
      ],
      "stateMutability": "nonpayable",
      "type": "function"
    },
    {
      "inputs": [
        {
          "internalType": "address",
          "name": "account",
          "type": "address"
        },
        {
          "internalType": "uint256[]",
          "name": "ids",
          "type": "uint256[]"
        }
      ],
      "name": "balanceOfAccountId",
      "outputs": [
        {
          "internalType": "uint256[]",
          "name": "",
          "type": "uint256[]"
        }
      ],
      "stateMutability": "view",
      "type": "function"
    },
    {
      "inputs": [
        {
          "internalType": "address",
          "name": "account",
          "type": "address"
        }
      ],
      "name": "balanceOfAccount",
      "outputs": [
        {
          "internalType": "uint256[]",
          "name": "",
          "type": "uint256[]"
        }
      ],
      "stateMutability": "view",
      "type": "function"
    },
    {
      "inputs": [
        {
          "internalType": "uint256",
          "name": "tokenId_",
          "type": "uint256"
        },
        {
          "internalType": "uint256",
          "name": "amount",
          "type": "uint256"
        }
      ],
      "name": "mintExistingToken",
      "outputs": [
        {
          "internalType": "uint256",
          "name": "",
          "type": "uint256"
        }
      ],
      "stateMutability": "nonpayable",
      "type": "function"
    },
    {
      "inputs": [],
      "name": "pause",
      "outputs": [],
      "stateMutability": "nonpayable",
      "type": "function"
    },
    {
      "inputs": [],
      "name": "unpause",
      "outputs": [],
      "stateMutability": "nonpayable",
      "type": "function"
    },
    {
      "inputs": [
        {
          "internalType": "uint256",
          "name": "tokenId",
          "type": "uint256"
        }
      ],
      "name": "exists",
      "outputs": [
        {
          "internalType": "bool",
          "name": "",
          "type": "bool"
        }
      ],
      "stateMutability": "view",
      "type": "function"
    },
    {
      "inputs": [],
      "name": "withdraw",
      "outputs": [],
      "stateMutability": "nonpayable",
      "type": "function"
    },
    {
      "inputs": [
        {
          "internalType": "bytes4",
          "name": "interfaceId",
          "type": "bytes4"
        }
      ],
      "name": "supportsInterface",
      "outputs": [
        {
          "internalType": "bool",
          "name": "",
          "type": "bool"
        }
      ],
      "stateMutability": "view",
      "type": "function"
    },
    {
      "inputs": [],
      "name": "totalSupply",
      "outputs": [
        {
          "internalType": "uint256",
          "name": "",
          "type": "uint256"
        }
      ],
      "stateMutability": "view",
      "type": "function"
    },
    {
      "inputs": [
        {
          "internalType": "uint256",
          "name": "tokenId",
          "type": "uint256"
        }
      ],
      "name": "totalSupply",
      "outputs": [
        {
          "internalType": "uint256",
          "name": "",
          "type": "uint256"
        }
      ],
      "stateMutability": "view",
      "type": "function"
    }
  ],
  "bytecode": "0x60806040526040518060400160405280601081526020017f436172626f6e4372656469744361726400000000000000000000000000000000815250600b9080519060200190620000519291906200020d565b506040518060400160405280600381526020017f4343430000000000000000000000000000000000000000000000000000000000815250600c90805190602001906200009f9291906200020d565b50348015620000ad57600080fd5b5060405180606001604052806022815260200162005a6a60229139620000d9816200012360201b60201c565b50620000fa620000ee6200013f60201b60201c565b6200014760201b60201c565b6000600460146101000a81548160ff021916908315150217905550600060098190555062000322565b80600290805190602001906200013b9291906200020d565b5050565b600033905090565b6000600460009054906101000a900473ffffffffffffffffffffffffffffffffffffffff16905081600460006101000a81548173ffffffffffffffffffffffffffffffffffffffff021916908373ffffffffffffffffffffffffffffffffffffffff1602179055508173ffffffffffffffffffffffffffffffffffffffff168173ffffffffffffffffffffffffffffffffffffffff167f8be0079c531659141344cd1fd0a4f28419497f9722a3daafe3b4186f6b6457e060405160405180910390a35050565b8280546200021b90620002bd565b90600052602060002090601f0160209004810192826200023f57600085556200028b565b82601f106200025a57805160ff19168380011785556200028b565b828001600101855582156200028b579182015b828111156200028a5782518255916020019190600101906200026d565b5b5090506200029a91906200029e565b5090565b5b80821115620002b95760008160009055506001016200029f565b5090565b60006002820490506001821680620002d657607f821691505b60208210811415620002ed57620002ec620002f3565b5b50919050565b7f4e487b7100000000000000000000000000000000000000000000000000000000600052602260045260246000fd5b61573880620003326000396000f3fe608060405234801561001057600080fd5b50600436106102055760003560e01c80636b20c4541161011a578063b722938a116100ad578063e4b589cf1161007c578063e4b589cf14610626578063e985e9c514610656578063f242432a14610686578063f2fde38b146106a2578063f5298aca146106be57610205565b8063b722938a14610566578063bd85b03914610596578063c237d392146105c6578063cf43d8b3146105f657610205565b80638d17e712116100e95780638d17e712146104de5780638da5cb5b1461050e57806395d89b411461052c578063a22cb4651461054a57610205565b80636b20c4541461047d578063715018a6146104995780638456cb59146104a35780638b4864d6146104ad57610205565b80632eb2c2d61161019d57806340b3ecc11161016c57806340b3ecc1146103b35780634e1273f4146103cf5780634f558e79146103ff5780634f6ccce71461042f5780635c975abb1461045f57610205565b80632eb2c2d6146103535780632f745c591461036f5780633ccfd60b1461039f5780633f4ba83a146103a957610205565b80630e89341c116101d95780630e89341c146102a4578063101d4caa146102d457806318160ddd1461030457806323185dc91461032257610205565b8062fdd58e1461020a57806301ffc9a71461023a57806302fe53051461026a57806306fdde0314610286575b600080fd5b610224600480360381019061021f9190613e2f565b6106da565b6040516102319190614a6e565b60405180910390f35b610254600480360381019061024f9190613f3a565b6107a3565b6040516102619190614731565b60405180910390f35b610284600480360381019061027f9190613f94565b6107b5565b005b61028e6107c9565b60405161029b919061474c565b60405180910390f35b6102be60048036038101906102b99190614039565b610857565b6040516102cb919061474c565b60405180910390f35b6102ee60048036038101906102e99190613d08565b6108eb565b6040516102fb91906146d8565b60405180910390f35b61030c610a16565b6040516103199190614a6e565b60405180910390f35b61033c60048036038101906103379190613e6f565b610a27565b60405161034a929190614a89565b60405180910390f35b61036d60048036038101906103689190613ba2565b610b76565b005b61038960048036038101906103849190613e2f565b610c17565b6040516103969190614a6e565b60405180910390f35b6103a7610c72565b005b6103b1610d72565b005b6103cd60048036038101906103c89190613fdd565b610d84565b005b6103e960048036038101906103e49190613ec2565b610e38565b6040516103f691906146d8565b60405180910390f35b61041960048036038101906104149190614039565b610f51565b6040516104269190614731565b60405180910390f35b61044960048036038101906104449190614039565b610f63565b6040516104569190614a6e565b60405180910390f35b610467610f80565b6040516104749190614731565b60405180910390f35b61049760048036038101906104929190613d64565b610f97565b005b6104a1611034565b005b6104ab611048565b005b6104c760048036038101906104c291906140c2565b61105a565b6040516104d5929190614a89565b60405180910390f35b6104f860048036038101906104f39190614039565b6111a6565b604051610505919061474c565b60405180910390f35b6105166112c8565b60405161052391906145fb565b60405180910390f35b6105346112f2565b604051610541919061474c565b60405180910390f35b610564600480360381019061055f9190613def565b611380565b005b610580600480360381019061057b9190613b35565b611396565b60405161058d9190614a6e565b60405180910390f35b6105b060048036038101906105ab9190614039565b6113e6565b6040516105bd9190614a6e565b60405180910390f35b6105e060048036038101906105db9190613b35565b6113f8565b6040516105ed91906146d8565b60405180910390f35b610610600480360381019061060b9190614066565b61155b565b60405161061d9190614a6e565b60405180910390f35b610640600480360381019061063b91906140c2565b611631565b60405161064d9190614a6e565b60405180910390f35b610670600480360381019061066b9190613b62565b611733565b60405161067d9190614731565b60405180910390f35b6106a0600480360381019061069b9190613c71565b6117c7565b005b6106bc60048036038101906106b79190613b35565b611868565b005b6106d860048036038101906106d39190613e6f565b6118ec565b005b60008073ffffffffffffffffffffffffffffffffffffffff168373ffffffffffffffffffffffffffffffffffffffff16141561074b576040517f08c379a00000000000000000000000000000000000000000000000000000000081526004016107429061486e565b60405180910390fd5b60008083815260200190815260200160002060008473ffffffffffffffffffffffffffffffffffffffff1673ffffffffffffffffffffffffffffffffffffffff16815260200190815260200160002054905092915050565b60006107ae82611989565b9050919050565b6107bd611a03565b6107c681611a81565b50565b600b80546107d690614dbf565b80601f016020809104026020016040519081016040528092919081815260200182805461080290614dbf565b801561084f5780601f106108245761010080835404028352916020019161084f565b820191906000526020600020905b81548152906001019060200180831161083257829003601f168201915b505050505081565b60606002805461086690614dbf565b80601f016020809104026020016040519081016040528092919081815260200182805461089290614dbf565b80156108df5780601f106108b4576101008083540402835291602001916108df565b820191906000526020600020905b8154815290600101906020018083116108c257829003601f168201915b50505050509050919050565b6060600073ffffffffffffffffffffffffffffffffffffffff168373ffffffffffffffffffffffffffffffffffffffff16141561095d576040517f08c379a0000000000000000000000000000000000000000000000000000000008152600401610954906147ee565b60405180910390fd5b6000825167ffffffffffffffff81111561097a57610979614f27565b5b6040519080825280602002602001820160405280156109a85781602001602082028036833780820191505090505b50905060005b8351811015610a0b576109db858583815181106109ce576109cd614ef8565b5b60200260200101516106da565b8282815181106109ee576109ed614ef8565b5b60200260200101818152505080610a0490614e22565b90506109ae565b508091505092915050565b6000610a226005611a9b565b905090565b60006060610a3485611396565b91506000821480610a455750818410155b15610a9e5781600067ffffffffffffffff811115610a6657610a65614f27565b5b604051908082528060200260200182016040528015610a945781602001602082028036833780820191505090505b5091509150610b6e565b6000610abe8486610aaf9190614c7f565b84611ab090919063ffffffff16565b90508481610acc9190614cd5565b67ffffffffffffffff811115610ae557610ae4614f27565b5b604051908082528060200260200182016040528015610b135781602001602082028036833780820191505090505b50915060008590505b81811015610b6b57610b2e8782610c17565b838783610b3b9190614cd5565b81518110610b4c57610b4b614ef8565b5b6020026020010181815250508080610b6390614e22565b915050610b1c565b50505b935093915050565b610b7e611ac9565b73ffffffffffffffffffffffffffffffffffffffff168573ffffffffffffffffffffffffffffffffffffffff161480610bc45750610bc385610bbe611ac9565b611733565b5b610c03576040517f08c379a0000000000000000000000000000000000000000000000000000000008152600401610bfa9061478e565b60405180910390fd5b610c108585858585611ad1565b5050505050565b6000610c6a82600860008673ffffffffffffffffffffffffffffffffffffffff1673ffffffffffffffffffffffffffffffffffffffff168152602001908152602001600020611df390919063ffffffff16565b905092915050565b610c7a611a03565b600047905060008111610cc2576040517f08c379a0000000000000000000000000000000000000000000000000000000008152600401610cb99061488e565b60405180910390fd5b60003373ffffffffffffffffffffffffffffffffffffffff1682604051610ce8906145e6565b60006040518083038185875af1925050503d8060008114610d25576040519150601f19603f3d011682016040523d82523d6000602084013e610d2a565b606091505b5050905080610d6e576040517f08c379a0000000000000000000000000000000000000000000000000000000008152600401610d659061498e565b60405180910390fd5b5050565b610d7a611a03565b610d82611e0d565b565b610d8c611a03565b610d9581610f51565b610dd4576040517f08c379a0000000000000000000000000000000000000000000000000000000008152600401610dcb9061496e565b60405180910390fd5b81600a60008381526020019081526020016000209080519060200190610dfb92919061380d565b50807f6bb7ff708619ba0610cba295a58592e0451dee2622938c8755667688daf3529b83604051610e2c919061474c565b60405180910390a25050565b60608151835114610e7e576040517f08c379a0000000000000000000000000000000000000000000000000000000008152600401610e75906149ce565b60405180910390fd5b6000835167ffffffffffffffff811115610e9b57610e9a614f27565b5b604051908082528060200260200182016040528015610ec95781602001602082028036833780820191505090505b50905060005b8451811015610f4657610f16858281518110610eee57610eed614ef8565b5b6020026020010151858381518110610f0957610f08614ef8565b5b60200260200101516106da565b828281518110610f2957610f28614ef8565b5b60200260200101818152505080610f3f90614e22565b9050610ecf565b508091505092915050565b6000610f5c82611e70565b9050919050565b6000610f79826005611df390919063ffffffff16565b9050919050565b6000600460149054906101000a900460ff16905090565b610f9f611ac9565b73ffffffffffffffffffffffffffffffffffffffff168373ffffffffffffffffffffffffffffffffffffffff161480610fe55750610fe483610fdf611ac9565b611733565b5b611024576040517f08c379a000000000000000000000000000000000000000000000000000000000815260040161101b9061478e565b60405180910390fd5b61102f838383611e8f565b505050565b61103c611a03565b611046600061215e565b565b611050611a03565b611058612224565b565b60006060611066610a16565b915060008214806110775750818410155b156110d05781600067ffffffffffffffff81111561109857611097614f27565b5b6040519080825280602002602001820160405280156110c65781602001602082028036833780820191505090505b509150915061119f565b60006110f084866110e19190614c7f565b84611ab090919063ffffffff16565b905084816110fe9190614cd5565b67ffffffffffffffff81111561111757611116614f27565b5b6040519080825280602002602001820160405280156111455781602001602082028036833780820191505090505b50915060008590505b8181101561119c5761115f81610f63565b83878361116c9190614cd5565b8151811061117d5761117c614ef8565b5b602002602001018181525050808061119490614e22565b91505061114e565b50505b9250929050565b60606111b182610f51565b6111f0576040517f08c379a00000000000000000000000000000000000000000000000000000000081526004016111e79061496e565b60405180910390fd5b6000600a6000848152602001908152602001600020805461121090614dbf565b80601f016020809104026020016040519081016040528092919081815260200182805461123c90614dbf565b80156112895780601f1061125e57610100808354040283529160200191611289565b820191906000526020600020905b81548152906001019060200180831161126c57829003601f168201915b50505050509050600061129b84610857565b905080826040516020016112b09291906145c2565b60405160208183030381529060405292505050919050565b6000600460009054906101000a900473ffffffffffffffffffffffffffffffffffffffff16905090565b600c80546112ff90614dbf565b80601f016020809104026020016040519081016040528092919081815260200182805461132b90614dbf565b80156113785780601f1061134d57610100808354040283529160200191611378565b820191906000526020600020905b81548152906001019060200180831161135b57829003601f168201915b505050505081565b61139261138b611ac9565b8383612287565b5050565b60006113df600860008473ffffffffffffffffffffffffffffffffffffffff1673ffffffffffffffffffffffffffffffffffffffff168152602001908152602001600020611a9b565b9050919050565b60006113f1826123f4565b9050919050565b6060600073ffffffffffffffffffffffffffffffffffffffff168273ffffffffffffffffffffffffffffffffffffffff16141561146a576040517f08c379a0000000000000000000000000000000000000000000000000000000008152600401611461906147ee565b60405180910390fd5b6000600954116114af576040517f08c379a00000000000000000000000000000000000000000000000000000000081526004016114a690614a2e565b60405180910390fd5b600060095467ffffffffffffffff8111156114cd576114cc614f27565b5b6040519080825280602002602001820160405280156114fb5781602001602082028036833780820191505090505b50905060005b600954811015611551576115218460018361151c9190614c7f565b6106da565b82828151811061153457611533614ef8565b5b6020026020010181815250508061154a90614e22565b9050611501565b5080915050919050565b6000611565611a03565b600083116115a8576040517f08c379a000000000000000000000000000000000000000000000000000000000815260040161159f90614a4e565b60405180910390fd5b600960008154809291906115bb90614e22565b9190505550600060095490506115e233828660405180602001604052806000815250612411565b6115ec8382610d84565b7f8334f87aeaf76e52b061d93ee968e51fdd3ad53ca04e80271249227997aab3a081853360405161161f93929190614ae2565b60405180910390a18091505092915050565b600061163b611a03565b61164483610f51565b611683576040517f08c379a000000000000000000000000000000000000000000000000000000000815260040161167a9061496e565b60405180910390fd5b600082116116c6576040517f08c379a00000000000000000000000000000000000000000000000000000000081526004016116bd90614a4e565b60405180910390fd5b60008390506116e633828560405180602001604052806000815250612411565b7f8334f87aeaf76e52b061d93ee968e51fdd3ad53ca04e80271249227997aab3a081843360405161171993929190614ae2565b60405180910390a161172a846113e6565b91505092915050565b6000600160008473ffffffffffffffffffffffffffffffffffffffff1673ffffffffffffffffffffffffffffffffffffffff16815260200190815260200160002060008373ffffffffffffffffffffffffffffffffffffffff1673ffffffffffffffffffffffffffffffffffffffff16815260200190815260200160002060009054906101000a900460ff16905092915050565b6117cf611ac9565b73ffffffffffffffffffffffffffffffffffffffff168573ffffffffffffffffffffffffffffffffffffffff16148061181557506118148561180f611ac9565b611733565b5b611854576040517f08c379a000000000000000000000000000000000000000000000000000000000815260040161184b9061478e565b60405180910390fd5b61186185858585856125c2565b5050505050565b611870611a03565b600073ffffffffffffffffffffffffffffffffffffffff168173ffffffffffffffffffffffffffffffffffffffff1614156118e0576040517f08c379a00000000000000000000000000000000000000000000000000000000081526004016118d79061480e565b60405180910390fd5b6118e98161215e565b50565b6118f4611ac9565b73ffffffffffffffffffffffffffffffffffffffff168373ffffffffffffffffffffffffffffffffffffffff16148061193a575061193983611934611ac9565b611733565b5b611979576040517f08c379a00000000000000000000000000000000000000000000000000000000081526004016119709061478e565b60405180910390fd5b61198483838361285e565b505050565b60007f3dfc30a9000000000000000000000000000000000000000000000000000000007bffffffffffffffffffffffffffffffffffffffffffffffffffffffff1916827bffffffffffffffffffffffffffffffffffffffffffffffffffffffff191614806119fc57506119fb82612aa5565b5b9050919050565b611a0b611ac9565b73ffffffffffffffffffffffffffffffffffffffff16611a296112c8565b73ffffffffffffffffffffffffffffffffffffffff1614611a7f576040517f08c379a0000000000000000000000000000000000000000000000000000000008152600401611a769061492e565b60405180910390fd5b565b8060029080519060200190611a9792919061380d565b5050565b6000611aa982600001612b87565b9050919050565b6000818310611abf5781611ac1565b825b905092915050565b600033905090565b8151835114611b15576040517f08c379a0000000000000000000000000000000000000000000000000000000008152600401611b0c906149ee565b60405180910390fd5b600073ffffffffffffffffffffffffffffffffffffffff168473ffffffffffffffffffffffffffffffffffffffff161415611b85576040517f08c379a0000000000000000000000000000000000000000000000000000000008152600401611b7c906148ce565b60405180910390fd5b6000611b8f611ac9565b9050611b9f818787878787612b98565b60005b8451811015611d50576000858281518110611bc057611bbf614ef8565b5b602002602001015190506000858381518110611bdf57611bde614ef8565b5b60200260200101519050600080600084815260200190815260200160002060008b73ffffffffffffffffffffffffffffffffffffffff1673ffffffffffffffffffffffffffffffffffffffff16815260200190815260200160002054905081811015611c80576040517f08c379a0000000000000000000000000000000000000000000000000000000008152600401611c779061490e565b60405180910390fd5b81810360008085815260200190815260200160002060008c73ffffffffffffffffffffffffffffffffffffffff1673ffffffffffffffffffffffffffffffffffffffff168152602001908152602001600020819055508160008085815260200190815260200160002060008b73ffffffffffffffffffffffffffffffffffffffff1673ffffffffffffffffffffffffffffffffffffffff1681526020019081526020016000206000828254611d359190614c7f565b9250508190555050505080611d4990614e22565b9050611ba2565b508473ffffffffffffffffffffffffffffffffffffffff168673ffffffffffffffffffffffffffffffffffffffff168273ffffffffffffffffffffffffffffffffffffffff167f4a39dc06d4c0dbc64b70af90fd698a233a518aa5d07e595d983b8c0526c8f7fb8787604051611dc79291906146fa565b60405180910390a4611ddd818787878787612bae565b611deb818787878787612bb6565b505050505050565b6000611e028360000183612d9d565b60001c905092915050565b611e15612dc8565b6000600460146101000a81548160ff0219169083151502179055507f5db9ee0a495bf2e6ff9c91a7834c1ba4fdd244a5e8aa4e537bd38aeae4b073aa611e59611ac9565b604051611e6691906145fb565b60405180910390a1565b6000806007600084815260200190815260200160002054119050919050565b600073ffffffffffffffffffffffffffffffffffffffff168373ffffffffffffffffffffffffffffffffffffffff161415611eff576040517f08c379a0000000000000000000000000000000000000000000000000000000008152600401611ef6906148ee565b60405180910390fd5b8051825114611f43576040517f08c379a0000000000000000000000000000000000000000000000000000000008152600401611f3a906149ee565b60405180910390fd5b6000611f4d611ac9565b9050611f6d81856000868660405180602001604052806000815250612b98565b60005b83518110156120ba576000848281518110611f8e57611f8d614ef8565b5b602002602001015190506000848381518110611fad57611fac614ef8565b5b60200260200101519050600080600084815260200190815260200160002060008973ffffffffffffffffffffffffffffffffffffffff1673ffffffffffffffffffffffffffffffffffffffff1681526020019081526020016000205490508181101561204e576040517f08c379a00000000000000000000000000000000000000000000000000000000081526004016120459061482e565b60405180910390fd5b81810360008085815260200190815260200160002060008a73ffffffffffffffffffffffffffffffffffffffff1673ffffffffffffffffffffffffffffffffffffffff1681526020019081526020016000208190555050505080806120b290614e22565b915050611f70565b50600073ffffffffffffffffffffffffffffffffffffffff168473ffffffffffffffffffffffffffffffffffffffff168273ffffffffffffffffffffffffffffffffffffffff167f4a39dc06d4c0dbc64b70af90fd698a233a518aa5d07e595d983b8c0526c8f7fb86866040516121329291906146fa565b60405180910390a461215881856000868660405180602001604052806000815250612bae565b50505050565b6000600460009054906101000a900473ffffffffffffffffffffffffffffffffffffffff16905081600460006101000a81548173ffffffffffffffffffffffffffffffffffffffff021916908373ffffffffffffffffffffffffffffffffffffffff1602179055508173ffffffffffffffffffffffffffffffffffffffff168173ffffffffffffffffffffffffffffffffffffffff167f8be0079c531659141344cd1fd0a4f28419497f9722a3daafe3b4186f6b6457e060405160405180910390a35050565b61222c612e11565b6001600460146101000a81548160ff0219169083151502179055507f62e78cea01bee320cd4e420270b5ea74000d11b0c9f74754ebdbfc544b05a258612270611ac9565b60405161227d91906145fb565b60405180910390a1565b8173ffffffffffffffffffffffffffffffffffffffff168373ffffffffffffffffffffffffffffffffffffffff1614156122f6576040517f08c379a00000000000000000000000000000000000000000000000000000000081526004016122ed906149ae565b60405180910390fd5b80600160008573ffffffffffffffffffffffffffffffffffffffff1673ffffffffffffffffffffffffffffffffffffffff16815260200190815260200160002060008473ffffffffffffffffffffffffffffffffffffffff1673ffffffffffffffffffffffffffffffffffffffff16815260200190815260200160002060006101000a81548160ff0219169083151502179055508173ffffffffffffffffffffffffffffffffffffffff168373ffffffffffffffffffffffffffffffffffffffff167f17307eab39ab6107e8899845ad3d59bd9653f200f220920489ca2b5937696c31836040516123e79190614731565b60405180910390a3505050565b600060076000838152602001908152602001600020549050919050565b600073ffffffffffffffffffffffffffffffffffffffff168473ffffffffffffffffffffffffffffffffffffffff161415612481576040517f08c379a000000000000000000000000000000000000000000000000000000000815260040161247890614a0e565b60405180910390fd5b600061248b611ac9565b9050600061249885612e5b565b905060006124a585612e5b565b90506124b683600089858589612b98565b8460008088815260200190815260200160002060008973ffffffffffffffffffffffffffffffffffffffff1673ffffffffffffffffffffffffffffffffffffffff16815260200190815260200160002060008282546125159190614c7f565b925050819055508673ffffffffffffffffffffffffffffffffffffffff16600073ffffffffffffffffffffffffffffffffffffffff168473ffffffffffffffffffffffffffffffffffffffff167fc3d58168c5ae7397731d063d5bbf3d657854427343f4c083240f7aacaa2d0f628989604051612593929190614ab9565b60405180910390a46125aa83600089858589612bae565b6125b983600089898989612ed5565b50505050505050565b600073ffffffffffffffffffffffffffffffffffffffff168473ffffffffffffffffffffffffffffffffffffffff161415612632576040517f08c379a0000000000000000000000000000000000000000000000000000000008152600401612629906148ce565b60405180910390fd5b600061263c611ac9565b9050600061264985612e5b565b9050600061265685612e5b565b9050612666838989858589612b98565b600080600088815260200190815260200160002060008a73ffffffffffffffffffffffffffffffffffffffff1673ffffffffffffffffffffffffffffffffffffffff168152602001908152602001600020549050858110156126fd576040517f08c379a00000000000000000000000000000000000000000000000000000000081526004016126f49061490e565b60405180910390fd5b85810360008089815260200190815260200160002060008b73ffffffffffffffffffffffffffffffffffffffff1673ffffffffffffffffffffffffffffffffffffffff168152602001908152602001600020819055508560008089815260200190815260200160002060008a73ffffffffffffffffffffffffffffffffffffffff1673ffffffffffffffffffffffffffffffffffffffff16815260200190815260200160002060008282546127b29190614c7f565b925050819055508773ffffffffffffffffffffffffffffffffffffffff168973ffffffffffffffffffffffffffffffffffffffff168573ffffffffffffffffffffffffffffffffffffffff167fc3d58168c5ae7397731d063d5bbf3d657854427343f4c083240f7aacaa2d0f628a8a60405161282f929190614ab9565b60405180910390a4612845848a8a86868a612bae565b612853848a8a8a8a8a612ed5565b505050505050505050565b600073ffffffffffffffffffffffffffffffffffffffff168373ffffffffffffffffffffffffffffffffffffffff1614156128ce576040517f08c379a00000000000000000000000000000000000000000000000000000000081526004016128c5906148ee565b60405180910390fd5b60006128d8611ac9565b905060006128e584612e5b565b905060006128f284612e5b565b905061291283876000858560405180602001604052806000815250612b98565b600080600087815260200190815260200160002060008873ffffffffffffffffffffffffffffffffffffffff1673ffffffffffffffffffffffffffffffffffffffff168152602001908152602001600020549050848110156129a9576040517f08c379a00000000000000000000000000000000000000000000000000000000081526004016129a09061482e565b60405180910390fd5b84810360008088815260200190815260200160002060008973ffffffffffffffffffffffffffffffffffffffff1673ffffffffffffffffffffffffffffffffffffffff16815260200190815260200160002081905550600073ffffffffffffffffffffffffffffffffffffffff168773ffffffffffffffffffffffffffffffffffffffff168573ffffffffffffffffffffffffffffffffffffffff167fc3d58168c5ae7397731d063d5bbf3d657854427343f4c083240f7aacaa2d0f628989604051612a76929190614ab9565b60405180910390a4612a9c84886000868660405180602001604052806000815250612bae565b50505050505050565b60007fd9b67a26000000000000000000000000000000000000000000000000000000007bffffffffffffffffffffffffffffffffffffffffffffffffffffffff1916827bffffffffffffffffffffffffffffffffffffffffffffffffffffffff19161480612b7057507f0e89341c000000000000000000000000000000000000000000000000000000007bffffffffffffffffffffffffffffffffffffffffffffffffffffffff1916827bffffffffffffffffffffffffffffffffffffffffffffffffffffffff1916145b80612b805750612b7f826130bc565b5b9050919050565b600081600001805490509050919050565b612ba6868686868686613126565b505050505050565b505050505050565b612bd58473ffffffffffffffffffffffffffffffffffffffff166133d7565b15612d95578373ffffffffffffffffffffffffffffffffffffffff1663bc197c8187878686866040518663ffffffff1660e01b8152600401612c1b959493929190614616565b602060405180830381600087803b158015612c3557600080fd5b505af1925050508015612c6657506040513d601f19601f82011682018060405250810190612c639190613f67565b60015b612d0c57612c72614f56565b806308c379a01415612ccf5750612c87615610565b80612c925750612cd1565b806040517f08c379a0000000000000000000000000000000000000000000000000000000008152600401612cc6919061474c565b60405180910390fd5b505b6040517f08c379a0000000000000000000000000000000000000000000000000000000008152600401612d039061476e565b60405180910390fd5b63bc197c8160e01b7bffffffffffffffffffffffffffffffffffffffffffffffffffffffff1916817bffffffffffffffffffffffffffffffffffffffffffffffffffffffff191614612d93576040517f08c379a0000000000000000000000000000000000000000000000000000000008152600401612d8a906147ae565b60405180910390fd5b505b505050505050565b6000826000018281548110612db557612db4614ef8565b5b9060005260206000200154905092915050565b612dd0610f80565b612e0f576040517f08c379a0000000000000000000000000000000000000000000000000000000008152600401612e06906147ce565b60405180910390fd5b565b612e19610f80565b15612e59576040517f08c379a0000000000000000000000000000000000000000000000000000000008152600401612e50906148ae565b60405180910390fd5b565b60606000600167ffffffffffffffff811115612e7a57612e79614f27565b5b604051908082528060200260200182016040528015612ea85781602001602082028036833780820191505090505b5090508281600081518110612ec057612ebf614ef8565b5b60200260200101818152505080915050919050565b612ef48473ffffffffffffffffffffffffffffffffffffffff166133d7565b156130b4578373ffffffffffffffffffffffffffffffffffffffff1663f23a6e6187878686866040518663ffffffff1660e01b8152600401612f3a95949392919061467e565b602060405180830381600087803b158015612f5457600080fd5b505af1925050508015612f8557506040513d601f19601f82011682018060405250810190612f829190613f67565b60015b61302b57612f91614f56565b806308c379a01415612fee5750612fa6615610565b80612fb15750612ff0565b806040517f08c379a0000000000000000000000000000000000000000000000000000000008152600401612fe5919061474c565b60405180910390fd5b505b6040517f08c379a00000000000000000000000000000000000000000000000000000000081526004016130229061476e565b60405180910390fd5b63f23a6e6160e01b7bffffffffffffffffffffffffffffffffffffffffffffffffffffffff1916817bffffffffffffffffffffffffffffffffffffffffffffffffffffffff1916146130b2576040517f08c379a00000000000000000000000000000000000000000000000000000000081526004016130a9906147ae565b60405180910390fd5b505b505050505050565b60007f01ffc9a7000000000000000000000000000000000000000000000000000000007bffffffffffffffffffffffffffffffffffffffffffffffffffffffff1916827bffffffffffffffffffffffffffffffffffffffffffffffffffffffff1916149050919050565b6131348686868686866133fa565b60005b83518110156133ce57600084828151811061315557613154614ef8565b5b60200260200101519050600084838151811061317457613173614ef8565b5b6020026020010151905060008114806131b857508673ffffffffffffffffffffffffffffffffffffffff168873ffffffffffffffffffffffffffffffffffffffff16145b156131c45750506133bd565b600073ffffffffffffffffffffffffffffffffffffffff168873ffffffffffffffffffffffffffffffffffffffff1614156132595760006007600084815260200190815260200160002054905060008114156132305761322e83600561345890919063ffffffff16565b505b818161323c9190614c7f565b6007600085815260200190815260200160002081905550506132be565b8061326489846106da565b14156132bd576132bb82600860008b73ffffffffffffffffffffffffffffffffffffffff1673ffffffffffffffffffffffffffffffffffffffff16815260200190815260200160002061347290919063ffffffff16565b505b5b600073ffffffffffffffffffffffffffffffffffffffff168773ffffffffffffffffffffffffffffffffffffffff16141561335457806007600084815260200190815260200160002060008282546133169190614cd5565b9250508190555060006007600084815260200190815260200160002054141561334f5761334d82600561347290919063ffffffff16565b505b6133ba565b600061336088846106da565b14156133b9576133b782600860008a73ffffffffffffffffffffffffffffffffffffffff1673ffffffffffffffffffffffffffffffffffffffff16815260200190815260200160002061345890919063ffffffff16565b505b5b50505b806133c790614e22565b9050613137565b50505050505050565b6000808273ffffffffffffffffffffffffffffffffffffffff163b119050919050565b61340886868686868661348c565b613410610f80565b15613450576040517f08c379a00000000000000000000000000000000000000000000000000000000081526004016134479061484e565b60405180910390fd5b505050505050565b600061346a836000018360001b61365e565b905092915050565b6000613484836000018360001b6136ce565b905092915050565b61349a8686868686866137e2565b600073ffffffffffffffffffffffffffffffffffffffff168573ffffffffffffffffffffffffffffffffffffffff16141561354c5760005b835181101561354a578281815181106134ee576134ed614ef8565b5b60200260200101516003600086848151811061350d5761350c614ef8565b5b6020026020010151815260200190815260200160002060008282546135329190614c7f565b925050819055508061354390614e22565b90506134d2565b505b600073ffffffffffffffffffffffffffffffffffffffff168473ffffffffffffffffffffffffffffffffffffffff1614156136565760005b83518110156136545760008482815181106135a2576135a1614ef8565b5b6020026020010151905060008483815181106135c1576135c0614ef8565b5b6020026020010151905060006003600084815260200190815260200160002054905081811015613626576040517f08c379a000000000000000000000000000000000000000000000000000000000815260040161361d9061494e565b60405180910390fd5b81810360036000858152602001908152602001600020819055505050508061364d90614e22565b9050613584565b505b505050505050565b600061366a83836137ea565b6136c35782600001829080600181540180825580915050600190039060005260206000200160009091909190915055826000018054905083600101600084815260200190815260200160002081905550600190506136c8565b600090505b92915050565b600080836001016000848152602001908152602001600020549050600081146137d65760006001826137009190614cd5565b90506000600186600001805490506137189190614cd5565b905081811461378757600086600001828154811061373957613738614ef8565b5b906000526020600020015490508087600001848154811061375d5761375c614ef8565b5b90600052602060002001819055508387600101600083815260200190815260200160002081905550505b8560000180548061379b5761379a614ec9565b5b6001900381819060005260206000200160009055905585600101600086815260200190815260200160002060009055600193505050506137dc565b60009150505b92915050565b505050505050565b600080836001016000848152602001908152602001600020541415905092915050565b82805461381990614dbf565b90600052602060002090601f01602090048101928261383b5760008555613882565b82601f1061385457805160ff1916838001178555613882565b82800160010185558215613882579182015b82811115613881578251825591602001919060010190613866565b5b50905061388f9190613893565b5090565b5b808211156138ac576000816000905550600101613894565b5090565b60006138c36138be84614b3e565b614b19565b905080838252602082019050828560208602820111156138e6576138e5614f7d565b5b60005b8581101561391657816138fc8882613a14565b8452602084019350602083019250506001810190506138e9565b5050509392505050565b600061393361392e84614b6a565b614b19565b9050808382526020820190508285602086028201111561395657613955614f7d565b5b60005b85811015613986578161396c8882613b20565b845260208401935060208301925050600181019050613959565b5050509392505050565b60006139a361399e84614b96565b614b19565b9050828152602081018484840111156139bf576139be614f82565b5b6139ca848285614d7d565b509392505050565b60006139e56139e084614bc7565b614b19565b905082815260208101848484011115613a0157613a00614f82565b5b613a0c848285614d7d565b509392505050565b600081359050613a23816156a6565b92915050565b600082601f830112613a3e57613a3d614f78565b5b8135613a4e8482602086016138b0565b91505092915050565b600082601f830112613a6c57613a6b614f78565b5b8135613a7c848260208601613920565b91505092915050565b600081359050613a94816156bd565b92915050565b600081359050613aa9816156d4565b92915050565b600081519050613abe816156d4565b92915050565b600082601f830112613ad957613ad8614f78565b5b8135613ae9848260208601613990565b91505092915050565b600082601f830112613b0757613b06614f78565b5b8135613b178482602086016139d2565b91505092915050565b600081359050613b2f816156eb565b92915050565b600060208284031215613b4b57613b4a614f8c565b5b6000613b5984828501613a14565b91505092915050565b60008060408385031215613b7957613b78614f8c565b5b6000613b8785828601613a14565b9250506020613b9885828601613a14565b9150509250929050565b600080600080600060a08688031215613bbe57613bbd614f8c565b5b6000613bcc88828901613a14565b9550506020613bdd88828901613a14565b945050604086013567ffffffffffffffff811115613bfe57613bfd614f87565b5b613c0a88828901613a57565b935050606086013567ffffffffffffffff811115613c2b57613c2a614f87565b5b613c3788828901613a57565b925050608086013567ffffffffffffffff811115613c5857613c57614f87565b5b613c6488828901613ac4565b9150509295509295909350565b600080600080600060a08688031215613c8d57613c8c614f8c565b5b6000613c9b88828901613a14565b9550506020613cac88828901613a14565b9450506040613cbd88828901613b20565b9350506060613cce88828901613b20565b925050608086013567ffffffffffffffff811115613cef57613cee614f87565b5b613cfb88828901613ac4565b9150509295509295909350565b60008060408385031215613d1f57613d1e614f8c565b5b6000613d2d85828601613a14565b925050602083013567ffffffffffffffff811115613d4e57613d4d614f87565b5b613d5a85828601613a57565b9150509250929050565b600080600060608486031215613d7d57613d7c614f8c565b5b6000613d8b86828701613a14565b935050602084013567ffffffffffffffff811115613dac57613dab614f87565b5b613db886828701613a57565b925050604084013567ffffffffffffffff811115613dd957613dd8614f87565b5b613de586828701613a57565b9150509250925092565b60008060408385031215613e0657613e05614f8c565b5b6000613e1485828601613a14565b9250506020613e2585828601613a85565b9150509250929050565b60008060408385031215613e4657613e45614f8c565b5b6000613e5485828601613a14565b9250506020613e6585828601613b20565b9150509250929050565b600080600060608486031215613e8857613e87614f8c565b5b6000613e9686828701613a14565b9350506020613ea786828701613b20565b9250506040613eb886828701613b20565b9150509250925092565b60008060408385031215613ed957613ed8614f8c565b5b600083013567ffffffffffffffff811115613ef757613ef6614f87565b5b613f0385828601613a29565b925050602083013567ffffffffffffffff811115613f2457613f23614f87565b5b613f3085828601613a57565b9150509250929050565b600060208284031215613f5057613f4f614f8c565b5b6000613f5e84828501613a9a565b91505092915050565b600060208284031215613f7d57613f7c614f8c565b5b6000613f8b84828501613aaf565b91505092915050565b600060208284031215613faa57613fa9614f8c565b5b600082013567ffffffffffffffff811115613fc857613fc7614f87565b5b613fd484828501613af2565b91505092915050565b60008060408385031215613ff457613ff3614f8c565b5b600083013567ffffffffffffffff81111561401257614011614f87565b5b61401e85828601613af2565b925050602061402f85828601613b20565b9150509250929050565b60006020828403121561404f5761404e614f8c565b5b600061405d84828501613b20565b91505092915050565b6000806040838503121561407d5761407c614f8c565b5b600061408b85828601613b20565b925050602083013567ffffffffffffffff8111156140ac576140ab614f87565b5b6140b885828601613af2565b9150509250929050565b600080604083850312156140d9576140d8614f8c565b5b60006140e785828601613b20565b92505060206140f885828601613b20565b9150509250929050565b600061410e83836145a4565b60208301905092915050565b61412381614d09565b82525050565b600061413482614c08565b61413e8185614c36565b935061414983614bf8565b8060005b8381101561417a5781516141618882614102565b975061416c83614c29565b92505060018101905061414d565b5085935050505092915050565b61419081614d1b565b82525050565b60006141a182614c13565b6141ab8185614c47565b93506141bb818560208601614d8c565b6141c481614f91565b840191505092915050565b60006141da82614c1e565b6141e48185614c63565b93506141f4818560208601614d8c565b6141fd81614f91565b840191505092915050565b600061421382614c1e565b61421d8185614c74565b935061422d818560208601614d8c565b80840191505092915050565b6000614246603483614c63565b915061425182614faf565b604082019050919050565b6000614269602f83614c63565b915061427482614ffe565b604082019050919050565b600061428c602883614c63565b91506142978261504d565b604082019050919050565b60006142af601483614c63565b91506142ba8261509c565b602082019050919050565b60006142d2602b83614c63565b91506142dd826150c5565b604082019050919050565b60006142f5602683614c63565b915061430082615114565b604082019050919050565b6000614318602483614c63565b915061432382615163565b604082019050919050565b600061433b602c83614c63565b9150614346826151b2565b604082019050919050565b600061435e602a83614c63565b915061436982615201565b604082019050919050565b6000614381601983614c63565b915061438c82615250565b602082019050919050565b60006143a4601083614c63565b91506143af82615279565b602082019050919050565b60006143c7602583614c63565b91506143d2826152a2565b604082019050919050565b60006143ea602383614c63565b91506143f5826152f1565b604082019050919050565b600061440d602a83614c63565b915061441882615340565b604082019050919050565b6000614430602083614c63565b915061443b8261538f565b602082019050919050565b6000614453602883614c63565b915061445e826153b8565b604082019050919050565b6000614476601283614c63565b915061448182615407565b602082019050919050565b6000614499600083614c58565b91506144a482615430565b600082019050919050565b60006144bc601083614c63565b91506144c782615433565b602082019050919050565b60006144df602983614c63565b91506144ea8261545c565b604082019050919050565b6000614502602983614c63565b915061450d826154ab565b604082019050919050565b6000614525602883614c63565b9150614530826154fa565b604082019050919050565b6000614548602183614c63565b915061455382615549565b604082019050919050565b600061456b602583614c63565b915061457682615598565b604082019050919050565b600061458e601983614c63565b9150614599826155e7565b602082019050919050565b6145ad81614d73565b82525050565b6145bc81614d73565b82525050565b60006145ce8285614208565b91506145da8284614208565b91508190509392505050565b60006145f18261448c565b9150819050919050565b6000602082019050614610600083018461411a565b92915050565b600060a08201905061462b600083018861411a565b614638602083018761411a565b818103604083015261464a8186614129565b9050818103606083015261465e8185614129565b905081810360808301526146728184614196565b90509695505050505050565b600060a082019050614693600083018861411a565b6146a0602083018761411a565b6146ad60408301866145b3565b6146ba60608301856145b3565b81810360808301526146cc8184614196565b90509695505050505050565b600060208201905081810360008301526146f28184614129565b905092915050565b600060408201905081810360008301526147148185614129565b905081810360208301526147288184614129565b90509392505050565b60006020820190506147466000830184614187565b92915050565b6000602082019050818103600083015261476681846141cf565b905092915050565b6000602082019050818103600083015261478781614239565b9050919050565b600060208201905081810360008301526147a78161425c565b9050919050565b600060208201905081810360008301526147c78161427f565b9050919050565b600060208201905081810360008301526147e7816142a2565b9050919050565b60006020820190508181036000830152614807816142c5565b9050919050565b60006020820190508181036000830152614827816142e8565b9050919050565b600060208201905081810360008301526148478161430b565b9050919050565b600060208201905081810360008301526148678161432e565b9050919050565b6000602082019050818103600083015261488781614351565b9050919050565b600060208201905081810360008301526148a781614374565b9050919050565b600060208201905081810360008301526148c781614397565b9050919050565b600060208201905081810360008301526148e7816143ba565b9050919050565b60006020820190508181036000830152614907816143dd565b9050919050565b6000602082019050818103600083015261492781614400565b9050919050565b6000602082019050818103600083015261494781614423565b9050919050565b6000602082019050818103600083015261496781614446565b9050919050565b6000602082019050818103600083015261498781614469565b9050919050565b600060208201905081810360008301526149a7816144af565b9050919050565b600060208201905081810360008301526149c7816144d2565b9050919050565b600060208201905081810360008301526149e7816144f5565b9050919050565b60006020820190508181036000830152614a0781614518565b9050919050565b60006020820190508181036000830152614a278161453b565b9050919050565b60006020820190508181036000830152614a478161455e565b9050919050565b60006020820190508181036000830152614a6781614581565b9050919050565b6000602082019050614a8360008301846145b3565b92915050565b6000604082019050614a9e60008301856145b3565b8181036020830152614ab08184614129565b90509392505050565b6000604082019050614ace60008301856145b3565b614adb60208301846145b3565b9392505050565b6000606082019050614af760008301866145b3565b614b0460208301856145b3565b614b11604083018461411a565b949350505050565b6000614b23614b34565b9050614b2f8282614df1565b919050565b6000604051905090565b600067ffffffffffffffff821115614b5957614b58614f27565b5b602082029050602081019050919050565b600067ffffffffffffffff821115614b8557614b84614f27565b5b602082029050602081019050919050565b600067ffffffffffffffff821115614bb157614bb0614f27565b5b614bba82614f91565b9050602081019050919050565b600067ffffffffffffffff821115614be257614be1614f27565b5b614beb82614f91565b9050602081019050919050565b6000819050602082019050919050565b600081519050919050565b600081519050919050565b600081519050919050565b6000602082019050919050565b600082825260208201905092915050565b600082825260208201905092915050565b600081905092915050565b600082825260208201905092915050565b600081905092915050565b6000614c8a82614d73565b9150614c9583614d73565b9250827fffffffffffffffffffffffffffffffffffffffffffffffffffffffffffffffff03821115614cca57614cc9614e6b565b5b828201905092915050565b6000614ce082614d73565b9150614ceb83614d73565b925082821015614cfe57614cfd614e6b565b5b828203905092915050565b6000614d1482614d53565b9050919050565b60008115159050919050565b60007fffffffff0000000000000000000000000000000000000000000000000000000082169050919050565b600073ffffffffffffffffffffffffffffffffffffffff82169050919050565b6000819050919050565b82818337600083830152505050565b60005b83811015614daa578082015181840152602081019050614d8f565b83811115614db9576000848401525b50505050565b60006002820490506001821680614dd757607f821691505b60208210811415614deb57614dea614e9a565b5b50919050565b614dfa82614f91565b810181811067ffffffffffffffff82111715614e1957614e18614f27565b5b80604052505050565b6000614e2d82614d73565b91507fffffffffffffffffffffffffffffffffffffffffffffffffffffffffffffffff821415614e6057614e5f614e6b565b5b600182019050919050565b7f4e487b7100000000000000000000000000000000000000000000000000000000600052601160045260246000fd5b7f4e487b7100000000000000000000000000000000000000000000000000000000600052602260045260246000fd5b7f4e487b7100000000000000000000000000000000000000000000000000000000600052603160045260246000fd5b7f4e487b7100000000000000000000000000000000000000000000000000000000600052603260045260246000fd5b7f4e487b7100000000000000000000000000000000000000000000000000000000600052604160045260246000fd5b600060033d1115614f755760046000803e614f72600051614fa2565b90505b90565b600080fd5b600080fd5b600080fd5b600080fd5b600080fd5b6000601f19601f8301169050919050565b60008160e01c9050919050565b7f455243313135353a207472616e7366657220746f206e6f6e204552433131353560008201527f526563656976657220696d706c656d656e746572000000000000000000000000602082015250565b7f455243313135353a2063616c6c6572206973206e6f7420746f6b656e206f776e60008201527f6572206e6f7220617070726f7665640000000000000000000000000000000000602082015250565b7f455243313135353a204552433131353552656365697665722072656a6563746560008201527f6420746f6b656e73000000000000000000000000000000000000000000000000602082015250565b7f5061757361626c653a206e6f7420706175736564000000000000000000000000600082015250565b7f455243313135353a2062616c616e636520717565727920666f7220746865207a60008201527f65726f2061646472657373000000000000000000000000000000000000000000602082015250565b7f4f776e61626c653a206e6577206f776e657220697320746865207a65726f206160008201527f6464726573730000000000000000000000000000000000000000000000000000602082015250565b7f455243313135353a206275726e20616d6f756e7420657863656564732062616c60008201527f616e636500000000000000000000000000000000000000000000000000000000602082015250565b7f455243313135355061757361626c653a20746f6b656e207472616e736665722060008201527f7768696c65207061757365640000000000000000000000000000000000000000602082015250565b7f455243313135353a2061646472657373207a65726f206973206e6f742061207660008201527f616c6964206f776e657200000000000000000000000000000000000000000000602082015250565b7f4e6f206d61746963206c65667420746f20776974686472617700000000000000600082015250565b7f5061757361626c653a2070617573656400000000000000000000000000000000600082015250565b7f455243313135353a207472616e7366657220746f20746865207a65726f20616460008201527f6472657373000000000000000000000000000000000000000000000000000000602082015250565b7f455243313135353a206275726e2066726f6d20746865207a65726f206164647260008201527f6573730000000000000000000000000000000000000000000000000000000000602082015250565b7f455243313135353a20696e73756666696369656e742062616c616e636520666f60008201527f72207472616e7366657200000000000000000000000000000000000000000000602082015250565b7f4f776e61626c653a2063616c6c6572206973206e6f7420746865206f776e6572600082015250565b7f455243313135353a206275726e20616d6f756e74206578636565647320746f7460008201527f616c537570706c79000000000000000000000000000000000000000000000000602082015250565b7f546f6b656e4944206d7573742065786973740000000000000000000000000000600082015250565b50565b7f5472616e73666572206661696c65642e00000000000000000000000000000000600082015250565b7f455243313135353a2073657474696e6720617070726f76616c2073746174757360008201527f20666f722073656c660000000000000000000000000000000000000000000000602082015250565b7f455243313135353a206163636f756e747320616e6420696473206c656e67746860008201527f206d69736d617463680000000000000000000000000000000000000000000000602082015250565b7f455243313135353a2069647320616e6420616d6f756e7473206c656e6774682060008201527f6d69736d61746368000000000000000000000000000000000000000000000000602082015250565b7f455243313135353a206d696e7420746f20746865207a65726f2061646472657360008201527f7300000000000000000000000000000000000000000000000000000000000000602082015250565b7f4e756d626572206f6620546f6b656e206d75737420626520626967676572207460008201527f68616e2030000000000000000000000000000000000000000000000000000000602082015250565b7f416d6f756e74206d75737420626967676572207468616e203000000000000000600082015250565b600060443d1015615620576156a3565b615628614b34565b60043d036004823e80513d602482011167ffffffffffffffff821117156156505750506156a3565b808201805167ffffffffffffffff81111561566e57505050506156a3565b80602083010160043d03850181111561568b5750505050506156a3565b61569a82602001850186614df1565b82955050505050505b90565b6156af81614d09565b81146156ba57600080fd5b50565b6156c681614d1b565b81146156d157600080fd5b50565b6156dd81614d27565b81146156e857600080fd5b50565b6156f481614d73565b81146156ff57600080fd5b5056fea2646970667358221220532b2eef680bd4ea9083345fbda9067e8220e9ee1db16fac0342dc999052512c64736f6c6343000806003368747470733a2f2f676174657761792e70696e6174612e636c6f75642f697066732f",
  "immutableReferences": {},
  "source": "// SPDX-License-Identifier: MIT\r\npragma solidity ^0.8.0;\r\n\r\nimport \"@openzeppelin/contracts/access/Ownable.sol\";\r\nimport \"@openzeppelin/contracts/token/ERC1155/extensions/ERC1155Supply.sol\";\r\nimport \"@openzeppelin/contracts/token/ERC1155/extensions/ERC1155Pausable.sol\";\r\nimport \"@openzeppelin/contracts/token/ERC1155/extensions/ERC1155Burnable.sol\";\r\nimport \"@confluxfans/contracts/token/CRC1155/extensions/CRC1155Enumerable.sol\";\r\n\r\ncontract CarbonCreditCard is\r\n  ERC1155Supply,\r\n  Ownable,\r\n  ERC1155Pausable,\r\n  ERC1155Burnable,\r\n  CRC1155Enumerable\r\n{\r\n  uint256 private tokenCount;\r\n\r\n  mapping(uint256 => string) private tokenURI;\r\n\r\n  string public name = \"CarbonCreditCard\";\r\n  string public symbol = \"CCC\";\r\n\r\n  event Mint(uint256 tokenId, uint256 amount, address recipient);\r\n\r\n  constructor() ERC1155(\"https://gateway.pinata.cloud/ipfs/\") {\r\n    tokenCount = 0;\r\n  }\r\n\r\n  function _setTokenURI(string memory tokenURI_, uint256 tokenId_)\r\n    public\r\n    onlyOwner\r\n  {\r\n    require(exists(tokenId_), \"TokenID must exist\");\r\n    tokenURI[tokenId_] = tokenURI_;\r\n    emit URI(tokenURI_, tokenId_);\r\n  }\r\n\r\n  function setURI(string memory newuri) public onlyOwner {\r\n    _setURI(newuri);\r\n  }\r\n\r\n  function _tokenURI(uint256 tokenId_) public view returns (string memory) {\r\n    require(exists(tokenId_), \"TokenID must exist\");\r\n    string memory _toknURI = tokenURI[tokenId_];\r\n    string memory baseURI = uri(tokenId_);\r\n    return string(abi.encodePacked(baseURI, _toknURI));\r\n  }\r\n\r\n  //1. 200->1 tokenid amount=200, \r\n  //2. amount==1;\r\n  function mintNewToken(uint256 amount, string memory hash)\r\n    public\r\n    onlyOwner\r\n    returns (uint256)\r\n  {\r\n    require(amount > 0, \"Amount must bigger than 0\");\r\n    tokenCount++;\r\n    uint256 newTokenId = tokenCount;\r\n    _mint(msg.sender, newTokenId, amount, \"\");\r\n    _setTokenURI(hash, newTokenId);\r\n    emit Mint(newTokenId, amount, msg.sender);\r\n    return newTokenId;\r\n  }\r\n\r\n  function balanceOfAccountId(address account, uint256[] memory ids)\r\n    public\r\n    view\r\n    returns (uint256[] memory)\r\n  {\r\n    require(\r\n      account != address(0),\r\n      \"ERC1155: balance query for the zero address\"\r\n    );\r\n\r\n    uint256[] memory batchBalances = new uint256[](ids.length);\r\n\r\n    for (uint256 i = 0; i < ids.length; ++i) {\r\n      batchBalances[i] = balanceOf(account, ids[i]);\r\n    }\r\n\r\n    return batchBalances;\r\n  }\r\n\r\n  function balanceOfAccount(address account)\r\n    public\r\n    view\r\n    returns (uint256[] memory)\r\n  {\r\n    require(\r\n      account != address(0),\r\n      \"ERC1155: balance query for the zero address\"\r\n    );\r\n    require(tokenCount > 0, \"Number of Token must be bigger than 0\");\r\n\r\n    uint256[] memory batchBalances = new uint256[](tokenCount);\r\n\r\n    for (uint256 i = 0; i < tokenCount; ++i) {\r\n      batchBalances[i] = balanceOf(account, i + 1);\r\n    }\r\n\r\n    return batchBalances;\r\n  }\r\n\r\n  function mintExistingToken(uint256 tokenId_, uint256 amount)\r\n    public\r\n    onlyOwner\r\n    returns (uint256)\r\n  {\r\n    require(exists(tokenId_), \"TokenID must exist\");\r\n    require(amount > 0, \"Amount must bigger than 0\");\r\n    uint256 newTokenId = tokenId_;\r\n    _mint(msg.sender, newTokenId, amount, \"\");\r\n    emit Mint(newTokenId, amount, msg.sender);\r\n    return totalSupply(tokenId_);\r\n  }\r\n\r\n  function pause() public onlyOwner {\r\n    _pause();\r\n  }\r\n\r\n  function unpause() public onlyOwner {\r\n    _unpause();\r\n  }\r\n  function exists(uint256 tokenId) public view override(ERC1155Supply,CRC1155Enumerable) returns (bool){\r\n    return super.exists(tokenId);\r\n  }\r\n  function withdraw() public onlyOwner {\r\n    uint256 balance = address(this).balance;\r\n    require(balance > 0, \"No matic left to withdraw\");\r\n    (bool success, ) = (msg.sender).call{value: balance}(\"\");\r\n    require(success, \"Transfer failed.\");\r\n  }\r\n\r\n   function _beforeTokenTransfer(\r\n     address operator,\r\n     address from,\r\n     address to,\r\n     uint256[] memory ids,\r\n     uint256[] memory amounts,\r\n     bytes memory data\r\n   ) internal virtual override(CRC1155Enumerable,ERC1155, ERC1155Pausable, ERC1155Supply) {\r\n     super._beforeTokenTransfer(operator, from, to, ids, amounts, data);\r\n   }\r\n\r\n  function supportsInterface(bytes4 interfaceId) public view override(ERC1155,CRC1155Enumerable) returns (bool) {\r\n    return super.supportsInterface(interfaceId);\r\n  }\r\n\r\n  /**\r\n     * @dev Returns the total amount of tokens for the specified `tokenId`.\r\n     */\r\n  function totalSupply(uint256 tokenId) public view override(ERC1155Supply,CRC1155Enumerable) returns (uint256) {\r\n    return super.totalSupply(tokenId);\r\n  }\r\n}\r\n",
  "sourcePath": "E:/0FFFFF/project/conflux/1155demo/contracts/CarbonCreditCard.sol",
  "compiler": {
    "name": "solc",
    "version": "0.8.6+commit.11564f7e.Emscripten.clang"
  },
  "schemaVersion": "3.3.4",
  "updatedAt": "2022-08-16T03:44:01.687Z",
  "devdoc": {
    "kind": "dev",
    "methods": {
      "balanceOf(address,uint256)": {
        "details": "See {IERC1155-balanceOf}. Requirements: - `account` cannot be the zero address."
      },
      "balanceOfBatch(address[],uint256[])": {
        "details": "See {IERC1155-balanceOfBatch}. Requirements: - `accounts` and `ids` must have the same length."
      },
      "isApprovedForAll(address,address)": {
        "details": "See {IERC1155-isApprovedForAll}."
      },
      "owner()": {
        "details": "Returns the address of the current owner."
      },
      "paused()": {
        "details": "Returns true if the contract is paused, and false otherwise."
      },
      "renounceOwnership()": {
        "details": "Leaves the contract without owner. It will not be possible to call `onlyOwner` functions anymore. Can only be called by the current owner. NOTE: Renouncing ownership will leave the contract without an owner, thereby removing any functionality that is only available to the owner."
      },
      "safeBatchTransferFrom(address,address,uint256[],uint256[],bytes)": {
        "details": "See {IERC1155-safeBatchTransferFrom}."
      },
      "safeTransferFrom(address,address,uint256,uint256,bytes)": {
        "details": "See {IERC1155-safeTransferFrom}."
      },
      "setApprovalForAll(address,bool)": {
        "details": "See {IERC1155-setApprovalForAll}."
      },
      "tokenByIndex(uint256)": {
        "details": "Returns the `index`-th tokenId stored by the contract."
      },
      "tokenCountOf(address)": {
        "details": "Returns the number of token ids held by `owner`."
      },
      "tokenOfOwnerByIndex(address,uint256)": {
        "details": "Returns the `index`-th tokenId held by `owner`."
      },
      "tokens(uint256,uint256)": {
        "details": "Returns token IDs in pagination view."
      },
      "tokensOf(address,uint256,uint256)": {
        "details": "Returns token IDs of specified `owner` in pagination view."
      },
      "totalSupply()": {
        "details": "Returns the number of different tokenIds stored by the contract."
      },
      "totalSupply(uint256)": {
        "details": "Returns the total amount of tokens for the specified `tokenId`."
      },
      "transferOwnership(address)": {
        "details": "Transfers ownership of the contract to a new account (`newOwner`). Can only be called by the current owner."
      },
      "uri(uint256)": {
        "details": "See {IERC1155MetadataURI-uri}. This implementation returns the same URI for *all* token types. It relies on the token type ID substitution mechanism https://eips.ethereum.org/EIPS/eip-1155#metadata[defined in the EIP]. Clients calling this function must replace the `\\{id\\}` substring with the actual token type ID."
      }
    },
    "version": 1
  },
  "userdoc": {
    "kind": "user",
    "methods": {},
    "version": 1
  }
}