{
  "contractName": "CRC1155PresetAutoId",
  "abi": [
    {
      "inputs": [
        {
          "internalType": "string",
          "name": "uri",
          "type": "string"
        }
      ],
      "stateMutability": "nonpayable",
      "type": "constructor"
    },
    {
      "anonymous": false,
      "inputs": [
        {
          "indexed": true,
          "internalType": "address",
          "name": "account",
          "type": "address"
        },
        {
          "indexed": true,
          "internalType": "address",
          "name": "operator",
          "type": "address"
        },
        {
          "indexed": false,
          "internalType": "bool",
          "name": "approved",
          "type": "bool"
        }
      ],
      "name": "ApprovalForAll",
      "type": "event"
    },
    {
      "anonymous": false,
      "inputs": [
        {
          "indexed": false,
          "internalType": "address",
          "name": "account",
          "type": "address"
        }
      ],
      "name": "Paused",
      "type": "event"
    },
    {
      "anonymous": false,
      "inputs": [
        {
          "indexed": true,
          "internalType": "bytes32",
          "name": "role",
          "type": "bytes32"
        },
        {
          "indexed": true,
          "internalType": "bytes32",
          "name": "previousAdminRole",
          "type": "bytes32"
        },
        {
          "indexed": true,
          "internalType": "bytes32",
          "name": "newAdminRole",
          "type": "bytes32"
        }
      ],
      "name": "RoleAdminChanged",
      "type": "event"
    },
    {
      "anonymous": false,
      "inputs": [
        {
          "indexed": true,
          "internalType": "bytes32",
          "name": "role",
          "type": "bytes32"
        },
        {
          "indexed": true,
          "internalType": "address",
          "name": "account",
          "type": "address"
        },
        {
          "indexed": true,
          "internalType": "address",
          "name": "sender",
          "type": "address"
        }
      ],
      "name": "RoleGranted",
      "type": "event"
    },
    {
      "anonymous": false,
      "inputs": [
        {
          "indexed": true,
          "internalType": "bytes32",
          "name": "role",
          "type": "bytes32"
        },
        {
          "indexed": true,
          "internalType": "address",
          "name": "account",
          "type": "address"
        },
        {
          "indexed": true,
          "internalType": "address",
          "name": "sender",
          "type": "address"
        }
      ],
      "name": "RoleRevoked",
      "type": "event"
    },
    {
      "anonymous": false,
      "inputs": [
        {
          "indexed": true,
          "internalType": "address",
          "name": "operator",
          "type": "address"
        },
        {
          "indexed": true,
          "internalType": "address",
          "name": "from",
          "type": "address"
        },
        {
          "indexed": true,
          "internalType": "address",
          "name": "to",
          "type": "address"
        },
        {
          "indexed": false,
          "internalType": "uint256[]",
          "name": "ids",
          "type": "uint256[]"
        },
        {
          "indexed": false,
          "internalType": "uint256[]",
          "name": "values",
          "type": "uint256[]"
        }
      ],
      "name": "TransferBatch",
      "type": "event"
    },
    {
      "anonymous": false,
      "inputs": [
        {
          "indexed": true,
          "internalType": "address",
          "name": "operator",
          "type": "address"
        },
        {
          "indexed": true,
          "internalType": "address",
          "name": "from",
          "type": "address"
        },
        {
          "indexed": true,
          "internalType": "address",
          "name": "to",
          "type": "address"
        },
        {
          "indexed": false,
          "internalType": "uint256",
          "name": "id",
          "type": "uint256"
        },
        {
          "indexed": false,
          "internalType": "uint256",
          "name": "value",
          "type": "uint256"
        }
      ],
      "name": "TransferSingle",
      "type": "event"
    },
    {
      "anonymous": false,
      "inputs": [
        {
          "indexed": false,
          "internalType": "string",
          "name": "value",
          "type": "string"
        },
        {
          "indexed": true,
          "internalType": "uint256",
          "name": "id",
          "type": "uint256"
        }
      ],
      "name": "URI",
      "type": "event"
    },
    {
      "anonymous": false,
      "inputs": [
        {
          "indexed": false,
          "internalType": "address",
          "name": "account",
          "type": "address"
        }
      ],
      "name": "Unpaused",
      "type": "event"
    },
    {
      "inputs": [],
      "name": "DEFAULT_ADMIN_ROLE",
      "outputs": [
        {
          "internalType": "bytes32",
          "name": "",
          "type": "bytes32"
        }
      ],
      "stateMutability": "view",
      "type": "function"
    },
    {
      "inputs": [],
      "name": "MINTER_ROLE",
      "outputs": [
        {
          "internalType": "bytes32",
          "name": "",
          "type": "bytes32"
        }
      ],
      "stateMutability": "view",
      "type": "function"
    },
    {
      "inputs": [],
      "name": "PAUSER_ROLE",
      "outputs": [
        {
          "internalType": "bytes32",
          "name": "",
          "type": "bytes32"
        }
      ],
      "stateMutability": "view",
      "type": "function"
    },
    {
      "inputs": [
        {
          "internalType": "address",
          "name": "account",
          "type": "address"
        },
        {
          "internalType": "uint256",
          "name": "id",
          "type": "uint256"
        }
      ],
      "name": "balanceOf",
      "outputs": [
        {
          "internalType": "uint256",
          "name": "",
          "type": "uint256"
        }
      ],
      "stateMutability": "view",
      "type": "function"
    },
    {
      "inputs": [
        {
          "internalType": "address[]",
          "name": "accounts",
          "type": "address[]"
        },
        {
          "internalType": "uint256[]",
          "name": "ids",
          "type": "uint256[]"
        }
      ],
      "name": "balanceOfBatch",
      "outputs": [
        {
          "internalType": "uint256[]",
          "name": "",
          "type": "uint256[]"
        }
      ],
      "stateMutability": "view",
      "type": "function"
    },
    {
      "inputs": [
        {
          "internalType": "address",
          "name": "account",
          "type": "address"
        },
        {
          "internalType": "uint256",
          "name": "id",
          "type": "uint256"
        },
        {
          "internalType": "uint256",
          "name": "value",
          "type": "uint256"
        }
      ],
      "name": "burn",
      "outputs": [],
      "stateMutability": "nonpayable",
      "type": "function"
    },
    {
      "inputs": [
        {
          "internalType": "address",
          "name": "account",
          "type": "address"
        },
        {
          "internalType": "uint256[]",
          "name": "ids",
          "type": "uint256[]"
        },
        {
          "internalType": "uint256[]",
          "name": "values",
          "type": "uint256[]"
        }
      ],
      "name": "burnBatch",
      "outputs": [],
      "stateMutability": "nonpayable",
      "type": "function"
    },
    {
      "inputs": [
        {
          "internalType": "uint256",
          "name": "tokenId",
          "type": "uint256"
        }
      ],
      "name": "exists",
      "outputs": [
        {
          "internalType": "bool",
          "name": "",
          "type": "bool"
        }
      ],
      "stateMutability": "view",
      "type": "function"
    },
    {
      "inputs": [
        {
          "internalType": "bytes32",
          "name": "role",
          "type": "bytes32"
        }
      ],
      "name": "getRoleAdmin",
      "outputs": [
        {
          "internalType": "bytes32",
          "name": "",
          "type": "bytes32"
        }
      ],
      "stateMutability": "view",
      "type": "function"
    },
    {
      "inputs": [
        {
          "internalType": "bytes32",
          "name": "role",
          "type": "bytes32"
        },
        {
          "internalType": "uint256",
          "name": "index",
          "type": "uint256"
        }
      ],
      "name": "getRoleMember",
      "outputs": [
        {
          "internalType": "address",
          "name": "",
          "type": "address"
        }
      ],
      "stateMutability": "view",
      "type": "function"
    },
    {
      "inputs": [
        {
          "internalType": "bytes32",
          "name": "role",
          "type": "bytes32"
        }
      ],
      "name": "getRoleMemberCount",
      "outputs": [
        {
          "internalType": "uint256",
          "name": "",
          "type": "uint256"
        }
      ],
      "stateMutability": "view",
      "type": "function"
    },
    {
      "inputs": [
        {
          "internalType": "bytes32",
          "name": "role",
          "type": "bytes32"
        },
        {
          "internalType": "address",
          "name": "account",
          "type": "address"
        }
      ],
      "name": "grantRole",
      "outputs": [],
      "stateMutability": "nonpayable",
      "type": "function"
    },
    {
      "inputs": [
        {
          "internalType": "bytes32",
          "name": "role",
          "type": "bytes32"
        },
        {
          "internalType": "address",
          "name": "account",
          "type": "address"
        }
      ],
      "name": "hasRole",
      "outputs": [
        {
          "internalType": "bool",
          "name": "",
          "type": "bool"
        }
      ],
      "stateMutability": "view",
      "type": "function"
    },
    {
      "inputs": [
        {
          "internalType": "address",
          "name": "account",
          "type": "address"
        },
        {
          "internalType": "address",
          "name": "operator",
          "type": "address"
        }
      ],
      "name": "isApprovedForAll",
      "outputs": [
        {
          "internalType": "bool",
          "name": "",
          "type": "bool"
        }
      ],
      "stateMutability": "view",
      "type": "function"
    },
    {
      "inputs": [],
      "name": "pause",
      "outputs": [],
      "stateMutability": "nonpayable",
      "type": "function"
    },
    {
      "inputs": [],
      "name": "paused",
      "outputs": [
        {
          "internalType": "bool",
          "name": "",
          "type": "bool"
        }
      ],
      "stateMutability": "view",
      "type": "function"
    },
    {
      "inputs": [
        {
          "internalType": "bytes32",
          "name": "role",
          "type": "bytes32"
        },
        {
          "internalType": "address",
          "name": "account",
          "type": "address"
        }
      ],
      "name": "renounceRole",
      "outputs": [],
      "stateMutability": "nonpayable",
      "type": "function"
    },
    {
      "inputs": [
        {
          "internalType": "bytes32",
          "name": "role",
          "type": "bytes32"
        },
        {
          "internalType": "address",
          "name": "account",
          "type": "address"
        }
      ],
      "name": "revokeRole",
      "outputs": [],
      "stateMutability": "nonpayable",
      "type": "function"
    },
    {
      "inputs": [
        {
          "internalType": "address",
          "name": "from",
          "type": "address"
        },
        {
          "internalType": "address",
          "name": "to",
          "type": "address"
        },
        {
          "internalType": "uint256[]",
          "name": "ids",
          "type": "uint256[]"
        },
        {
          "internalType": "uint256[]",
          "name": "amounts",
          "type": "uint256[]"
        },
        {
          "internalType": "bytes",
          "name": "data",
          "type": "bytes"
        }
      ],
      "name": "safeBatchTransferFrom",
      "outputs": [],
      "stateMutability": "nonpayable",
      "type": "function"
    },
    {
      "inputs": [
        {
          "internalType": "address",
          "name": "from",
          "type": "address"
        },
        {
          "internalType": "address",
          "name": "to",
          "type": "address"
        },
        {
          "internalType": "uint256",
          "name": "id",
          "type": "uint256"
        },
        {
          "internalType": "uint256",
          "name": "amount",
          "type": "uint256"
        },
        {
          "internalType": "bytes",
          "name": "data",
          "type": "bytes"
        }
      ],
      "name": "safeTransferFrom",
      "outputs": [],
      "stateMutability": "nonpayable",
      "type": "function"
    },
    {
      "inputs": [
        {
          "internalType": "address",
          "name": "operator",
          "type": "address"
        },
        {
          "internalType": "bool",
          "name": "approved",
          "type": "bool"
        }
      ],
      "name": "setApprovalForAll",
      "outputs": [],
      "stateMutability": "nonpayable",
      "type": "function"
    },
    {
      "inputs": [
        {
          "internalType": "uint256",
          "name": "index",
          "type": "uint256"
        }
      ],
      "name": "tokenByIndex",
      "outputs": [
        {
          "internalType": "uint256",
          "name": "",
          "type": "uint256"
        }
      ],
      "stateMutability": "view",
      "type": "function"
    },
    {
      "inputs": [
        {
          "internalType": "address",
          "name": "owner",
          "type": "address"
        }
      ],
      "name": "tokenCountOf",
      "outputs": [
        {
          "internalType": "uint256",
          "name": "",
          "type": "uint256"
        }
      ],
      "stateMutability": "view",
      "type": "function"
    },
    {
      "inputs": [
        {
          "internalType": "address",
          "name": "owner",
          "type": "address"
        },
        {
          "internalType": "uint256",
          "name": "index",
          "type": "uint256"
        }
      ],
      "name": "tokenOfOwnerByIndex",
      "outputs": [
        {
          "internalType": "uint256",
          "name": "",
          "type": "uint256"
        }
      ],
      "stateMutability": "view",
      "type": "function"
    },
    {
      "inputs": [
        {
          "internalType": "uint256",
          "name": "offset",
          "type": "uint256"
        },
        {
          "internalType": "uint256",
          "name": "limit",
          "type": "uint256"
        }
      ],
      "name": "tokens",
      "outputs": [
        {
          "internalType": "uint256",
          "name": "total",
          "type": "uint256"
        },
        {
          "internalType": "uint256[]",
          "name": "tokenIds",
          "type": "uint256[]"
        }
      ],
      "stateMutability": "view",
      "type": "function"
    },
    {
      "inputs": [
        {
          "internalType": "address",
          "name": "owner",
          "type": "address"
        },
        {
          "internalType": "uint256",
          "name": "offset",
          "type": "uint256"
        },
        {
          "internalType": "uint256",
          "name": "limit",
          "type": "uint256"
        }
      ],
      "name": "tokensOf",
      "outputs": [
        {
          "internalType": "uint256",
          "name": "total",
          "type": "uint256"
        },
        {
          "internalType": "uint256[]",
          "name": "tokenIds",
          "type": "uint256[]"
        }
      ],
      "stateMutability": "view",
      "type": "function"
    },
    {
      "inputs": [],
      "name": "totalSupply",
      "outputs": [
        {
          "internalType": "uint256",
          "name": "",
          "type": "uint256"
        }
      ],
      "stateMutability": "view",
      "type": "function"
    },
    {
      "inputs": [
        {
          "internalType": "uint256",
          "name": "tokenId",
          "type": "uint256"
        }
      ],
      "name": "totalSupply",
      "outputs": [
        {
          "internalType": "uint256",
          "name": "",
          "type": "uint256"
        }
      ],
      "stateMutability": "view",
      "type": "function"
    },
    {
      "inputs": [],
      "name": "unpause",
      "outputs": [],
      "stateMutability": "nonpayable",
      "type": "function"
    },
    {
      "inputs": [
        {
          "internalType": "uint256",
          "name": "",
          "type": "uint256"
        }
      ],
      "name": "uri",
      "outputs": [
        {
          "internalType": "string",
          "name": "",
          "type": "string"
        }
      ],
      "stateMutability": "view",
      "type": "function"
    },
    {
      "inputs": [
        {
          "internalType": "string",
          "name": "newuri",
          "type": "string"
        }
      ],
      "name": "setURI",
      "outputs": [],
      "stateMutability": "nonpayable",
      "type": "function"
    },
    {
      "inputs": [
        {
          "internalType": "address",
          "name": "to",
          "type": "address"
        },
        {
          "internalType": "uint256",
          "name": "id",
          "type": "uint256"
        },
        {
          "internalType": "uint256",
          "name": "amount",
          "type": "uint256"
        },
        {
          "internalType": "bytes",
          "name": "data",
          "type": "bytes"
        }
      ],
      "name": "mint",
      "outputs": [],
      "stateMutability": "nonpayable",
      "type": "function"
    },
    {
      "inputs": [
        {
          "internalType": "address",
          "name": "to",
          "type": "address"
        },
        {
          "internalType": "uint256",
          "name": "amount",
          "type": "uint256"
        },
        {
          "internalType": "bytes",
          "name": "data",
          "type": "bytes"
        }
      ],
      "name": "mint",
      "outputs": [],
      "stateMutability": "nonpayable",
      "type": "function"
    },
    {
      "inputs": [
        {
          "internalType": "address",
          "name": "to",
          "type": "address"
        },
        {
          "internalType": "uint256[]",
          "name": "ids",
          "type": "uint256[]"
        },
        {
          "internalType": "uint256[]",
          "name": "amounts",
          "type": "uint256[]"
        },
        {
          "internalType": "bytes",
          "name": "data",
          "type": "bytes"
        }
      ],
      "name": "mintBatch",
      "outputs": [],
      "stateMutability": "nonpayable",
      "type": "function"
    },
    {
      "inputs": [
        {
          "internalType": "address",
          "name": "to",
          "type": "address"
        },
        {
          "internalType": "uint256[]",
          "name": "amounts",
          "type": "uint256[]"
        },
        {
          "internalType": "bytes",
          "name": "data",
          "type": "bytes"
        }
      ],
      "name": "mintBatch",
      "outputs": [],
      "stateMutability": "nonpayable",
      "type": "function"
    },
    {
      "inputs": [
        {
          "internalType": "bytes4",
          "name": "interfaceId",
          "type": "bytes4"
        }
      ],
      "name": "supportsInterface",
      "outputs": [
        {
          "internalType": "bool",
          "name": "",
          "type": "bool"
        }
      ],
      "stateMutability": "view",
      "type": "function"
    }
  ],
  "bytecode": "0x60806040523480156200001157600080fd5b50604051620062d1380380620062d18339818101604052810190620000379190620004f4565b80806200004a816200011460201b60201c565b506000600560006101000a81548160ff0219169083151502179055506200008a6000801b6200007e6200013060201b60201c565b6200013860201b60201c565b620000cb7f9f2df0fed2c77648de5860a4cc508cd0818c85b8b8a1ab4ceeef8d981c8956a6620000bf6200013060201b60201c565b6200013860201b60201c565b6200010c7f65d7a28e3265b37a6474929f336521b332c1681b933f6cb9f3376673440d862a620001006200013060201b60201c565b6200013860201b60201c565b5050620006c9565b80600490805190602001906200012c929190620003c6565b5050565b600033905090565b6200014a82826200014e60201b60201c565b5050565b6200016582826200019660201b620015cc1760201c565b6200019181600160008581526020019081526020016000206200028760201b620016ac1790919060201c565b505050565b620001a88282620002bf60201b60201c565b6200028357600160008084815260200190815260200160002060000160008373ffffffffffffffffffffffffffffffffffffffff1673ffffffffffffffffffffffffffffffffffffffff16815260200190815260200160002060006101000a81548160ff021916908315150217905550620002286200013060201b60201c565b73ffffffffffffffffffffffffffffffffffffffff168173ffffffffffffffffffffffffffffffffffffffff16837f2f8788117e7eff1d82e926ec794901d17c78024a50270940304540a733656f0d60405160405180910390a45b5050565b6000620002b7836000018373ffffffffffffffffffffffffffffffffffffffff1660001b6200032960201b60201c565b905092915050565b600080600084815260200190815260200160002060000160008373ffffffffffffffffffffffffffffffffffffffff1673ffffffffffffffffffffffffffffffffffffffff16815260200190815260200160002060009054906101000a900460ff16905092915050565b60006200033d8383620003a360201b60201c565b620003985782600001829080600181540180825580915050600190039060005260206000200160009091909190915055826000018054905083600101600084815260200190815260200160002081905550600190506200039d565b600090505b92915050565b600080836001016000848152602001908152602001600020541415905092915050565b828054620003d490620005da565b90600052602060002090601f016020900481019282620003f8576000855562000444565b82601f106200041357805160ff191683800117855562000444565b8280016001018555821562000444579182015b828111156200044357825182559160200191906001019062000426565b5b50905062000453919062000457565b5090565b5b808211156200047257600081600090555060010162000458565b5090565b60006200048d62000487846200056e565b62000545565b905082815260208101848484011115620004ac57620004ab620006a9565b5b620004b9848285620005a4565b509392505050565b600082601f830112620004d957620004d8620006a4565b5b8151620004eb84826020860162000476565b91505092915050565b6000602082840312156200050d576200050c620006b3565b5b600082015167ffffffffffffffff8111156200052e576200052d620006ae565b5b6200053c84828501620004c1565b91505092915050565b60006200055162000564565b90506200055f828262000610565b919050565b6000604051905090565b600067ffffffffffffffff8211156200058c576200058b62000675565b5b6200059782620006b8565b9050602081019050919050565b60005b83811015620005c4578082015181840152602081019050620005a7565b83811115620005d4576000848401525b50505050565b60006002820490506001821680620005f357607f821691505b602082108114156200060a576200060962000646565b5b50919050565b6200061b82620006b8565b810181811067ffffffffffffffff821117156200063d576200063c62000675565b5b80604052505050565b7f4e487b7100000000000000000000000000000000000000000000000000000000600052602260045260246000fd5b7f4e487b7100000000000000000000000000000000000000000000000000000000600052604160045260246000fd5b600080fd5b600080fd5b600080fd5b600080fd5b6000601f19601f8301169050919050565b615bf880620006d96000396000f3fe608060405234801561001057600080fd5b506004361061021b5760003560e01c80636b20c45411610125578063b722938a116100ad578063d547741f1161007c578063d547741f14610696578063e63ab1e9146106b2578063e985e9c5146106d0578063f242432a14610700578063f5298aca1461071c5761021b565b8063b722938a146105e8578063bd85b03914610618578063ca15c87314610648578063d5391393146106785761021b565b80639010d07c116100f45780639010d07c1461053257806391d148541461056257806394d008ef14610592578063a217fddf146105ae578063a22cb465146105cc5761021b565b80636b20c454146104bf578063731133e9146104db5780638456cb59146104f75780638b4864d6146105015761021b565b80632eb2c2d6116101a85780633f4ba83a116101775780633f4ba83a146104075780634e1273f4146104115780634f558e79146104415780634f6ccce7146104715780635c975abb146104a15761021b565b80632eb2c2d6146103835780632f2ff15d1461039f5780632f745c59146103bb57806336568abe146103eb5761021b565b806318160ddd116101ef57806318160ddd146102cc5780631f7fdffa146102ea578063228624821461030657806323185dc914610322578063248a9ca3146103535761021b565b8062fdd58e1461022057806301ffc9a71461025057806302fe5305146102805780630e89341c1461029c575b600080fd5b61023a600480360381019061023591906141ba565b610738565b6040516102479190614ea8565b60405180910390f35b61026a60048036038101906102659190614464565b610802565b6040516102779190614b90565b60405180910390f35b61029a600480360381019061029591906144be565b610814565b005b6102b660048036038101906102b19190614507565b610873565b6040516102c39190614bc6565b60405180910390f35b6102d4610907565b6040516102e19190614ea8565b60405180910390f35b61030460048036038101906102ff9190614034565b610918565b005b610320600480360381019061031b91906140ef565b61099a565b005b61033c60048036038101906103379190614269565b610a4d565b60405161034a929190614ec3565b60405180910390f35b61036d600480360381019061036891906143b7565b610b9c565b60405161037a9190614bab565b60405180910390f35b61039d60048036038101906103989190613e43565b610bbb565b005b6103b960048036038101906103b491906143e4565b610c5c565b005b6103d560048036038101906103d091906141ba565b610c7d565b6040516103e29190614ea8565b60405180910390f35b610405600480360381019061040091906143e4565b610cd8565b005b61040f610d5b565b005b61042b6004803603810190610426919061433f565b610dd5565b6040516104389190614b37565b60405180910390f35b61045b60048036038101906104569190614507565b610eee565b6040516104689190614b90565b60405180910390f35b61048b60048036038101906104869190614507565b610f0d565b6040516104989190614ea8565b60405180910390f35b6104a9610f2a565b6040516104b69190614b90565b60405180910390f35b6104d960048036038101906104d49190613fa9565b610f41565b005b6104f560048036038101906104f091906142bc565b610fde565b005b6104ff611060565b005b61051b60048036038101906105169190614534565b6110da565b604051610529929190614ec3565b60405180910390f35b61054c60048036038101906105479190614424565b611226565b6040516105599190614a5a565b60405180910390f35b61057c600480360381019061057791906143e4565b611255565b6040516105899190614b90565b60405180910390f35b6105ac60048036038101906105a791906141fa565b6112bf565b005b6105b66112e3565b6040516105c39190614bab565b60405180910390f35b6105e660048036038101906105e1919061417a565b6112ea565b005b61060260048036038101906105fd9190613dd6565b611300565b60405161060f9190614ea8565b60405180910390f35b610632600480360381019061062d9190614507565b611350565b60405161063f9190614ea8565b60405180910390f35b610662600480360381019061065d91906143b7565b61136d565b60405161066f9190614ea8565b60405180910390f35b610680611391565b60405161068d9190614bab565b60405180910390f35b6106b060048036038101906106ab91906143e4565b6113b5565b005b6106ba6113d6565b6040516106c79190614bab565b60405180910390f35b6106ea60048036038101906106e59190613e03565b6113fa565b6040516106f79190614b90565b60405180910390f35b61071a60048036038101906107159190613f12565b61148e565b005b61073660048036038101906107319190614269565b61152f565b005b60008073ffffffffffffffffffffffffffffffffffffffff168373ffffffffffffffffffffffffffffffffffffffff1614156107a9576040517f08c379a00000000000000000000000000000000000000000000000000000000081526004016107a090614cc8565b60405180910390fd5b6002600083815260200190815260200160002060008473ffffffffffffffffffffffffffffffffffffffff1673ffffffffffffffffffffffffffffffffffffffff16815260200190815260200160002054905092915050565b600061080d826116dc565b9050919050565b6108286000801b610823611756565b611255565b610867576040517f08c379a000000000000000000000000000000000000000000000000000000000815260040161085e90614d88565b60405180910390fd5b6108708161175e565b50565b60606004805461088290615245565b80601f01602080910402602001604051908101604052809291908181526020018280546108ae90615245565b80156108fb5780601f106108d0576101008083540402835291602001916108fb565b820191906000526020600020905b8154815290600101906020018083116108de57829003601f168201915b50505050509050919050565b60006109136006611778565b905090565b6109497f9f2df0fed2c77648de5860a4cc508cd0818c85b8b8a1ab4ceeef8d981c8956a6610944611756565b611255565b610988576040517f08c379a000000000000000000000000000000000000000000000000000000000815260040161097f90614d48565b60405180910390fd5b6109948484848461178d565b50505050565b6000825167ffffffffffffffff8111156109b7576109b66153ad565b5b6040519080825280602002602001820160405280156109e55781602001602082028036833780820191505090505b50905060005b8351811015610a3a576109fe600a6119bb565b828281518110610a1157610a1061537e565b5b602002602001018181525050610a27600a6119c9565b8080610a32906152a8565b9150506109eb565b50610a4784828585610918565b50505050565b60006060610a5a85611300565b91506000821480610a6b5750818410155b15610ac45781600067ffffffffffffffff811115610a8c57610a8b6153ad565b5b604051908082528060200260200182016040528015610aba5781602001602082028036833780820191505090505b5091509150610b94565b6000610ae48486610ad59190615077565b846119df90919063ffffffff16565b90508481610af29190615127565b67ffffffffffffffff811115610b0b57610b0a6153ad565b5b604051908082528060200260200182016040528015610b395781602001602082028036833780820191505090505b50915060008590505b81811015610b9157610b548782610c7d565b838783610b619190615127565b81518110610b7257610b7161537e565b5b6020026020010181815250508080610b89906152a8565b915050610b42565b50505b935093915050565b6000806000838152602001908152602001600020600101549050919050565b610bc3611756565b73ffffffffffffffffffffffffffffffffffffffff168573ffffffffffffffffffffffffffffffffffffffff161480610c095750610c0885610c03611756565b6113fa565b5b610c48576040517f08c379a0000000000000000000000000000000000000000000000000000000008152600401610c3f90614c08565b60405180910390fd5b610c5585858585856119f8565b5050505050565b610c6582610b9c565b610c6e81611d1d565b610c788383611d31565b505050565b6000610cd082600960008673ffffffffffffffffffffffffffffffffffffffff1673ffffffffffffffffffffffffffffffffffffffff168152602001908152602001600020611d6590919063ffffffff16565b905092915050565b610ce0611756565b73ffffffffffffffffffffffffffffffffffffffff168173ffffffffffffffffffffffffffffffffffffffff1614610d4d576040517f08c379a0000000000000000000000000000000000000000000000000000000008152600401610d4490614e88565b60405180910390fd5b610d578282611d7f565b5050565b610d8c7f65d7a28e3265b37a6474929f336521b332c1681b933f6cb9f3376673440d862a610d87611756565b611255565b610dcb576040517f08c379a0000000000000000000000000000000000000000000000000000000008152600401610dc290614da8565b60405180910390fd5b610dd3611db3565b565b60608151835114610e1b576040517f08c379a0000000000000000000000000000000000000000000000000000000008152600401610e1290614e28565b60405180910390fd5b6000835167ffffffffffffffff811115610e3857610e376153ad565b5b604051908082528060200260200182016040528015610e665781602001602082028036833780820191505090505b50905060005b8451811015610ee357610eb3858281518110610e8b57610e8a61537e565b5b6020026020010151858381518110610ea657610ea561537e565b5b6020026020010151610738565b828281518110610ec657610ec561537e565b5b60200260200101818152505080610edc906152a8565b9050610e6c565b508091505092915050565b6000806008600084815260200190815260200160002054119050919050565b6000610f23826006611d6590919063ffffffff16565b9050919050565b6000600560009054906101000a900460ff16905090565b610f49611756565b73ffffffffffffffffffffffffffffffffffffffff168373ffffffffffffffffffffffffffffffffffffffff161480610f8f5750610f8e83610f89611756565b6113fa565b5b610fce576040517f08c379a0000000000000000000000000000000000000000000000000000000008152600401610fc590614c08565b60405180910390fd5b610fd9838383611e16565b505050565b61100f7f9f2df0fed2c77648de5860a4cc508cd0818c85b8b8a1ab4ceeef8d981c8956a661100a611756565b611255565b61104e576040517f08c379a000000000000000000000000000000000000000000000000000000000815260040161104590614d48565b60405180910390fd5b61105a848484846120e7565b50505050565b6110917f65d7a28e3265b37a6474929f336521b332c1681b933f6cb9f3376673440d862a61108c611756565b611255565b6110d0576040517f08c379a00000000000000000000000000000000000000000000000000000000081526004016110c790614dc8565b60405180910390fd5b6110d8612299565b565b600060606110e6610907565b915060008214806110f75750818410155b156111505781600067ffffffffffffffff811115611118576111176153ad565b5b6040519080825280602002602001820160405280156111465781602001602082028036833780820191505090505b509150915061121f565b600061117084866111619190615077565b846119df90919063ffffffff16565b9050848161117e9190615127565b67ffffffffffffffff811115611197576111966153ad565b5b6040519080825280602002602001820160405280156111c55781602001602082028036833780820191505090505b50915060008590505b8181101561121c576111df81610f0d565b8387836111ec9190615127565b815181106111fd576111fc61537e565b5b6020026020010181815250508080611214906152a8565b9150506111ce565b50505b9250929050565b600061124d82600160008681526020019081526020016000206122fc90919063ffffffff16565b905092915050565b600080600084815260200190815260200160002060000160008373ffffffffffffffffffffffffffffffffffffffff1673ffffffffffffffffffffffffffffffffffffffff16815260200190815260200160002060009054906101000a900460ff16905092915050565b6112d4836112cd600a6119bb565b8484610fde565b6112de600a6119c9565b505050565b6000801b81565b6112fc6112f5611756565b8383612316565b5050565b6000611349600960008473ffffffffffffffffffffffffffffffffffffffff1673ffffffffffffffffffffffffffffffffffffffff168152602001908152602001600020611778565b9050919050565b600060086000838152602001908152602001600020549050919050565b600061138a60016000848152602001908152602001600020612483565b9050919050565b7f9f2df0fed2c77648de5860a4cc508cd0818c85b8b8a1ab4ceeef8d981c8956a681565b6113be82610b9c565b6113c781611d1d565b6113d18383611d7f565b505050565b7f65d7a28e3265b37a6474929f336521b332c1681b933f6cb9f3376673440d862a81565b6000600360008473ffffffffffffffffffffffffffffffffffffffff1673ffffffffffffffffffffffffffffffffffffffff16815260200190815260200160002060008373ffffffffffffffffffffffffffffffffffffffff1673ffffffffffffffffffffffffffffffffffffffff16815260200190815260200160002060009054906101000a900460ff16905092915050565b611496611756565b73ffffffffffffffffffffffffffffffffffffffff168573ffffffffffffffffffffffffffffffffffffffff1614806114dc57506114db856114d6611756565b6113fa565b5b61151b576040517f08c379a000000000000000000000000000000000000000000000000000000000815260040161151290614c08565b60405180910390fd5b6115288585858585612498565b5050505050565b611537611756565b73ffffffffffffffffffffffffffffffffffffffff168373ffffffffffffffffffffffffffffffffffffffff16148061157d575061157c83611577611756565b6113fa565b5b6115bc576040517f08c379a00000000000000000000000000000000000000000000000000000000081526004016115b390614c08565b60405180910390fd5b6115c7838383612737565b505050565b6115d68282611255565b6116a857600160008084815260200190815260200160002060000160008373ffffffffffffffffffffffffffffffffffffffff1673ffffffffffffffffffffffffffffffffffffffff16815260200190815260200160002060006101000a81548160ff02191690831515021790555061164d611756565b73ffffffffffffffffffffffffffffffffffffffff168173ffffffffffffffffffffffffffffffffffffffff16837f2f8788117e7eff1d82e926ec794901d17c78024a50270940304540a733656f0d60405160405180910390a45b5050565b60006116d4836000018373ffffffffffffffffffffffffffffffffffffffff1660001b612980565b905092915050565b60007f3dfc30a9000000000000000000000000000000000000000000000000000000007bffffffffffffffffffffffffffffffffffffffffffffffffffffffff1916827bffffffffffffffffffffffffffffffffffffffffffffffffffffffff1916148061174f575061174e826129f0565b5b9050919050565b600033905090565b8060049080519060200190611774929190613a99565b5050565b600061178682600001612a02565b9050919050565b600073ffffffffffffffffffffffffffffffffffffffff168473ffffffffffffffffffffffffffffffffffffffff1614156117fd576040517f08c379a00000000000000000000000000000000000000000000000000000000081526004016117f490614e68565b60405180910390fd5b8151835114611841576040517f08c379a000000000000000000000000000000000000000000000000000000000815260040161183890614e48565b60405180910390fd5b600061184b611756565b905061185c81600087878787612a13565b60005b84518110156119165783818151811061187b5761187a61537e565b5b60200260200101516002600087848151811061189a5761189961537e565b5b6020026020010151815260200190815260200160002060008873ffffffffffffffffffffffffffffffffffffffff1673ffffffffffffffffffffffffffffffffffffffff16815260200190815260200160002060008282546118fc9190615077565b92505081905550808061190e906152a8565b91505061185f565b508473ffffffffffffffffffffffffffffffffffffffff16600073ffffffffffffffffffffffffffffffffffffffff168273ffffffffffffffffffffffffffffffffffffffff167f4a39dc06d4c0dbc64b70af90fd698a233a518aa5d07e595d983b8c0526c8f7fb878760405161198e929190614b59565b60405180910390a46119a581600087878787612aa6565b6119b481600087878787612aae565b5050505050565b600081600001549050919050565b6001816000016000828254019250508190555050565b60008183106119ee57816119f0565b825b905092915050565b8151835114611a3c576040517f08c379a0000000000000000000000000000000000000000000000000000000008152600401611a3390614e48565b60405180910390fd5b600073ffffffffffffffffffffffffffffffffffffffff168473ffffffffffffffffffffffffffffffffffffffff161415611aac576040517f08c379a0000000000000000000000000000000000000000000000000000000008152600401611aa390614d08565b60405180910390fd5b6000611ab6611756565b9050611ac6818787878787612a13565b60005b8451811015611c7a576000858281518110611ae757611ae661537e565b5b602002602001015190506000858381518110611b0657611b0561537e565b5b6020026020010151905060006002600084815260200190815260200160002060008b73ffffffffffffffffffffffffffffffffffffffff1673ffffffffffffffffffffffffffffffffffffffff16815260200190815260200160002054905081811015611ba8576040517f08c379a0000000000000000000000000000000000000000000000000000000008152600401611b9f90614d68565b60405180910390fd5b8181036002600085815260200190815260200160002060008c73ffffffffffffffffffffffffffffffffffffffff1673ffffffffffffffffffffffffffffffffffffffff16815260200190815260200160002081905550816002600085815260200190815260200160002060008b73ffffffffffffffffffffffffffffffffffffffff1673ffffffffffffffffffffffffffffffffffffffff1681526020019081526020016000206000828254611c5f9190615077565b9250508190555050505080611c73906152a8565b9050611ac9565b508473ffffffffffffffffffffffffffffffffffffffff168673ffffffffffffffffffffffffffffffffffffffff168273ffffffffffffffffffffffffffffffffffffffff167f4a39dc06d4c0dbc64b70af90fd698a233a518aa5d07e595d983b8c0526c8f7fb8787604051611cf1929190614b59565b60405180910390a4611d07818787878787612aa6565b611d15818787878787612aae565b505050505050565b611d2e81611d29611756565b612c95565b50565b611d3b82826115cc565b611d6081600160008581526020019081526020016000206116ac90919063ffffffff16565b505050565b6000611d748360000183612d32565b60001c905092915050565b611d898282612d5d565b611dae8160016000858152602001908152602001600020612e3e90919063ffffffff16565b505050565b611dbb612e6e565b6000600560006101000a81548160ff0219169083151502179055507f5db9ee0a495bf2e6ff9c91a7834c1ba4fdd244a5e8aa4e537bd38aeae4b073aa611dff611756565b604051611e0c9190614a5a565b60405180910390a1565b600073ffffffffffffffffffffffffffffffffffffffff168373ffffffffffffffffffffffffffffffffffffffff161415611e86576040517f08c379a0000000000000000000000000000000000000000000000000000000008152600401611e7d90614d28565b60405180910390fd5b8051825114611eca576040517f08c379a0000000000000000000000000000000000000000000000000000000008152600401611ec190614e48565b60405180910390fd5b6000611ed4611756565b9050611ef481856000868660405180602001604052806000815250612a13565b60005b8351811015612043576000848281518110611f1557611f1461537e565b5b602002602001015190506000848381518110611f3457611f3361537e565b5b6020026020010151905060006002600084815260200190815260200160002060008973ffffffffffffffffffffffffffffffffffffffff1673ffffffffffffffffffffffffffffffffffffffff16815260200190815260200160002054905081811015611fd6576040517f08c379a0000000000000000000000000000000000000000000000000000000008152600401611fcd90614c88565b60405180910390fd5b8181036002600085815260200190815260200160002060008a73ffffffffffffffffffffffffffffffffffffffff1673ffffffffffffffffffffffffffffffffffffffff16815260200190815260200160002081905550505050808061203b906152a8565b915050611ef7565b50600073ffffffffffffffffffffffffffffffffffffffff168473ffffffffffffffffffffffffffffffffffffffff168273ffffffffffffffffffffffffffffffffffffffff167f4a39dc06d4c0dbc64b70af90fd698a233a518aa5d07e595d983b8c0526c8f7fb86866040516120bb929190614b59565b60405180910390a46120e181856000868660405180602001604052806000815250612aa6565b50505050565b600073ffffffffffffffffffffffffffffffffffffffff168473ffffffffffffffffffffffffffffffffffffffff161415612157576040517f08c379a000000000000000000000000000000000000000000000000000000000815260040161214e90614e68565b60405180910390fd5b6000612161611756565b9050600061216e85612eb7565b9050600061217b85612eb7565b905061218c83600089858589612a13565b846002600088815260200190815260200160002060008973ffffffffffffffffffffffffffffffffffffffff1673ffffffffffffffffffffffffffffffffffffffff16815260200190815260200160002060008282546121ec9190615077565b925050819055508673ffffffffffffffffffffffffffffffffffffffff16600073ffffffffffffffffffffffffffffffffffffffff168473ffffffffffffffffffffffffffffffffffffffff167fc3d58168c5ae7397731d063d5bbf3d657854427343f4c083240f7aacaa2d0f62898960405161226a929190614ef3565b60405180910390a461228183600089858589612aa6565b61229083600089898989612f31565b50505050505050565b6122a1613118565b6001600560006101000a81548160ff0219169083151502179055507f62e78cea01bee320cd4e420270b5ea74000d11b0c9f74754ebdbfc544b05a2586122e5611756565b6040516122f29190614a5a565b60405180910390a1565b600061230b8360000183612d32565b60001c905092915050565b8173ffffffffffffffffffffffffffffffffffffffff168373ffffffffffffffffffffffffffffffffffffffff161415612385576040517f08c379a000000000000000000000000000000000000000000000000000000000815260040161237c90614e08565b60405180910390fd5b80600360008573ffffffffffffffffffffffffffffffffffffffff1673ffffffffffffffffffffffffffffffffffffffff16815260200190815260200160002060008473ffffffffffffffffffffffffffffffffffffffff1673ffffffffffffffffffffffffffffffffffffffff16815260200190815260200160002060006101000a81548160ff0219169083151502179055508173ffffffffffffffffffffffffffffffffffffffff168373ffffffffffffffffffffffffffffffffffffffff167f17307eab39ab6107e8899845ad3d59bd9653f200f220920489ca2b5937696c31836040516124769190614b90565b60405180910390a3505050565b600061249182600001612a02565b9050919050565b600073ffffffffffffffffffffffffffffffffffffffff168473ffffffffffffffffffffffffffffffffffffffff161415612508576040517f08c379a00000000000000000000000000000000000000000000000000000000081526004016124ff90614d08565b60405180910390fd5b6000612512611756565b9050600061251f85612eb7565b9050600061252c85612eb7565b905061253c838989858589612a13565b60006002600088815260200190815260200160002060008a73ffffffffffffffffffffffffffffffffffffffff1673ffffffffffffffffffffffffffffffffffffffff168152602001908152602001600020549050858110156125d4576040517f08c379a00000000000000000000000000000000000000000000000000000000081526004016125cb90614d68565b60405180910390fd5b8581036002600089815260200190815260200160002060008b73ffffffffffffffffffffffffffffffffffffffff1673ffffffffffffffffffffffffffffffffffffffff16815260200190815260200160002081905550856002600089815260200190815260200160002060008a73ffffffffffffffffffffffffffffffffffffffff1673ffffffffffffffffffffffffffffffffffffffff168152602001908152602001600020600082825461268b9190615077565b925050819055508773ffffffffffffffffffffffffffffffffffffffff168973ffffffffffffffffffffffffffffffffffffffff168573ffffffffffffffffffffffffffffffffffffffff167fc3d58168c5ae7397731d063d5bbf3d657854427343f4c083240f7aacaa2d0f628a8a604051612708929190614ef3565b60405180910390a461271e848a8a86868a612aa6565b61272c848a8a8a8a8a612f31565b505050505050505050565b600073ffffffffffffffffffffffffffffffffffffffff168373ffffffffffffffffffffffffffffffffffffffff1614156127a7576040517f08c379a000000000000000000000000000000000000000000000000000000000815260040161279e90614d28565b60405180910390fd5b60006127b1611756565b905060006127be84612eb7565b905060006127cb84612eb7565b90506127eb83876000858560405180602001604052806000815250612a13565b60006002600087815260200190815260200160002060008873ffffffffffffffffffffffffffffffffffffffff1673ffffffffffffffffffffffffffffffffffffffff16815260200190815260200160002054905084811015612883576040517f08c379a000000000000000000000000000000000000000000000000000000000815260040161287a90614c88565b60405180910390fd5b8481036002600088815260200190815260200160002060008973ffffffffffffffffffffffffffffffffffffffff1673ffffffffffffffffffffffffffffffffffffffff16815260200190815260200160002081905550600073ffffffffffffffffffffffffffffffffffffffff168773ffffffffffffffffffffffffffffffffffffffff168573ffffffffffffffffffffffffffffffffffffffff167fc3d58168c5ae7397731d063d5bbf3d657854427343f4c083240f7aacaa2d0f628989604051612951929190614ef3565b60405180910390a461297784886000868660405180602001604052806000815250612aa6565b50505050505050565b600061298c8383613162565b6129e55782600001829080600181540180825580915050600190039060005260206000200160009091909190915055826000018054905083600101600084815260200190815260200160002081905550600190506129ea565b600090505b92915050565b60006129fb82613185565b9050919050565b600081600001805490509050919050565b60005b8251811015612a8f576000838281518110612a3457612a3361537e565b5b602002602001015111612a7c576040517f08c379a0000000000000000000000000000000000000000000000000000000008152600401612a7390614de8565b60405180910390fd5b8080612a87906152a8565b915050612a16565b50612a9e868686868686613267565b505050505050565b505050505050565b612acd8473ffffffffffffffffffffffffffffffffffffffff16613518565b15612c8d578373ffffffffffffffffffffffffffffffffffffffff1663bc197c8187878686866040518663ffffffff1660e01b8152600401612b13959493929190614a75565b602060405180830381600087803b158015612b2d57600080fd5b505af1925050508015612b5e57506040513d601f19601f82011682018060405250810190612b5b9190614491565b60015b612c0457612b6a6153dc565b806308c379a01415612bc75750612b7f615ab9565b80612b8a5750612bc9565b806040517f08c379a0000000000000000000000000000000000000000000000000000000008152600401612bbe9190614bc6565b60405180910390fd5b505b6040517f08c379a0000000000000000000000000000000000000000000000000000000008152600401612bfb90614be8565b60405180910390fd5b63bc197c8160e01b7bffffffffffffffffffffffffffffffffffffffffffffffffffffffff1916817bffffffffffffffffffffffffffffffffffffffffffffffffffffffff191614612c8b576040517f08c379a0000000000000000000000000000000000000000000000000000000008152600401612c8290614c48565b60405180910390fd5b505b505050505050565b612c9f8282611255565b612d2e57612cc48173ffffffffffffffffffffffffffffffffffffffff16601461353b565b612cd28360001c602061353b565b604051602001612ce3929190614a20565b6040516020818303038152906040526040517f08c379a0000000000000000000000000000000000000000000000000000000008152600401612d259190614bc6565b60405180910390fd5b5050565b6000826000018281548110612d4a57612d4961537e565b5b9060005260206000200154905092915050565b612d678282611255565b15612e3a57600080600084815260200190815260200160002060000160008373ffffffffffffffffffffffffffffffffffffffff1673ffffffffffffffffffffffffffffffffffffffff16815260200190815260200160002060006101000a81548160ff021916908315150217905550612ddf611756565b73ffffffffffffffffffffffffffffffffffffffff168173ffffffffffffffffffffffffffffffffffffffff16837ff6391f5c32d9c69d2a47ea670b442974b53935d1edc7fd64eb21e047a839171b60405160405180910390a45b5050565b6000612e66836000018373ffffffffffffffffffffffffffffffffffffffff1660001b613777565b905092915050565b612e76610f2a565b612eb5576040517f08c379a0000000000000000000000000000000000000000000000000000000008152600401612eac90614c68565b60405180910390fd5b565b60606000600167ffffffffffffffff811115612ed657612ed56153ad565b5b604051908082528060200260200182016040528015612f045781602001602082028036833780820191505090505b5090508281600081518110612f1c57612f1b61537e565b5b60200260200101818152505080915050919050565b612f508473ffffffffffffffffffffffffffffffffffffffff16613518565b15613110578373ffffffffffffffffffffffffffffffffffffffff1663f23a6e6187878686866040518663ffffffff1660e01b8152600401612f96959493929190614add565b602060405180830381600087803b158015612fb057600080fd5b505af1925050508015612fe157506040513d601f19601f82011682018060405250810190612fde9190614491565b60015b61308757612fed6153dc565b806308c379a0141561304a5750613002615ab9565b8061300d575061304c565b806040517f08c379a00000000000000000000000000000000000000000000000000000000081526004016130419190614bc6565b60405180910390fd5b505b6040517f08c379a000000000000000000000000000000000000000000000000000000000815260040161307e90614be8565b60405180910390fd5b63f23a6e6160e01b7bffffffffffffffffffffffffffffffffffffffffffffffffffffffff1916817bffffffffffffffffffffffffffffffffffffffffffffffffffffffff19161461310e576040517f08c379a000000000000000000000000000000000000000000000000000000000815260040161310590614c48565b60405180910390fd5b505b505050505050565b613120610f2a565b15613160576040517f08c379a000000000000000000000000000000000000000000000000000000000815260040161315790614ce8565b60405180910390fd5b565b600080836001016000848152602001908152602001600020541415905092915050565b60007fd9b67a26000000000000000000000000000000000000000000000000000000007bffffffffffffffffffffffffffffffffffffffffffffffffffffffff1916827bffffffffffffffffffffffffffffffffffffffffffffffffffffffff1916148061325057507f0e89341c000000000000000000000000000000000000000000000000000000007bffffffffffffffffffffffffffffffffffffffffffffffffffffffff1916827bffffffffffffffffffffffffffffffffffffffffffffffffffffffff1916145b80613260575061325f8261388b565b5b9050919050565b613275868686868686613905565b60005b835181101561350f5760008482815181106132965761329561537e565b5b6020026020010151905060008483815181106132b5576132b461537e565b5b6020026020010151905060008114806132f957508673ffffffffffffffffffffffffffffffffffffffff168873ffffffffffffffffffffffffffffffffffffffff16145b156133055750506134fe565b600073ffffffffffffffffffffffffffffffffffffffff168873ffffffffffffffffffffffffffffffffffffffff16141561339a5760006008600084815260200190815260200160002054905060008114156133715761336f83600661391b90919063ffffffff16565b505b818161337d9190615077565b6008600085815260200190815260200160002081905550506133ff565b806133a58984610738565b14156133fe576133fc82600960008b73ffffffffffffffffffffffffffffffffffffffff1673ffffffffffffffffffffffffffffffffffffffff16815260200190815260200160002061393590919063ffffffff16565b505b5b600073ffffffffffffffffffffffffffffffffffffffff168773ffffffffffffffffffffffffffffffffffffffff16141561349557806008600084815260200190815260200160002060008282546134579190615127565b925050819055506000600860008481526020019081526020016000205414156134905761348e82600661393590919063ffffffff16565b505b6134fb565b60006134a18884610738565b14156134fa576134f882600960008a73ffffffffffffffffffffffffffffffffffffffff1673ffffffffffffffffffffffffffffffffffffffff16815260200190815260200160002061391b90919063ffffffff16565b505b5b50505b80613508906152a8565b9050613278565b50505050505050565b6000808273ffffffffffffffffffffffffffffffffffffffff163b119050919050565b60606000600283600261354e91906150cd565b6135589190615077565b67ffffffffffffffff811115613571576135706153ad565b5b6040519080825280601f01601f1916602001820160405280156135a35781602001600182028036833780820191505090505b5090507f3000000000000000000000000000000000000000000000000000000000000000816000815181106135db576135da61537e565b5b60200101907effffffffffffffffffffffffffffffffffffffffffffffffffffffffffffff1916908160001a9053507f78000000000000000000000000000000000000000000000000000000000000008160018151811061363f5761363e61537e565b5b60200101907effffffffffffffffffffffffffffffffffffffffffffffffffffffffffffff1916908160001a9053506000600184600261367f91906150cd565b6136899190615077565b90505b6001811115613729577f3031323334353637383961626364656600000000000000000000000000000000600f8616601081106136cb576136ca61537e565b5b1a60f81b8282815181106136e2576136e161537e565b5b60200101907effffffffffffffffffffffffffffffffffffffffffffffffffffffffffffff1916908160001a905350600485901c9450806137229061521b565b905061368c565b506000841461376d576040517f08c379a000000000000000000000000000000000000000000000000000000000815260040161376490614c28565b60405180910390fd5b8091505092915050565b6000808360010160008481526020019081526020016000205490506000811461387f5760006001826137a99190615127565b90506000600186600001805490506137c19190615127565b90508181146138305760008660000182815481106137e2576137e161537e565b5b90600052602060002001549050808760000184815481106138065761380561537e565b5b90600052602060002001819055508387600101600083815260200190815260200160002081905550505b856000018054806138445761384361534f565b5b600190038181906000526020600020016000905590558560010160008681526020019081526020016000206000905560019350505050613885565b60009150505b92915050565b60007f5a05180f000000000000000000000000000000000000000000000000000000007bffffffffffffffffffffffffffffffffffffffffffffffffffffffff1916827bffffffffffffffffffffffffffffffffffffffffffffffffffffffff191614806138fe57506138fd8261394f565b5b9050919050565b6139138686868686866139c9565b505050505050565b600061392d836000018360001b612980565b905092915050565b6000613947836000018360001b613777565b905092915050565b60007f7965db0b000000000000000000000000000000000000000000000000000000007bffffffffffffffffffffffffffffffffffffffffffffffffffffffff1916827bffffffffffffffffffffffffffffffffffffffffffffffffffffffff191614806139c257506139c182613a27565b5b9050919050565b6139d7868686868686613a91565b6139df610f2a565b15613a1f576040517f08c379a0000000000000000000000000000000000000000000000000000000008152600401613a1690614ca8565b60405180910390fd5b505050505050565b60007f01ffc9a7000000000000000000000000000000000000000000000000000000007bffffffffffffffffffffffffffffffffffffffffffffffffffffffff1916827bffffffffffffffffffffffffffffffffffffffffffffffffffffffff1916149050919050565b505050505050565b828054613aa590615245565b90600052602060002090601f016020900481019282613ac75760008555613b0e565b82601f10613ae057805160ff1916838001178555613b0e565b82800160010185558215613b0e579182015b82811115613b0d578251825591602001919060010190613af2565b5b509050613b1b9190613b1f565b5090565b5b80821115613b38576000816000905550600101613b20565b5090565b6000613b4f613b4a84614f41565b614f1c565b90508083825260208201905082856020860282011115613b7257613b71615403565b5b60005b85811015613ba25781613b888882613ca0565b845260208401935060208301925050600181019050613b75565b5050509392505050565b6000613bbf613bba84614f6d565b614f1c565b90508083825260208201905082856020860282011115613be257613be1615403565b5b60005b85811015613c125781613bf88882613dc1565b845260208401935060208301925050600181019050613be5565b5050509392505050565b6000613c2f613c2a84614f99565b614f1c565b905082815260208101848484011115613c4b57613c4a615408565b5b613c568482856151d9565b509392505050565b6000613c71613c6c84614fca565b614f1c565b905082815260208101848484011115613c8d57613c8c615408565b5b613c988482856151d9565b509392505050565b600081359050613caf81615b4f565b92915050565b600082601f830112613cca57613cc96153fe565b5b8135613cda848260208601613b3c565b91505092915050565b600082601f830112613cf857613cf76153fe565b5b8135613d08848260208601613bac565b91505092915050565b600081359050613d2081615b66565b92915050565b600081359050613d3581615b7d565b92915050565b600081359050613d4a81615b94565b92915050565b600081519050613d5f81615b94565b92915050565b600082601f830112613d7a57613d796153fe565b5b8135613d8a848260208601613c1c565b91505092915050565b600082601f830112613da857613da76153fe565b5b8135613db8848260208601613c5e565b91505092915050565b600081359050613dd081615bab565b92915050565b600060208284031215613dec57613deb615412565b5b6000613dfa84828501613ca0565b91505092915050565b60008060408385031215613e1a57613e19615412565b5b6000613e2885828601613ca0565b9250506020613e3985828601613ca0565b9150509250929050565b600080600080600060a08688031215613e5f57613e5e615412565b5b6000613e6d88828901613ca0565b9550506020613e7e88828901613ca0565b945050604086013567ffffffffffffffff811115613e9f57613e9e61540d565b5b613eab88828901613ce3565b935050606086013567ffffffffffffffff811115613ecc57613ecb61540d565b5b613ed888828901613ce3565b925050608086013567ffffffffffffffff811115613ef957613ef861540d565b5b613f0588828901613d65565b9150509295509295909350565b600080600080600060a08688031215613f2e57613f2d615412565b5b6000613f3c88828901613ca0565b9550506020613f4d88828901613ca0565b9450506040613f5e88828901613dc1565b9350506060613f6f88828901613dc1565b925050608086013567ffffffffffffffff811115613f9057613f8f61540d565b5b613f9c88828901613d65565b9150509295509295909350565b600080600060608486031215613fc257613fc1615412565b5b6000613fd086828701613ca0565b935050602084013567ffffffffffffffff811115613ff157613ff061540d565b5b613ffd86828701613ce3565b925050604084013567ffffffffffffffff81111561401e5761401d61540d565b5b61402a86828701613ce3565b9150509250925092565b6000806000806080858703121561404e5761404d615412565b5b600061405c87828801613ca0565b945050602085013567ffffffffffffffff81111561407d5761407c61540d565b5b61408987828801613ce3565b935050604085013567ffffffffffffffff8111156140aa576140a961540d565b5b6140b687828801613ce3565b925050606085013567ffffffffffffffff8111156140d7576140d661540d565b5b6140e387828801613d65565b91505092959194509250565b60008060006060848603121561410857614107615412565b5b600061411686828701613ca0565b935050602084013567ffffffffffffffff8111156141375761413661540d565b5b61414386828701613ce3565b925050604084013567ffffffffffffffff8111156141645761416361540d565b5b61417086828701613d65565b9150509250925092565b6000806040838503121561419157614190615412565b5b600061419f85828601613ca0565b92505060206141b085828601613d11565b9150509250929050565b600080604083850312156141d1576141d0615412565b5b60006141df85828601613ca0565b92505060206141f085828601613dc1565b9150509250929050565b60008060006060848603121561421357614212615412565b5b600061422186828701613ca0565b935050602061423286828701613dc1565b925050604084013567ffffffffffffffff8111156142535761425261540d565b5b61425f86828701613d65565b9150509250925092565b60008060006060848603121561428257614281615412565b5b600061429086828701613ca0565b93505060206142a186828701613dc1565b92505060406142b286828701613dc1565b9150509250925092565b600080600080608085870312156142d6576142d5615412565b5b60006142e487828801613ca0565b94505060206142f587828801613dc1565b935050604061430687828801613dc1565b925050606085013567ffffffffffffffff8111156143275761432661540d565b5b61433387828801613d65565b91505092959194509250565b6000806040838503121561435657614355615412565b5b600083013567ffffffffffffffff8111156143745761437361540d565b5b61438085828601613cb5565b925050602083013567ffffffffffffffff8111156143a1576143a061540d565b5b6143ad85828601613ce3565b9150509250929050565b6000602082840312156143cd576143cc615412565b5b60006143db84828501613d26565b91505092915050565b600080604083850312156143fb576143fa615412565b5b600061440985828601613d26565b925050602061441a85828601613ca0565b9150509250929050565b6000806040838503121561443b5761443a615412565b5b600061444985828601613d26565b925050602061445a85828601613dc1565b9150509250929050565b60006020828403121561447a57614479615412565b5b600061448884828501613d3b565b91505092915050565b6000602082840312156144a7576144a6615412565b5b60006144b584828501613d50565b91505092915050565b6000602082840312156144d4576144d3615412565b5b600082013567ffffffffffffffff8111156144f2576144f161540d565b5b6144fe84828501613d93565b91505092915050565b60006020828403121561451d5761451c615412565b5b600061452b84828501613dc1565b91505092915050565b6000806040838503121561454b5761454a615412565b5b600061455985828601613dc1565b925050602061456a85828601613dc1565b9150509250929050565b60006145808383614a02565b60208301905092915050565b6145958161515b565b82525050565b60006145a68261500b565b6145b08185615039565b93506145bb83614ffb565b8060005b838110156145ec5781516145d38882614574565b97506145de8361502c565b9250506001810190506145bf565b5085935050505092915050565b6146028161516d565b82525050565b61461181615179565b82525050565b600061462282615016565b61462c818561504a565b935061463c8185602086016151e8565b61464581615417565b840191505092915050565b600061465b82615021565b614665818561505b565b93506146758185602086016151e8565b61467e81615417565b840191505092915050565b600061469482615021565b61469e818561506c565b93506146ae8185602086016151e8565b80840191505092915050565b60006146c760348361505b565b91506146d282615435565b604082019050919050565b60006146ea602f8361505b565b91506146f582615484565b604082019050919050565b600061470d60208361505b565b9150614718826154d3565b602082019050919050565b600061473060288361505b565b915061473b826154fc565b604082019050919050565b600061475360148361505b565b915061475e8261554b565b602082019050919050565b600061477660248361505b565b915061478182615574565b604082019050919050565b6000614799602c8361505b565b91506147a4826155c3565b604082019050919050565b60006147bc602a8361505b565b91506147c782615612565b604082019050919050565b60006147df60108361505b565b91506147ea82615661565b602082019050919050565b600061480260258361505b565b915061480d8261568a565b604082019050919050565b600061482560238361505b565b9150614830826156d9565b604082019050919050565b600061484860388361505b565b915061485382615728565b604082019050919050565b600061486b602a8361505b565b915061487682615777565b604082019050919050565b600061488e602e8361505b565b9150614899826157c6565b604082019050919050565b60006148b1603b8361505b565b91506148bc82615815565b604082019050919050565b60006148d460398361505b565b91506148df82615864565b604082019050919050565b60006148f7601d8361505b565b9150614902826158b3565b602082019050919050565b600061491a60178361506c565b9150614925826158dc565b601782019050919050565b600061493d60298361505b565b915061494882615905565b604082019050919050565b600061496060298361505b565b915061496b82615954565b604082019050919050565b600061498360288361505b565b915061498e826159a3565b604082019050919050565b60006149a660218361505b565b91506149b1826159f2565b604082019050919050565b60006149c960118361506c565b91506149d482615a41565b601182019050919050565b60006149ec602f8361505b565b91506149f782615a6a565b604082019050919050565b614a0b816151cf565b82525050565b614a1a816151cf565b82525050565b6000614a2b8261490d565b9150614a378285614689565b9150614a42826149bc565b9150614a4e8284614689565b91508190509392505050565b6000602082019050614a6f600083018461458c565b92915050565b600060a082019050614a8a600083018861458c565b614a97602083018761458c565b8181036040830152614aa9818661459b565b90508181036060830152614abd818561459b565b90508181036080830152614ad18184614617565b90509695505050505050565b600060a082019050614af2600083018861458c565b614aff602083018761458c565b614b0c6040830186614a11565b614b196060830185614a11565b8181036080830152614b2b8184614617565b90509695505050505050565b60006020820190508181036000830152614b51818461459b565b905092915050565b60006040820190508181036000830152614b73818561459b565b90508181036020830152614b87818461459b565b90509392505050565b6000602082019050614ba560008301846145f9565b92915050565b6000602082019050614bc06000830184614608565b92915050565b60006020820190508181036000830152614be08184614650565b905092915050565b60006020820190508181036000830152614c01816146ba565b9050919050565b60006020820190508181036000830152614c21816146dd565b9050919050565b60006020820190508181036000830152614c4181614700565b9050919050565b60006020820190508181036000830152614c6181614723565b9050919050565b60006020820190508181036000830152614c8181614746565b9050919050565b60006020820190508181036000830152614ca181614769565b9050919050565b60006020820190508181036000830152614cc18161478c565b9050919050565b60006020820190508181036000830152614ce1816147af565b9050919050565b60006020820190508181036000830152614d01816147d2565b9050919050565b60006020820190508181036000830152614d21816147f5565b9050919050565b60006020820190508181036000830152614d4181614818565b9050919050565b60006020820190508181036000830152614d618161483b565b9050919050565b60006020820190508181036000830152614d818161485e565b9050919050565b60006020820190508181036000830152614da181614881565b9050919050565b60006020820190508181036000830152614dc1816148a4565b9050919050565b60006020820190508181036000830152614de1816148c7565b9050919050565b60006020820190508181036000830152614e01816148ea565b9050919050565b60006020820190508181036000830152614e2181614930565b9050919050565b60006020820190508181036000830152614e4181614953565b9050919050565b60006020820190508181036000830152614e6181614976565b9050919050565b60006020820190508181036000830152614e8181614999565b9050919050565b60006020820190508181036000830152614ea1816149df565b9050919050565b6000602082019050614ebd6000830184614a11565b92915050565b6000604082019050614ed86000830185614a11565b8181036020830152614eea818461459b565b90509392505050565b6000604082019050614f086000830185614a11565b614f156020830184614a11565b9392505050565b6000614f26614f37565b9050614f328282615277565b919050565b6000604051905090565b600067ffffffffffffffff821115614f5c57614f5b6153ad565b5b602082029050602081019050919050565b600067ffffffffffffffff821115614f8857614f876153ad565b5b602082029050602081019050919050565b600067ffffffffffffffff821115614fb457614fb36153ad565b5b614fbd82615417565b9050602081019050919050565b600067ffffffffffffffff821115614fe557614fe46153ad565b5b614fee82615417565b9050602081019050919050565b6000819050602082019050919050565b600081519050919050565b600081519050919050565b600081519050919050565b6000602082019050919050565b600082825260208201905092915050565b600082825260208201905092915050565b600082825260208201905092915050565b600081905092915050565b6000615082826151cf565b915061508d836151cf565b9250827fffffffffffffffffffffffffffffffffffffffffffffffffffffffffffffffff038211156150c2576150c16152f1565b5b828201905092915050565b60006150d8826151cf565b91506150e3836151cf565b9250817fffffffffffffffffffffffffffffffffffffffffffffffffffffffffffffffff048311821515161561511c5761511b6152f1565b5b828202905092915050565b6000615132826151cf565b915061513d836151cf565b9250828210156151505761514f6152f1565b5b828203905092915050565b6000615166826151af565b9050919050565b60008115159050919050565b6000819050919050565b60007fffffffff0000000000000000000000000000000000000000000000000000000082169050919050565b600073ffffffffffffffffffffffffffffffffffffffff82169050919050565b6000819050919050565b82818337600083830152505050565b60005b838110156152065780820151818401526020810190506151eb565b83811115615215576000848401525b50505050565b6000615226826151cf565b9150600082141561523a576152396152f1565b5b600182039050919050565b6000600282049050600182168061525d57607f821691505b6020821081141561527157615270615320565b5b50919050565b61528082615417565b810181811067ffffffffffffffff8211171561529f5761529e6153ad565b5b80604052505050565b60006152b3826151cf565b91507fffffffffffffffffffffffffffffffffffffffffffffffffffffffffffffffff8214156152e6576152e56152f1565b5b600182019050919050565b7f4e487b7100000000000000000000000000000000000000000000000000000000600052601160045260246000fd5b7f4e487b7100000000000000000000000000000000000000000000000000000000600052602260045260246000fd5b7f4e487b7100000000000000000000000000000000000000000000000000000000600052603160045260246000fd5b7f4e487b7100000000000000000000000000000000000000000000000000000000600052603260045260246000fd5b7f4e487b7100000000000000000000000000000000000000000000000000000000600052604160045260246000fd5b600060033d11156153fb5760046000803e6153f8600051615428565b90505b90565b600080fd5b600080fd5b600080fd5b600080fd5b600080fd5b6000601f19601f8301169050919050565b60008160e01c9050919050565b7f455243313135353a207472616e7366657220746f206e6f6e204552433131353560008201527f526563656976657220696d706c656d656e746572000000000000000000000000602082015250565b7f455243313135353a2063616c6c6572206973206e6f7420746f6b656e206f776e60008201527f6572206e6f7220617070726f7665640000000000000000000000000000000000602082015250565b7f537472696e67733a20686578206c656e67746820696e73756666696369656e74600082015250565b7f455243313135353a204552433131353552656365697665722072656a6563746560008201527f6420746f6b656e73000000000000000000000000000000000000000000000000602082015250565b7f5061757361626c653a206e6f7420706175736564000000000000000000000000600082015250565b7f455243313135353a206275726e20616d6f756e7420657863656564732062616c60008201527f616e636500000000000000000000000000000000000000000000000000000000602082015250565b7f455243313135355061757361626c653a20746f6b656e207472616e736665722060008201527f7768696c65207061757365640000000000000000000000000000000000000000602082015250565b7f455243313135353a2061646472657373207a65726f206973206e6f742061207660008201527f616c6964206f776e657200000000000000000000000000000000000000000000602082015250565b7f5061757361626c653a2070617573656400000000000000000000000000000000600082015250565b7f455243313135353a207472616e7366657220746f20746865207a65726f20616460008201527f6472657373000000000000000000000000000000000000000000000000000000602082015250565b7f455243313135353a206275726e2066726f6d20746865207a65726f206164647260008201527f6573730000000000000000000000000000000000000000000000000000000000602082015250565b7f455243313135355072657365744d696e7465725061757365723a206d7573742060008201527f68617665206d696e74657220726f6c6520746f206d696e740000000000000000602082015250565b7f455243313135353a20696e73756666696369656e742062616c616e636520666f60008201527f72207472616e7366657200000000000000000000000000000000000000000000602082015250565b7f435243313135355072657365743a206d75737420686176652061646d696e207260008201527f6f6c6520746f2073657420555249000000000000000000000000000000000000602082015250565b7f455243313135355072657365744d696e7465725061757365723a206d7573742060008201527f686176652070617573657220726f6c6520746f20756e70617573650000000000602082015250565b7f455243313135355072657365744d696e7465725061757365723a206d7573742060008201527f686176652070617573657220726f6c6520746f20706175736500000000000000602082015250565b7f435243313135355072657365743a20616d6f756e74206973207a65726f000000600082015250565b7f416363657373436f6e74726f6c3a206163636f756e7420000000000000000000600082015250565b7f455243313135353a2073657474696e6720617070726f76616c2073746174757360008201527f20666f722073656c660000000000000000000000000000000000000000000000602082015250565b7f455243313135353a206163636f756e747320616e6420696473206c656e67746860008201527f206d69736d617463680000000000000000000000000000000000000000000000602082015250565b7f455243313135353a2069647320616e6420616d6f756e7473206c656e6774682060008201527f6d69736d61746368000000000000000000000000000000000000000000000000602082015250565b7f455243313135353a206d696e7420746f20746865207a65726f2061646472657360008201527f7300000000000000000000000000000000000000000000000000000000000000602082015250565b7f206973206d697373696e6720726f6c6520000000000000000000000000000000600082015250565b7f416363657373436f6e74726f6c3a2063616e206f6e6c792072656e6f756e636560008201527f20726f6c657320666f722073656c660000000000000000000000000000000000602082015250565b600060443d1015615ac957615b4c565b615ad1614f37565b60043d036004823e80513d602482011167ffffffffffffffff82111715615af9575050615b4c565b808201805167ffffffffffffffff811115615b175750505050615b4c565b80602083010160043d038501811115615b34575050505050615b4c565b615b4382602001850186615277565b82955050505050505b90565b615b588161515b565b8114615b6357600080fd5b50565b615b6f8161516d565b8114615b7a57600080fd5b50565b615b8681615179565b8114615b9157600080fd5b50565b615b9d81615183565b8114615ba857600080fd5b50565b615bb4816151cf565b8114615bbf57600080fd5b5056fea264697066735822122048a9067a34ead33f116046eeb23572e04e00297cd043ad2186b9e9c12daa04f864736f6c63430008060033",
  "immutableReferences": {},
  "source": "// SPDX-License-Identifier: MIT\n\npragma solidity ^0.8.0;\n\nimport \"@openzeppelin/contracts/token/ERC1155/presets/ERC1155PresetMinterPauser.sol\";\nimport \"@openzeppelin/contracts/utils/Counters.sol\";\nimport \"../extensions/CRC1155Enumerable.sol\";\n\n/**\n * @dev This contract extends the preset ERC1155 of OpenZeppelin, including:\n *  - Allow the default admin role to update URI for all tokens.\n *  - More utilities to mint tokens with auto-generated ID (starts from 0).\n *  - Support enumerability operations on chain.\n *\n * @notice the gas/storage cost is very expensive to support the enumerable interface.\n * If there will be a large number of token IDs (e.g. more than 1,000,000), you'd better\n * to abandon the `CRC1155Enumerable` interface and achieve the enumerability off-chain.\n */\ncontract CRC1155PresetAutoId is ERC1155PresetMinterPauser, CRC1155Enumerable {\n    using Counters for Counters.Counter;\n\n    // Counter to auto generate token ID.\n    Counters.Counter private _tokenIdTracker;\n\n    constructor(string memory uri) ERC1155PresetMinterPauser(uri) {}\n\n    /**\n     * @dev Update the URI for all tokens.\n     *\n     * Requirements:\n     *\n     * - the caller must have the `DEFAULT_ADMIN_ROLE`.\n     */\n    function setURI(string memory newuri) public virtual {\n        require(hasRole(DEFAULT_ADMIN_ROLE, _msgSender()), \"CRC1155Preset: must have admin role to set URI\");\n        _setURI(newuri);\n    }\n\n    /**\n     * @dev Creates `amount` new tokens for `to` with auto-generated token ID and additional data.\n     *\n     * Requirements:\n     *\n     * - the caller must have the `MINTER_ROLE`.\n     */\n    function mint(\n        address to,\n        uint256 amount,\n        bytes memory data\n    ) public virtual {\n        mint(to, _tokenIdTracker.current(), amount, data);\n        _tokenIdTracker.increment();\n    }\n\n    /**\n     * @dev Creates tokens with auto-generated token IDs in batch.\n     * @param to address to mint tokens.\n     * @param amounts amount for each token ID to mint.\n     * @param data Additional data used when `to` address is a contract.\n     *\n     * Requirements:\n     *\n     * - the caller must have the `MINTER_ROLE`.\n     */\n    function mintBatch(\n        address to,\n        uint256[] memory amounts,\n        bytes memory data\n    ) public virtual {\n        uint256[] memory tokenIds = new uint256[](amounts.length);\n\n        for (uint256 i = 0; i < amounts.length; i++) {\n            tokenIds[i] = _tokenIdTracker.current();\n            _tokenIdTracker.increment();\n        }\n\n        mintBatch(to, tokenIds, amounts, data);\n    }\n\n    /**\n     * @dev See {ERC1155-_beforeTokenTransfer}.\n     *\n     * Requirements:\n     *\n     * - each value in `amounts` should not be zero.\n     */\n    function _beforeTokenTransfer(\n        address operator,\n        address from,\n        address to,\n        uint256[] memory ids,\n        uint256[] memory amounts,\n        bytes memory data\n    ) internal virtual override(ERC1155PresetMinterPauser, CRC1155Enumerable) {\n        for (uint256 i = 0; i < amounts.length; i++) {\n            require(amounts[i] > 0, \"CRC1155Preset: amount is zero\");\n        }\n\n        super._beforeTokenTransfer(operator, from, to, ids, amounts, data);\n    }\n\n    /**\n     * @dev See {IERC165-supportsInterface}.\n     */\n    function supportsInterface(bytes4 interfaceId)\n        public\n        view\n        virtual\n        override(ERC1155PresetMinterPauser, CRC1155Enumerable)\n        returns (bool)\n    {\n        return super.supportsInterface(interfaceId);\n    }\n}\n",
  "sourcePath": "@confluxfans/contracts/token/CRC1155/presets/CRC1155PresetAutoId.sol",
  "compiler": {
    "name": "solc",
    "version": "0.8.6+commit.11564f7e.Emscripten.clang"
  },
  "schemaVersion": "3.3.4",
  "updatedAt": "2022-08-15T02:18:08.432Z",
  "devdoc": {
    "details": "This contract extends the preset ERC1155 of OpenZeppelin, including:  - Allow the default admin role to update URI for all tokens.  - More utilities to mint tokens with auto-generated ID (starts from 0).  - Support enumerability operations on chain.",
    "kind": "dev",
    "methods": {
      "balanceOf(address,uint256)": {
        "details": "See {IERC1155-balanceOf}. Requirements: - `account` cannot be the zero address."
      },
      "balanceOfBatch(address[],uint256[])": {
        "details": "See {IERC1155-balanceOfBatch}. Requirements: - `accounts` and `ids` must have the same length."
      },
      "exists(uint256)": {
        "details": "Indicates whether the specified `tokenId` exists or not."
      },
      "getRoleAdmin(bytes32)": {
        "details": "Returns the admin role that controls `role`. See {grantRole} and {revokeRole}. To change a role's admin, use {_setRoleAdmin}."
      },
      "getRoleMember(bytes32,uint256)": {
        "details": "Returns one of the accounts that have `role`. `index` must be a value between 0 and {getRoleMemberCount}, non-inclusive. Role bearers are not sorted in any particular way, and their ordering may change at any point. WARNING: When using {getRoleMember} and {getRoleMemberCount}, make sure you perform all queries on the same block. See the following https://forum.openzeppelin.com/t/iterating-over-elements-on-enumerableset-in-openzeppelin-contracts/2296[forum post] for more information."
      },
      "getRoleMemberCount(bytes32)": {
        "details": "Returns the number of accounts that have `role`. Can be used together with {getRoleMember} to enumerate all bearers of a role."
      },
      "grantRole(bytes32,address)": {
        "details": "Grants `role` to `account`. If `account` had not been already granted `role`, emits a {RoleGranted} event. Requirements: - the caller must have ``role``'s admin role. May emit a {RoleGranted} event."
      },
      "hasRole(bytes32,address)": {
        "details": "Returns `true` if `account` has been granted `role`."
      },
      "isApprovedForAll(address,address)": {
        "details": "See {IERC1155-isApprovedForAll}."
      },
      "mint(address,uint256,bytes)": {
        "details": "Creates `amount` new tokens for `to` with auto-generated token ID and additional data. Requirements: - the caller must have the `MINTER_ROLE`."
      },
      "mint(address,uint256,uint256,bytes)": {
        "details": "Creates `amount` new tokens for `to`, of token type `id`. See {ERC1155-_mint}. Requirements: - the caller must have the `MINTER_ROLE`."
      },
      "mintBatch(address,uint256[],bytes)": {
        "details": "Creates tokens with auto-generated token IDs in batch.",
        "params": {
          "amounts": "amount for each token ID to mint.",
          "data": "Additional data used when `to` address is a contract. Requirements: - the caller must have the `MINTER_ROLE`.",
          "to": "address to mint tokens."
        }
      },
      "mintBatch(address,uint256[],uint256[],bytes)": {
        "details": "xref:ROOT:erc1155.adoc#batch-operations[Batched] variant of {mint}."
      },
      "pause()": {
        "details": "Pauses all token transfers. See {ERC1155Pausable} and {Pausable-_pause}. Requirements: - the caller must have the `PAUSER_ROLE`."
      },
      "paused()": {
        "details": "Returns true if the contract is paused, and false otherwise."
      },
      "renounceRole(bytes32,address)": {
        "details": "Revokes `role` from the calling account. Roles are often managed via {grantRole} and {revokeRole}: this function's purpose is to provide a mechanism for accounts to lose their privileges if they are compromised (such as when a trusted device is misplaced). If the calling account had been revoked `role`, emits a {RoleRevoked} event. Requirements: - the caller must be `account`. May emit a {RoleRevoked} event."
      },
      "revokeRole(bytes32,address)": {
        "details": "Revokes `role` from `account`. If `account` had been granted `role`, emits a {RoleRevoked} event. Requirements: - the caller must have ``role``'s admin role. May emit a {RoleRevoked} event."
      },
      "safeBatchTransferFrom(address,address,uint256[],uint256[],bytes)": {
        "details": "See {IERC1155-safeBatchTransferFrom}."
      },
      "safeTransferFrom(address,address,uint256,uint256,bytes)": {
        "details": "See {IERC1155-safeTransferFrom}."
      },
      "setApprovalForAll(address,bool)": {
        "details": "See {IERC1155-setApprovalForAll}."
      },
      "setURI(string)": {
        "details": "Update the URI for all tokens. Requirements: - the caller must have the `DEFAULT_ADMIN_ROLE`."
      },
      "supportsInterface(bytes4)": {
        "details": "See {IERC165-supportsInterface}."
      },
      "tokenByIndex(uint256)": {
        "details": "Returns the `index`-th tokenId stored by the contract."
      },
      "tokenCountOf(address)": {
        "details": "Returns the number of token ids held by `owner`."
      },
      "tokenOfOwnerByIndex(address,uint256)": {
        "details": "Returns the `index`-th tokenId held by `owner`."
      },
      "tokens(uint256,uint256)": {
        "details": "Returns token IDs in pagination view."
      },
      "tokensOf(address,uint256,uint256)": {
        "details": "Returns token IDs of specified `owner` in pagination view."
      },
      "totalSupply()": {
        "details": "Returns the number of different tokenIds stored by the contract."
      },
      "totalSupply(uint256)": {
        "details": "Returns the total amount of tokens for the specified `tokenId`."
      },
      "unpause()": {
        "details": "Unpauses all token transfers. See {ERC1155Pausable} and {Pausable-_unpause}. Requirements: - the caller must have the `PAUSER_ROLE`."
      },
      "uri(uint256)": {
        "details": "See {IERC1155MetadataURI-uri}. This implementation returns the same URI for *all* token types. It relies on the token type ID substitution mechanism https://eips.ethereum.org/EIPS/eip-1155#metadata[defined in the EIP]. Clients calling this function must replace the `\\{id\\}` substring with the actual token type ID."
      }
    },
    "version": 1
  },
  "userdoc": {
    "kind": "user",
    "methods": {},
    "notice": "the gas/storage cost is very expensive to support the enumerable interface. If there will be a large number of token IDs (e.g. more than 1,000,000), you'd better to abandon the `CRC1155Enumerable` interface and achieve the enumerability off-chain.",
    "version": 1
  }
}