{
  "contractName": "CRC1155NatureAutoId",
  "abi": [
    {
      "inputs": [
        {
          "internalType": "string",
          "name": "name_",
          "type": "string"
        },
        {
          "internalType": "string",
          "name": "symbol_",
          "type": "string"
        },
        {
          "internalType": "string",
          "name": "uri_",
          "type": "string"
        }
      ],
      "stateMutability": "nonpayable",
      "type": "constructor"
    },
    {
      "anonymous": false,
      "inputs": [
        {
          "indexed": true,
          "internalType": "address",
          "name": "account",
          "type": "address"
        },
        {
          "indexed": true,
          "internalType": "address",
          "name": "operator",
          "type": "address"
        },
        {
          "indexed": false,
          "internalType": "bool",
          "name": "approved",
          "type": "bool"
        }
      ],
      "name": "ApprovalForAll",
      "type": "event"
    },
    {
      "anonymous": false,
      "inputs": [
        {
          "indexed": true,
          "internalType": "bytes32",
          "name": "role",
          "type": "bytes32"
        },
        {
          "indexed": true,
          "internalType": "bytes32",
          "name": "previousAdminRole",
          "type": "bytes32"
        },
        {
          "indexed": true,
          "internalType": "bytes32",
          "name": "newAdminRole",
          "type": "bytes32"
        }
      ],
      "name": "RoleAdminChanged",
      "type": "event"
    },
    {
      "anonymous": false,
      "inputs": [
        {
          "indexed": true,
          "internalType": "bytes32",
          "name": "role",
          "type": "bytes32"
        },
        {
          "indexed": true,
          "internalType": "address",
          "name": "account",
          "type": "address"
        },
        {
          "indexed": true,
          "internalType": "address",
          "name": "sender",
          "type": "address"
        }
      ],
      "name": "RoleGranted",
      "type": "event"
    },
    {
      "anonymous": false,
      "inputs": [
        {
          "indexed": true,
          "internalType": "bytes32",
          "name": "role",
          "type": "bytes32"
        },
        {
          "indexed": true,
          "internalType": "address",
          "name": "account",
          "type": "address"
        },
        {
          "indexed": true,
          "internalType": "address",
          "name": "sender",
          "type": "address"
        }
      ],
      "name": "RoleRevoked",
      "type": "event"
    },
    {
      "anonymous": false,
      "inputs": [
        {
          "indexed": true,
          "internalType": "address",
          "name": "operator",
          "type": "address"
        },
        {
          "indexed": true,
          "internalType": "address",
          "name": "from",
          "type": "address"
        },
        {
          "indexed": true,
          "internalType": "address",
          "name": "to",
          "type": "address"
        },
        {
          "indexed": false,
          "internalType": "uint256[]",
          "name": "ids",
          "type": "uint256[]"
        },
        {
          "indexed": false,
          "internalType": "uint256[]",
          "name": "values",
          "type": "uint256[]"
        }
      ],
      "name": "TransferBatch",
      "type": "event"
    },
    {
      "anonymous": false,
      "inputs": [
        {
          "indexed": true,
          "internalType": "address",
          "name": "operator",
          "type": "address"
        },
        {
          "indexed": true,
          "internalType": "address",
          "name": "from",
          "type": "address"
        },
        {
          "indexed": true,
          "internalType": "address",
          "name": "to",
          "type": "address"
        },
        {
          "indexed": false,
          "internalType": "uint256",
          "name": "id",
          "type": "uint256"
        },
        {
          "indexed": false,
          "internalType": "uint256",
          "name": "value",
          "type": "uint256"
        }
      ],
      "name": "TransferSingle",
      "type": "event"
    },
    {
      "anonymous": false,
      "inputs": [
        {
          "indexed": false,
          "internalType": "string",
          "name": "value",
          "type": "string"
        },
        {
          "indexed": true,
          "internalType": "uint256",
          "name": "id",
          "type": "uint256"
        }
      ],
      "name": "URI",
      "type": "event"
    },
    {
      "inputs": [],
      "name": "DEFAULT_ADMIN_ROLE",
      "outputs": [
        {
          "internalType": "bytes32",
          "name": "",
          "type": "bytes32"
        }
      ],
      "stateMutability": "view",
      "type": "function"
    },
    {
      "inputs": [],
      "name": "MINTER_ROLE",
      "outputs": [
        {
          "internalType": "bytes32",
          "name": "",
          "type": "bytes32"
        }
      ],
      "stateMutability": "view",
      "type": "function"
    },
    {
      "inputs": [],
      "name": "PAUSER_ROLE",
      "outputs": [
        {
          "internalType": "bytes32",
          "name": "",
          "type": "bytes32"
        }
      ],
      "stateMutability": "view",
      "type": "function"
    },
    {
      "inputs": [
        {
          "internalType": "address",
          "name": "account",
          "type": "address"
        },
        {
          "internalType": "uint256",
          "name": "id",
          "type": "uint256"
        }
      ],
      "name": "balanceOf",
      "outputs": [
        {
          "internalType": "uint256",
          "name": "",
          "type": "uint256"
        }
      ],
      "stateMutability": "view",
      "type": "function"
    },
    {
      "inputs": [
        {
          "internalType": "address[]",
          "name": "accounts",
          "type": "address[]"
        },
        {
          "internalType": "uint256[]",
          "name": "ids",
          "type": "uint256[]"
        }
      ],
      "name": "balanceOfBatch",
      "outputs": [
        {
          "internalType": "uint256[]",
          "name": "",
          "type": "uint256[]"
        }
      ],
      "stateMutability": "view",
      "type": "function"
    },
    {
      "inputs": [
        {
          "internalType": "uint256",
          "name": "tokenId",
          "type": "uint256"
        }
      ],
      "name": "exists",
      "outputs": [
        {
          "internalType": "bool",
          "name": "",
          "type": "bool"
        }
      ],
      "stateMutability": "view",
      "type": "function"
    },
    {
      "inputs": [
        {
          "internalType": "bytes32",
          "name": "role",
          "type": "bytes32"
        }
      ],
      "name": "getRoleAdmin",
      "outputs": [
        {
          "internalType": "bytes32",
          "name": "",
          "type": "bytes32"
        }
      ],
      "stateMutability": "view",
      "type": "function"
    },
    {
      "inputs": [
        {
          "internalType": "bytes32",
          "name": "role",
          "type": "bytes32"
        },
        {
          "internalType": "uint256",
          "name": "index",
          "type": "uint256"
        }
      ],
      "name": "getRoleMember",
      "outputs": [
        {
          "internalType": "address",
          "name": "",
          "type": "address"
        }
      ],
      "stateMutability": "view",
      "type": "function"
    },
    {
      "inputs": [
        {
          "internalType": "bytes32",
          "name": "role",
          "type": "bytes32"
        }
      ],
      "name": "getRoleMemberCount",
      "outputs": [
        {
          "internalType": "uint256",
          "name": "",
          "type": "uint256"
        }
      ],
      "stateMutability": "view",
      "type": "function"
    },
    {
      "inputs": [
        {
          "internalType": "bytes32",
          "name": "role",
          "type": "bytes32"
        },
        {
          "internalType": "address",
          "name": "account",
          "type": "address"
        }
      ],
      "name": "grantRole",
      "outputs": [],
      "stateMutability": "nonpayable",
      "type": "function"
    },
    {
      "inputs": [
        {
          "internalType": "bytes32",
          "name": "role",
          "type": "bytes32"
        },
        {
          "internalType": "address",
          "name": "account",
          "type": "address"
        }
      ],
      "name": "hasRole",
      "outputs": [
        {
          "internalType": "bool",
          "name": "",
          "type": "bool"
        }
      ],
      "stateMutability": "view",
      "type": "function"
    },
    {
      "inputs": [
        {
          "internalType": "address",
          "name": "account",
          "type": "address"
        },
        {
          "internalType": "address",
          "name": "operator",
          "type": "address"
        }
      ],
      "name": "isApprovedForAll",
      "outputs": [
        {
          "internalType": "bool",
          "name": "",
          "type": "bool"
        }
      ],
      "stateMutability": "view",
      "type": "function"
    },
    {
      "inputs": [],
      "name": "name",
      "outputs": [
        {
          "internalType": "string",
          "name": "",
          "type": "string"
        }
      ],
      "stateMutability": "view",
      "type": "function"
    },
    {
      "inputs": [
        {
          "internalType": "bytes32",
          "name": "role",
          "type": "bytes32"
        },
        {
          "internalType": "address",
          "name": "account",
          "type": "address"
        }
      ],
      "name": "renounceRole",
      "outputs": [],
      "stateMutability": "nonpayable",
      "type": "function"
    },
    {
      "inputs": [
        {
          "internalType": "bytes32",
          "name": "role",
          "type": "bytes32"
        },
        {
          "internalType": "address",
          "name": "account",
          "type": "address"
        }
      ],
      "name": "revokeRole",
      "outputs": [],
      "stateMutability": "nonpayable",
      "type": "function"
    },
    {
      "inputs": [
        {
          "internalType": "address",
          "name": "from",
          "type": "address"
        },
        {
          "internalType": "address",
          "name": "to",
          "type": "address"
        },
        {
          "internalType": "uint256[]",
          "name": "ids",
          "type": "uint256[]"
        },
        {
          "internalType": "uint256[]",
          "name": "amounts",
          "type": "uint256[]"
        },
        {
          "internalType": "bytes",
          "name": "data",
          "type": "bytes"
        }
      ],
      "name": "safeBatchTransferFrom",
      "outputs": [],
      "stateMutability": "nonpayable",
      "type": "function"
    },
    {
      "inputs": [
        {
          "internalType": "address",
          "name": "from",
          "type": "address"
        },
        {
          "internalType": "address",
          "name": "to",
          "type": "address"
        },
        {
          "internalType": "uint256",
          "name": "id",
          "type": "uint256"
        },
        {
          "internalType": "uint256",
          "name": "amount",
          "type": "uint256"
        },
        {
          "internalType": "bytes",
          "name": "data",
          "type": "bytes"
        }
      ],
      "name": "safeTransferFrom",
      "outputs": [],
      "stateMutability": "nonpayable",
      "type": "function"
    },
    {
      "inputs": [
        {
          "internalType": "address",
          "name": "operator",
          "type": "address"
        },
        {
          "internalType": "bool",
          "name": "approved",
          "type": "bool"
        }
      ],
      "name": "setApprovalForAll",
      "outputs": [],
      "stateMutability": "nonpayable",
      "type": "function"
    },
    {
      "inputs": [],
      "name": "symbol",
      "outputs": [
        {
          "internalType": "string",
          "name": "",
          "type": "string"
        }
      ],
      "stateMutability": "view",
      "type": "function"
    },
    {
      "inputs": [
        {
          "internalType": "uint256",
          "name": "index",
          "type": "uint256"
        }
      ],
      "name": "tokenByIndex",
      "outputs": [
        {
          "internalType": "uint256",
          "name": "",
          "type": "uint256"
        }
      ],
      "stateMutability": "view",
      "type": "function"
    },
    {
      "inputs": [
        {
          "internalType": "address",
          "name": "owner",
          "type": "address"
        }
      ],
      "name": "tokenCountOf",
      "outputs": [
        {
          "internalType": "uint256",
          "name": "",
          "type": "uint256"
        }
      ],
      "stateMutability": "view",
      "type": "function"
    },
    {
      "inputs": [
        {
          "internalType": "uint256",
          "name": "",
          "type": "uint256"
        }
      ],
      "name": "tokenFeatureCode",
      "outputs": [
        {
          "internalType": "uint256",
          "name": "",
          "type": "uint256"
        }
      ],
      "stateMutability": "view",
      "type": "function"
    },
    {
      "inputs": [
        {
          "internalType": "address",
          "name": "owner",
          "type": "address"
        },
        {
          "internalType": "uint256",
          "name": "index",
          "type": "uint256"
        }
      ],
      "name": "tokenOfOwnerByIndex",
      "outputs": [
        {
          "internalType": "uint256",
          "name": "",
          "type": "uint256"
        }
      ],
      "stateMutability": "view",
      "type": "function"
    },
    {
      "inputs": [
        {
          "internalType": "uint256",
          "name": "offset",
          "type": "uint256"
        },
        {
          "internalType": "uint256",
          "name": "limit",
          "type": "uint256"
        }
      ],
      "name": "tokens",
      "outputs": [
        {
          "internalType": "uint256",
          "name": "total",
          "type": "uint256"
        },
        {
          "internalType": "uint256[]",
          "name": "tokenIds",
          "type": "uint256[]"
        }
      ],
      "stateMutability": "view",
      "type": "function"
    },
    {
      "inputs": [
        {
          "internalType": "address",
          "name": "owner",
          "type": "address"
        },
        {
          "internalType": "uint256",
          "name": "offset",
          "type": "uint256"
        },
        {
          "internalType": "uint256",
          "name": "limit",
          "type": "uint256"
        }
      ],
      "name": "tokensOf",
      "outputs": [
        {
          "internalType": "uint256",
          "name": "total",
          "type": "uint256"
        },
        {
          "internalType": "uint256[]",
          "name": "tokenIds",
          "type": "uint256[]"
        }
      ],
      "stateMutability": "view",
      "type": "function"
    },
    {
      "inputs": [],
      "name": "totalSupply",
      "outputs": [
        {
          "internalType": "uint256",
          "name": "",
          "type": "uint256"
        }
      ],
      "stateMutability": "view",
      "type": "function"
    },
    {
      "inputs": [
        {
          "internalType": "uint256",
          "name": "tokenId",
          "type": "uint256"
        }
      ],
      "name": "totalSupply",
      "outputs": [
        {
          "internalType": "uint256",
          "name": "",
          "type": "uint256"
        }
      ],
      "stateMutability": "view",
      "type": "function"
    },
    {
      "inputs": [
        {
          "internalType": "address",
          "name": "minter_",
          "type": "address"
        }
      ],
      "name": "addMinter",
      "outputs": [],
      "stateMutability": "nonpayable",
      "type": "function"
    },
    {
      "inputs": [
        {
          "internalType": "address",
          "name": "minter_",
          "type": "address"
        }
      ],
      "name": "removeMinter",
      "outputs": [],
      "stateMutability": "nonpayable",
      "type": "function"
    },
    {
      "inputs": [
        {
          "internalType": "string",
          "name": "newuri",
          "type": "string"
        }
      ],
      "name": "setURI",
      "outputs": [],
      "stateMutability": "nonpayable",
      "type": "function"
    },
    {
      "inputs": [
        {
          "internalType": "uint256",
          "name": "tokenId",
          "type": "uint256"
        }
      ],
      "name": "uri",
      "outputs": [
        {
          "internalType": "string",
          "name": "",
          "type": "string"
        }
      ],
      "stateMutability": "view",
      "type": "function"
    },
    {
      "inputs": [
        {
          "internalType": "address",
          "name": "to",
          "type": "address"
        },
        {
          "internalType": "bytes",
          "name": "data",
          "type": "bytes"
        }
      ],
      "name": "mint",
      "outputs": [],
      "stateMutability": "nonpayable",
      "type": "function"
    },
    {
      "inputs": [
        {
          "internalType": "address",
          "name": "to",
          "type": "address"
        },
        {
          "internalType": "uint256",
          "name": "amount",
          "type": "uint256"
        },
        {
          "internalType": "bytes",
          "name": "data",
          "type": "bytes"
        }
      ],
      "name": "mintBatch",
      "outputs": [],
      "stateMutability": "nonpayable",
      "type": "function"
    },
    {
      "inputs": [
        {
          "internalType": "address",
          "name": "_to",
          "type": "address"
        },
        {
          "internalType": "uint256",
          "name": "_amount",
          "type": "uint256"
        }
      ],
      "name": "batchAddItemByNumber",
      "outputs": [],
      "stateMutability": "nonpayable",
      "type": "function"
    },
    {
      "inputs": [
        {
          "internalType": "address[]",
          "name": "_initialOwners",
          "type": "address[]"
        }
      ],
      "name": "batchAddItemByAddress",
      "outputs": [],
      "stateMutability": "nonpayable",
      "type": "function"
    },
    {
      "inputs": [
        {
          "internalType": "uint256",
          "name": "tokenId",
          "type": "uint256"
        },
        {
          "internalType": "uint256",
          "name": "featureCode",
          "type": "uint256"
        }
      ],
      "name": "setTokenFeatureCode",
      "outputs": [],
      "stateMutability": "nonpayable",
      "type": "function"
    },
    {
      "inputs": [
        {
          "internalType": "bytes4",
          "name": "interfaceId",
          "type": "bytes4"
        }
      ],
      "name": "supportsInterface",
      "outputs": [
        {
          "internalType": "bool",
          "name": "",
          "type": "bool"
        }
      ],
      "stateMutability": "view",
      "type": "function"
    }
  ],
  "bytecode": "0x60806040523480156200001157600080fd5b50604051620062d7380380620062d78339818101604052810190620000379190620008a2565b8282826200004b816200040e60201b60201c565b508160099080519060200190620000649291906200072b565b5080600a90805190602001906200007d9291906200072b565b505050620000906200042a60201b60201c565b6200009b576200035f565b6000600167ffffffffffffffff811115620000bb57620000ba62000c95565b5b604051908082528060200260200182016040528015620000ea5781602001602082028036833780820191505090505b50905060008160008151811062000106576200010562000c66565b5b602002602001019073ffffffffffffffffffffffffffffffffffffffff16908173ffffffffffffffffffffffffffffffffffffffff168152505073088800000000000000000000000000000000000173ffffffffffffffffffffffffffffffffffffffff166310128d3e826040518263ffffffff1660e01b81526004016200018f919062000a72565b600060405180830381600087803b158015620001aa57600080fd5b505af1158015620001bf573d6000803e3d6000fd5b5050505073088800000000000000000000000000000000000073ffffffffffffffffffffffffffffffffffffffff1663c55b6bb73060006040518363ffffffff1660e01b81526004016200021592919062000a45565b600060405180830381600087803b1580156200023057600080fd5b505af115801562000245573d6000803e3d6000fd5b50505050600073ffffffffffffffffffffffffffffffffffffffff1673088800000000000000000000000000000000000073ffffffffffffffffffffffffffffffffffffffff166364efb22b306040518263ffffffff1660e01b8152600401620002b0919062000a28565b60206040518083038186803b158015620002c957600080fd5b505afa158015620002de573d6000803e3d6000fd5b505050506040513d601f19601f8201168201806040525081019062000304919062000870565b73ffffffffffffffffffffffffffffffffffffffff16146200035d576040517f08c379a0000000000000000000000000000000000000000000000000000000008152600401620003549062000a96565b60405180910390fd5b505b620003836000801b620003776200047260201b60201c565b6200047a60201b60201c565b620003c47f9f2df0fed2c77648de5860a4cc508cd0818c85b8b8a1ab4ceeef8d981c8956a6620003b86200047260201b60201c565b6200047a60201b60201c565b620004057f65d7a28e3265b37a6474929f336521b332c1681b933f6cb9f3376673440d862a620003f96200047260201b60201c565b6200047a60201b60201c565b50505062000d2c565b8060049080519060200190620004269291906200072b565b5050565b60006200046c731820a4b7618bde71dce8cdc73aab6c95905fad2473ffffffffffffffffffffffffffffffffffffffff166200049060201b620018441760201c565b15905090565b600033905090565b6200048c8282620004b360201b60201c565b5050565b6000808273ffffffffffffffffffffffffffffffffffffffff163b119050919050565b620004ca8282620004fb60201b620018671760201c565b620004f68160016000858152602001908152602001600020620005ec60201b620019471790919060201c565b505050565b6200050d82826200062460201b60201c565b620005e857600160008084815260200190815260200160002060000160008373ffffffffffffffffffffffffffffffffffffffff1673ffffffffffffffffffffffffffffffffffffffff16815260200190815260200160002060006101000a81548160ff0219169083151502179055506200058d6200047260201b60201c565b73ffffffffffffffffffffffffffffffffffffffff168173ffffffffffffffffffffffffffffffffffffffff16837f2f8788117e7eff1d82e926ec794901d17c78024a50270940304540a733656f0d60405160405180910390a45b5050565b60006200061c836000018373ffffffffffffffffffffffffffffffffffffffff1660001b6200068e60201b60201c565b905092915050565b600080600084815260200190815260200160002060000160008373ffffffffffffffffffffffffffffffffffffffff1673ffffffffffffffffffffffffffffffffffffffff16815260200190815260200160002060009054906101000a900460ff16905092915050565b6000620006a283836200070860201b60201c565b620006fd57826000018290806001815401808255809150506001900390600052602060002001600090919091909150558260000180549050836001016000848152602001908152602001600020819055506001905062000702565b600090505b92915050565b600080836001016000848152602001908152602001600020541415905092915050565b828054620007399062000bcb565b90600052602060002090601f0160209004810192826200075d5760008555620007a9565b82601f106200077857805160ff1916838001178555620007a9565b82800160010185558215620007a9579182015b82811115620007a85782518255916020019190600101906200078b565b5b509050620007b89190620007bc565b5090565b5b80821115620007d7576000816000905550600101620007bd565b5090565b6000620007f2620007ec8462000ae1565b62000ab8565b90508281526020810184848401111562000811576200081062000cc9565b5b6200081e84828562000b95565b509392505050565b600081519050620008378162000d12565b92915050565b600082601f83011262000855576200085462000cc4565b5b815162000867848260208601620007db565b91505092915050565b60006020828403121562000889576200088862000cd3565b5b6000620008998482850162000826565b91505092915050565b600080600060608486031215620008be57620008bd62000cd3565b5b600084015167ffffffffffffffff811115620008df57620008de62000cce565b5b620008ed868287016200083d565b935050602084015167ffffffffffffffff81111562000911576200091062000cce565b5b6200091f868287016200083d565b925050604084015167ffffffffffffffff81111562000943576200094262000cce565b5b62000951868287016200083d565b9150509250925092565b600062000969838362000975565b60208301905092915050565b620009808162000b61565b82525050565b620009918162000b61565b82525050565b6000620009a48262000b27565b620009b0818562000b3f565b9350620009bd8362000b17565b8060005b83811015620009f4578151620009d888826200095b565b9750620009e58362000b32565b925050600181019050620009c1565b5085935050505092915050565b600062000a1060158362000b50565b915062000a1d8262000ce9565b602082019050919050565b600060208201905062000a3f600083018462000986565b92915050565b600060408201905062000a5c600083018562000986565b62000a6b602083018462000986565b9392505050565b6000602082019050818103600083015262000a8e818462000997565b905092915050565b6000602082019050818103600083015262000ab18162000a01565b9050919050565b600062000ac462000ad7565b905062000ad2828262000c01565b919050565b6000604051905090565b600067ffffffffffffffff82111562000aff5762000afe62000c95565b5b62000b0a8262000cd8565b9050602081019050919050565b6000819050602082019050919050565b600081519050919050565b6000602082019050919050565b600082825260208201905092915050565b600082825260208201905092915050565b600062000b6e8262000b75565b9050919050565b600073ffffffffffffffffffffffffffffffffffffffff82169050919050565b60005b8381101562000bb557808201518184015260208101905062000b98565b8381111562000bc5576000848401525b50505050565b6000600282049050600182168062000be457607f821691505b6020821081141562000bfb5762000bfa62000c37565b5b50919050565b62000c0c8262000cd8565b810181811067ffffffffffffffff8211171562000c2e5762000c2d62000c95565b5b80604052505050565b7f4e487b7100000000000000000000000000000000000000000000000000000000600052602260045260246000fd5b7f4e487b7100000000000000000000000000000000000000000000000000000000600052603260045260246000fd5b7f4e487b7100000000000000000000000000000000000000000000000000000000600052604160045260246000fd5b600080fd5b600080fd5b600080fd5b600080fd5b6000601f19601f8301169050919050565b7f726571756972652061646d696e203d3d206e756c6c0000000000000000000000600082015250565b62000d1d8162000b61565b811462000d2957600080fd5b50565b61559b8062000d3c6000396000f3fe608060405234801561001057600080fd5b50600436106102265760003560e01c806354777f4111610130578063b722938a116100b8578063d547741f1161007c578063d547741f146106e3578063e63ab1e9146106ff578063e985e9c51461071d578063f242432a1461074d578063f65a60cb1461076957610226565b8063b722938a14610619578063bd85b03914610649578063ca15c87314610679578063cdf3d474146106a9578063d5391393146106c557610226565b806395d89b41116100ff57806395d89b4114610589578063983b2d56146105a7578063a217fddf146105c3578063a22cb465146105e1578063b510391f146105fd57610226565b806354777f41146104dc5780638b4864d6146104f85780639010d07c1461052957806391d148541461055957610226565b80632eb2c2d6116101b357806331f0e6c81161018257806331f0e6c81461041457806336568abe146104305780634e1273f41461044c5780634f558e791461047c5780634f6ccce7146104ac57610226565b80632eb2c2d6146103905780632f2ff15d146103ac5780632f745c59146103c85780633092afd5146103f857610226565b80630e89341c116101fa5780630e89341c146102c557806318160ddd146102f55780631d61c7e11461031357806323185dc91461032f578063248a9ca31461036057610226565b8062fdd58e1461022b57806301ffc9a71461025b57806302fe53051461028b57806306fdde03146102a7575b600080fd5b61024560048036038101906102409190613d7c565b610799565b60405161025291906148f4565b60405180910390f35b61027560048036038101906102709190613ff0565b610863565b604051610282919061469c565b60405180910390f35b6102a560048036038101906102a0919061404a565b610885565b005b6102af6108e4565b6040516102bc91906146d2565b60405180910390f35b6102df60048036038101906102da9190614093565b610976565b6040516102ec91906146d2565b60405180910390f35b6102fd6109b1565b60405161030a91906148f4565b60405180910390f35b61032d600480360381019061032891906140c0565b6109c2565b005b61034960048036038101906103449190613e2b565b610aa4565b60405161035792919061490f565b60405180910390f35b61037a60048036038101906103759190613f43565b610bf3565b60405161038791906146b7565b60405180910390f35b6103aa60048036038101906103a59190613b7a565b610c12565b005b6103c660048036038101906103c19190613f70565b610cb3565b005b6103e260048036038101906103dd9190613d7c565b610cd4565b6040516103ef91906148f4565b60405180910390f35b610412600480360381019061040d9190613b0d565b610d2f565b005b61042e60048036038101906104299190613dbc565b610d5c565b005b61044a60048036038101906104459190613f70565b610ef8565b005b61046660048036038101906104619190613ecb565b610f7b565b6040516104739190614643565b60405180910390f35b61049660048036038101906104919190614093565b611094565b6040516104a3919061469c565b60405180910390f35b6104c660048036038101906104c19190614093565b6110b3565b6040516104d391906148f4565b60405180910390f35b6104f660048036038101906104f19190613e7e565b6110d0565b005b610512600480360381019061050d91906140c0565b6111ce565b60405161052092919061490f565b60405180910390f35b610543600480360381019061053e9190613fb0565b61131a565b6040516105509190614566565b60405180910390f35b610573600480360381019061056e9190613f70565b611349565b604051610580919061469c565b60405180910390f35b6105916113b3565b60405161059e91906146d2565b60405180910390f35b6105c160048036038101906105bc9190613b0d565b611445565b005b6105cb611472565b6040516105d891906146b7565b60405180910390f35b6105fb60048036038101906105f69190613ce0565b611479565b005b61061760048036038101906106129190613d20565b61148f565b005b610633600480360381019061062e9190613b0d565b61152f565b60405161064091906148f4565b60405180910390f35b610663600480360381019061065e9190614093565b61157f565b60405161067091906148f4565b60405180910390f35b610693600480360381019061068e9190613f43565b61159c565b6040516106a091906148f4565b60405180910390f35b6106c360048036038101906106be9190613d7c565b6115c0565b005b6106cd61168e565b6040516106da91906146b7565b60405180910390f35b6106fd60048036038101906106f89190613f70565b6116b2565b005b6107076116d3565b60405161071491906146b7565b60405180910390f35b61073760048036038101906107329190613b3a565b6116f7565b604051610744919061469c565b60405180910390f35b61076760048036038101906107629190613c49565b61178b565b005b610783600480360381019061077e9190614093565b61182c565b60405161079091906148f4565b60405180910390f35b60008073ffffffffffffffffffffffffffffffffffffffff168373ffffffffffffffffffffffffffffffffffffffff16141561080a576040517f08c379a000000000000000000000000000000000000000000000000000000000815260040161080190614794565b60405180910390fd5b6002600083815260200190815260200160002060008473ffffffffffffffffffffffffffffffffffffffff1673ffffffffffffffffffffffffffffffffffffffff16815260200190815260200160002054905092915050565b600061086e82611977565b8061087e575061087d826119f1565b5b9050919050565b6108996000801b610894611a6b565b611349565b6108d8576040517f08c379a00000000000000000000000000000000000000000000000000000000081526004016108cf906148d4565b60405180910390fd5b6108e181611a73565b50565b6060600980546108f390614cc2565b80601f016020809104026020016040519081016040528092919081815260200182805461091f90614cc2565b801561096c5780601f106109415761010080835404028352916020019161096c565b820191906000526020600020905b81548152906001019060200180831161094f57829003601f168201915b5050505050905090565b606061098182611a8d565b61098a83611b21565b60405160200161099b9291906144fd565b6040516020818303038152906040529050919050565b60006109bd6005611c82565b905090565b6109f37f9f2df0fed2c77648de5860a4cc508cd0818c85b8b8a1ab4ceeef8d981c8956a66109ee611a6b565b611349565b610a32576040517f08c379a0000000000000000000000000000000000000000000000000000000008152600401610a29906147b4565b60405180910390fd5b6000600b60008481526020019081526020016000205414610a88576040517f08c379a0000000000000000000000000000000000000000000000000000000008152600401610a7f90614814565b60405180910390fd5b80600b6000848152602001908152602001600020819055505050565b60006060610ab18561152f565b91506000821480610ac25750818410155b15610b1b5781600067ffffffffffffffff811115610ae357610ae2614e8a565b5b604051908082528060200260200182016040528015610b115781602001602082028036833780820191505090505b5091509150610beb565b6000610b3b8486610b2c9190614ac3565b84611c9790919063ffffffff16565b90508481610b499190614ba4565b67ffffffffffffffff811115610b6257610b61614e8a565b5b604051908082528060200260200182016040528015610b905781602001602082028036833780820191505090505b50915060008590505b81811015610be857610bab8782610cd4565b838783610bb89190614ba4565b81518110610bc957610bc8614e5b565b5b6020026020010181815250508080610be090614d25565b915050610b99565b50505b935093915050565b6000806000838152602001908152602001600020600101549050919050565b610c1a611a6b565b73ffffffffffffffffffffffffffffffffffffffff168573ffffffffffffffffffffffffffffffffffffffff161480610c605750610c5f85610c5a611a6b565b6116f7565b5b610c9f576040517f08c379a0000000000000000000000000000000000000000000000000000000008152600401610c9690614714565b60405180910390fd5b610cac8585858585611cb0565b5050505050565b610cbc82610bf3565b610cc581611fd5565b610ccf8383611fe9565b505050565b6000610d2782600860008673ffffffffffffffffffffffffffffffffffffffff1673ffffffffffffffffffffffffffffffffffffffff16815260200190815260200160002061201d90919063ffffffff16565b905092915050565b610d597f9f2df0fed2c77648de5860a4cc508cd0818c85b8b8a1ab4ceeef8d981c8956a6826116b2565b50565b610d8d7f9f2df0fed2c77648de5860a4cc508cd0818c85b8b8a1ab4ceeef8d981c8956a6610d88611a6b565b611349565b610dcc576040517f08c379a0000000000000000000000000000000000000000000000000000000008152600401610dc390614774565b60405180910390fd5b60008267ffffffffffffffff811115610de857610de7614e8a565b5b604051908082528060200260200182016040528015610e165781602001602082028036833780820191505090505b50905060008367ffffffffffffffff811115610e3557610e34614e8a565b5b604051908082528060200260200182016040528015610e635781602001602082028036833780820191505090505b50905060005b84811015610ee4576001610e7d600c612037565b610e879190614ac3565b838281518110610e9a57610e99614e5b565b5b602002602001018181525050610eb0600c612045565b6001828281518110610ec557610ec4614e5b565b5b6020026020010181815250508080610edc90614d25565b915050610e69565b50610ef18583838661205b565b5050505050565b610f00611a6b565b73ffffffffffffffffffffffffffffffffffffffff168173ffffffffffffffffffffffffffffffffffffffff1614610f6d576040517f08c379a0000000000000000000000000000000000000000000000000000000008152600401610f64906148b4565b60405180910390fd5b610f778282612289565b5050565b60608151835114610fc1576040517f08c379a0000000000000000000000000000000000000000000000000000000008152600401610fb890614854565b60405180910390fd5b6000835167ffffffffffffffff811115610fde57610fdd614e8a565b5b60405190808252806020026020018201604052801561100c5781602001602082028036833780820191505090505b50905060005b84518110156110895761105985828151811061103157611030614e5b565b5b602002602001015185838151811061104c5761104b614e5b565b5b6020026020010151610799565b82828151811061106c5761106b614e5b565b5b6020026020010181815250508061108290614d25565b9050611012565b508091505092915050565b6000806007600084815260200190815260200160002054119050919050565b60006110c982600561201d90919063ffffffff16565b9050919050565b6111017f9f2df0fed2c77648de5860a4cc508cd0818c85b8b8a1ab4ceeef8d981c8956a66110fc611a6b565b611349565b611140576040517f08c379a000000000000000000000000000000000000000000000000000000000815260040161113790614774565b60405180910390fd5b600082829050905060005b818110156111c8576111ab84848381811061116957611168614e5b565b5b905060200201602081019061117e9190613b0d565b600161118a600c612037565b6111949190614ac3565b6001604051806020016040528060008152506122bd565b6111b5600c612045565b80806111c090614d25565b91505061114b565b50505050565b600060606111da6109b1565b915060008214806111eb5750818410155b156112445781600067ffffffffffffffff81111561120c5761120b614e8a565b5b60405190808252806020026020018201604052801561123a5781602001602082028036833780820191505090505b5091509150611313565b600061126484866112559190614ac3565b84611c9790919063ffffffff16565b905084816112729190614ba4565b67ffffffffffffffff81111561128b5761128a614e8a565b5b6040519080825280602002602001820160405280156112b95781602001602082028036833780820191505090505b50915060008590505b81811015611310576112d3816110b3565b8387836112e09190614ba4565b815181106112f1576112f0614e5b565b5b602002602001018181525050808061130890614d25565b9150506112c2565b50505b9250929050565b6000611341826001600086815260200190815260200160002061246f90919063ffffffff16565b905092915050565b600080600084815260200190815260200160002060000160008373ffffffffffffffffffffffffffffffffffffffff1673ffffffffffffffffffffffffffffffffffffffff16815260200190815260200160002060009054906101000a900460ff16905092915050565b6060600a80546113c290614cc2565b80601f01602080910402602001604051908101604052809291908181526020018280546113ee90614cc2565b801561143b5780601f106114105761010080835404028352916020019161143b565b820191906000526020600020905b81548152906001019060200180831161141e57829003601f168201915b5050505050905090565b61146f7f9f2df0fed2c77648de5860a4cc508cd0818c85b8b8a1ab4ceeef8d981c8956a682610cb3565b50565b6000801b81565b61148b611484611a6b565b8383612489565b5050565b6114c07f9f2df0fed2c77648de5860a4cc508cd0818c85b8b8a1ab4ceeef8d981c8956a66114bb611a6b565b611349565b6114ff576040517f08c379a00000000000000000000000000000000000000000000000000000000081526004016114f690614774565b60405180910390fd5b61152182600161150f600c612037565b6115199190614ac3565b6001846122bd565b61152b600c612045565b5050565b6000611578600860008473ffffffffffffffffffffffffffffffffffffffff1673ffffffffffffffffffffffffffffffffffffffff168152602001908152602001600020611c82565b9050919050565b600060076000838152602001908152602001600020549050919050565b60006115b9600160008481526020019081526020016000206125f6565b9050919050565b6115f17f9f2df0fed2c77648de5860a4cc508cd0818c85b8b8a1ab4ceeef8d981c8956a66115ec611a6b565b611349565b611630576040517f08c379a000000000000000000000000000000000000000000000000000000000815260040161162790614774565b60405180910390fd5b60005b818110156116895761166c83600161164b600c612037565b6116559190614ac3565b6001604051806020016040528060008152506122bd565b611676600c612045565b808061168190614d25565b915050611633565b505050565b7f9f2df0fed2c77648de5860a4cc508cd0818c85b8b8a1ab4ceeef8d981c8956a681565b6116bb82610bf3565b6116c481611fd5565b6116ce8383612289565b505050565b7f65d7a28e3265b37a6474929f336521b332c1681b933f6cb9f3376673440d862a81565b6000600360008473ffffffffffffffffffffffffffffffffffffffff1673ffffffffffffffffffffffffffffffffffffffff16815260200190815260200160002060008373ffffffffffffffffffffffffffffffffffffffff1673ffffffffffffffffffffffffffffffffffffffff16815260200190815260200160002060009054906101000a900460ff16905092915050565b611793611a6b565b73ffffffffffffffffffffffffffffffffffffffff168573ffffffffffffffffffffffffffffffffffffffff1614806117d957506117d8856117d3611a6b565b6116f7565b5b611818576040517f08c379a000000000000000000000000000000000000000000000000000000000815260040161180f90614714565b60405180910390fd5b611825858585858561260b565b5050505050565b600b6020528060005260406000206000915090505481565b6000808273ffffffffffffffffffffffffffffffffffffffff163b119050919050565b6118718282611349565b61194357600160008084815260200190815260200160002060000160008373ffffffffffffffffffffffffffffffffffffffff1673ffffffffffffffffffffffffffffffffffffffff16815260200190815260200160002060006101000a81548160ff0219169083151502179055506118e8611a6b565b73ffffffffffffffffffffffffffffffffffffffff168173ffffffffffffffffffffffffffffffffffffffff16837f2f8788117e7eff1d82e926ec794901d17c78024a50270940304540a733656f0d60405160405180910390a45b5050565b600061196f836000018373ffffffffffffffffffffffffffffffffffffffff1660001b6128aa565b905092915050565b60007f5a05180f000000000000000000000000000000000000000000000000000000007bffffffffffffffffffffffffffffffffffffffffffffffffffffffff1916827bffffffffffffffffffffffffffffffffffffffffffffffffffffffff191614806119ea57506119e98261291a565b5b9050919050565b60007f3dfc30a9000000000000000000000000000000000000000000000000000000007bffffffffffffffffffffffffffffffffffffffffffffffffffffffff1916827bffffffffffffffffffffffffffffffffffffffffffffffffffffffff19161480611a645750611a6382612994565b5b9050919050565b600033905090565b8060049080519060200190611a8992919061377a565b5050565b606060048054611a9c90614cc2565b80601f0160208091040260200160405190810160405280929190818152602001828054611ac890614cc2565b8015611b155780601f10611aea57610100808354040283529160200191611b15565b820191906000526020600020905b815481529060010190602001808311611af857829003601f168201915b50505050509050919050565b60606000821415611b69576040518060400160405280600181526020017f30000000000000000000000000000000000000000000000000000000000000008152509050611c7d565b600082905060005b60008214611b9b578080611b8490614d25565b915050600a82611b949190614b19565b9150611b71565b60008167ffffffffffffffff811115611bb757611bb6614e8a565b5b6040519080825280601f01601f191660200182016040528015611be95781602001600182028036833780820191505090505b5090505b60008514611c7657600182611c029190614ba4565b9150600a85611c119190614d6e565b6030611c1d9190614ac3565b60f81b818381518110611c3357611c32614e5b565b5b60200101907effffffffffffffffffffffffffffffffffffffffffffffffffffffffffffff1916908160001a905350600a85611c6f9190614b19565b9450611bed565b8093505050505b919050565b6000611c9082600001612a76565b9050919050565b6000818310611ca65781611ca8565b825b905092915050565b8151835114611cf4576040517f08c379a0000000000000000000000000000000000000000000000000000000008152600401611ceb90614874565b60405180910390fd5b600073ffffffffffffffffffffffffffffffffffffffff168473ffffffffffffffffffffffffffffffffffffffff161415611d64576040517f08c379a0000000000000000000000000000000000000000000000000000000008152600401611d5b906147d4565b60405180910390fd5b6000611d6e611a6b565b9050611d7e818787878787612a87565b60005b8451811015611f32576000858281518110611d9f57611d9e614e5b565b5b602002602001015190506000858381518110611dbe57611dbd614e5b565b5b6020026020010151905060006002600084815260200190815260200160002060008b73ffffffffffffffffffffffffffffffffffffffff1673ffffffffffffffffffffffffffffffffffffffff16815260200190815260200160002054905081811015611e60576040517f08c379a0000000000000000000000000000000000000000000000000000000008152600401611e57906147f4565b60405180910390fd5b8181036002600085815260200190815260200160002060008c73ffffffffffffffffffffffffffffffffffffffff1673ffffffffffffffffffffffffffffffffffffffff16815260200190815260200160002081905550816002600085815260200190815260200160002060008b73ffffffffffffffffffffffffffffffffffffffff1673ffffffffffffffffffffffffffffffffffffffff1681526020019081526020016000206000828254611f179190614ac3565b9250508190555050505080611f2b90614d25565b9050611d81565b508473ffffffffffffffffffffffffffffffffffffffff168673ffffffffffffffffffffffffffffffffffffffff168273ffffffffffffffffffffffffffffffffffffffff167f4a39dc06d4c0dbc64b70af90fd698a233a518aa5d07e595d983b8c0526c8f7fb8787604051611fa9929190614665565b60405180910390a4611fbf818787878787612d38565b611fcd818787878787612d40565b505050505050565b611fe681611fe1611a6b565b612f27565b50565b611ff38282611867565b612018816001600085815260200190815260200160002061194790919063ffffffff16565b505050565b600061202c8360000183612fc4565b60001c905092915050565b600081600001549050919050565b6001816000016000828254019250508190555050565b600073ffffffffffffffffffffffffffffffffffffffff168473ffffffffffffffffffffffffffffffffffffffff1614156120cb576040517f08c379a00000000000000000000000000000000000000000000000000000000081526004016120c290614894565b60405180910390fd5b815183511461210f576040517f08c379a000000000000000000000000000000000000000000000000000000000815260040161210690614874565b60405180910390fd5b6000612119611a6b565b905061212a81600087878787612a87565b60005b84518110156121e45783818151811061214957612148614e5b565b5b60200260200101516002600087848151811061216857612167614e5b565b5b6020026020010151815260200190815260200160002060008873ffffffffffffffffffffffffffffffffffffffff1673ffffffffffffffffffffffffffffffffffffffff16815260200190815260200160002060008282546121ca9190614ac3565b9250508190555080806121dc90614d25565b91505061212d565b508473ffffffffffffffffffffffffffffffffffffffff16600073ffffffffffffffffffffffffffffffffffffffff168273ffffffffffffffffffffffffffffffffffffffff167f4a39dc06d4c0dbc64b70af90fd698a233a518aa5d07e595d983b8c0526c8f7fb878760405161225c929190614665565b60405180910390a461227381600087878787612d38565b61228281600087878787612d40565b5050505050565b6122938282612fef565b6122b881600160008581526020019081526020016000206130d090919063ffffffff16565b505050565b600073ffffffffffffffffffffffffffffffffffffffff168473ffffffffffffffffffffffffffffffffffffffff16141561232d576040517f08c379a000000000000000000000000000000000000000000000000000000000815260040161232490614894565b60405180910390fd5b6000612337611a6b565b9050600061234485613100565b9050600061235185613100565b905061236283600089858589612a87565b846002600088815260200190815260200160002060008973ffffffffffffffffffffffffffffffffffffffff1673ffffffffffffffffffffffffffffffffffffffff16815260200190815260200160002060008282546123c29190614ac3565b925050819055508673ffffffffffffffffffffffffffffffffffffffff16600073ffffffffffffffffffffffffffffffffffffffff168473ffffffffffffffffffffffffffffffffffffffff167fc3d58168c5ae7397731d063d5bbf3d657854427343f4c083240f7aacaa2d0f62898960405161244092919061493f565b60405180910390a461245783600089858589612d38565b6124668360008989898961317a565b50505050505050565b600061247e8360000183612fc4565b60001c905092915050565b8173ffffffffffffffffffffffffffffffffffffffff168373ffffffffffffffffffffffffffffffffffffffff1614156124f8576040517f08c379a00000000000000000000000000000000000000000000000000000000081526004016124ef90614834565b60405180910390fd5b80600360008573ffffffffffffffffffffffffffffffffffffffff1673ffffffffffffffffffffffffffffffffffffffff16815260200190815260200160002060008473ffffffffffffffffffffffffffffffffffffffff1673ffffffffffffffffffffffffffffffffffffffff16815260200190815260200160002060006101000a81548160ff0219169083151502179055508173ffffffffffffffffffffffffffffffffffffffff168373ffffffffffffffffffffffffffffffffffffffff167f17307eab39ab6107e8899845ad3d59bd9653f200f220920489ca2b5937696c31836040516125e9919061469c565b60405180910390a3505050565b600061260482600001612a76565b9050919050565b600073ffffffffffffffffffffffffffffffffffffffff168473ffffffffffffffffffffffffffffffffffffffff16141561267b576040517f08c379a0000000000000000000000000000000000000000000000000000000008152600401612672906147d4565b60405180910390fd5b6000612685611a6b565b9050600061269285613100565b9050600061269f85613100565b90506126af838989858589612a87565b60006002600088815260200190815260200160002060008a73ffffffffffffffffffffffffffffffffffffffff1673ffffffffffffffffffffffffffffffffffffffff16815260200190815260200160002054905085811015612747576040517f08c379a000000000000000000000000000000000000000000000000000000000815260040161273e906147f4565b60405180910390fd5b8581036002600089815260200190815260200160002060008b73ffffffffffffffffffffffffffffffffffffffff1673ffffffffffffffffffffffffffffffffffffffff16815260200190815260200160002081905550856002600089815260200190815260200160002060008a73ffffffffffffffffffffffffffffffffffffffff1673ffffffffffffffffffffffffffffffffffffffff16815260200190815260200160002060008282546127fe9190614ac3565b925050819055508773ffffffffffffffffffffffffffffffffffffffff168973ffffffffffffffffffffffffffffffffffffffff168573ffffffffffffffffffffffffffffffffffffffff167fc3d58168c5ae7397731d063d5bbf3d657854427343f4c083240f7aacaa2d0f628a8a60405161287b92919061493f565b60405180910390a4612891848a8a86868a612d38565b61289f848a8a8a8a8a61317a565b505050505050505050565b60006128b68383613361565b61290f578260000182908060018154018082558091505060019003906000526020600020016000909190919091505582600001805490508360010160008481526020019081526020016000208190555060019050612914565b600090505b92915050565b60007f7965db0b000000000000000000000000000000000000000000000000000000007bffffffffffffffffffffffffffffffffffffffffffffffffffffffff1916827bffffffffffffffffffffffffffffffffffffffffffffffffffffffff1916148061298d575061298c82613384565b5b9050919050565b60007fd9b67a26000000000000000000000000000000000000000000000000000000007bffffffffffffffffffffffffffffffffffffffffffffffffffffffff1916827bffffffffffffffffffffffffffffffffffffffffffffffffffffffff19161480612a5f57507f0e89341c000000000000000000000000000000000000000000000000000000007bffffffffffffffffffffffffffffffffffffffffffffffffffffffff1916827bffffffffffffffffffffffffffffffffffffffffffffffffffffffff1916145b80612a6f5750612a6e82611977565b5b9050919050565b600081600001805490509050919050565b612a958686868686866133ee565b60005b8351811015612d2f576000848281518110612ab657612ab5614e5b565b5b602002602001015190506000848381518110612ad557612ad4614e5b565b5b602002602001015190506000811480612b1957508673ffffffffffffffffffffffffffffffffffffffff168873ffffffffffffffffffffffffffffffffffffffff16145b15612b25575050612d1e565b600073ffffffffffffffffffffffffffffffffffffffff168873ffffffffffffffffffffffffffffffffffffffff161415612bba576000600760008481526020019081526020016000205490506000811415612b9157612b8f8360056133f690919063ffffffff16565b505b8181612b9d9190614ac3565b600760008581526020019081526020016000208190555050612c1f565b80612bc58984610799565b1415612c1e57612c1c82600860008b73ffffffffffffffffffffffffffffffffffffffff1673ffffffffffffffffffffffffffffffffffffffff16815260200190815260200160002061341090919063ffffffff16565b505b5b600073ffffffffffffffffffffffffffffffffffffffff168773ffffffffffffffffffffffffffffffffffffffff161415612cb55780600760008481526020019081526020016000206000828254612c779190614ba4565b92505081905550600060076000848152602001908152602001600020541415612cb057612cae82600561341090919063ffffffff16565b505b612d1b565b6000612cc18884610799565b1415612d1a57612d1882600860008a73ffffffffffffffffffffffffffffffffffffffff1673ffffffffffffffffffffffffffffffffffffffff1681526020019081526020016000206133f690919063ffffffff16565b505b5b50505b80612d2890614d25565b9050612a98565b50505050505050565b505050505050565b612d5f8473ffffffffffffffffffffffffffffffffffffffff16611844565b15612f1f578373ffffffffffffffffffffffffffffffffffffffff1663bc197c8187878686866040518663ffffffff1660e01b8152600401612da5959493929190614581565b602060405180830381600087803b158015612dbf57600080fd5b505af1925050508015612df057506040513d601f19601f82011682018060405250810190612ded919061401d565b60015b612e9657612dfc614eb9565b806308c379a01415612e595750612e1161545c565b80612e1c5750612e5b565b806040517f08c379a0000000000000000000000000000000000000000000000000000000008152600401612e5091906146d2565b60405180910390fd5b505b6040517f08c379a0000000000000000000000000000000000000000000000000000000008152600401612e8d906146f4565b60405180910390fd5b63bc197c8160e01b7bffffffffffffffffffffffffffffffffffffffffffffffffffffffff1916817bffffffffffffffffffffffffffffffffffffffffffffffffffffffff191614612f1d576040517f08c379a0000000000000000000000000000000000000000000000000000000008152600401612f1490614754565b60405180910390fd5b505b505050505050565b612f318282611349565b612fc057612f568173ffffffffffffffffffffffffffffffffffffffff16601461342a565b612f648360001c602061342a565b604051602001612f7592919061452c565b6040516020818303038152906040526040517f08c379a0000000000000000000000000000000000000000000000000000000008152600401612fb791906146d2565b60405180910390fd5b5050565b6000826000018281548110612fdc57612fdb614e5b565b5b9060005260206000200154905092915050565b612ff98282611349565b156130cc57600080600084815260200190815260200160002060000160008373ffffffffffffffffffffffffffffffffffffffff1673ffffffffffffffffffffffffffffffffffffffff16815260200190815260200160002060006101000a81548160ff021916908315150217905550613071611a6b565b73ffffffffffffffffffffffffffffffffffffffff168173ffffffffffffffffffffffffffffffffffffffff16837ff6391f5c32d9c69d2a47ea670b442974b53935d1edc7fd64eb21e047a839171b60405160405180910390a45b5050565b60006130f8836000018373ffffffffffffffffffffffffffffffffffffffff1660001b613666565b905092915050565b60606000600167ffffffffffffffff81111561311f5761311e614e8a565b5b60405190808252806020026020018201604052801561314d5781602001602082028036833780820191505090505b509050828160008151811061316557613164614e5b565b5b60200260200101818152505080915050919050565b6131998473ffffffffffffffffffffffffffffffffffffffff16611844565b15613359578373ffffffffffffffffffffffffffffffffffffffff1663f23a6e6187878686866040518663ffffffff1660e01b81526004016131df9594939291906145e9565b602060405180830381600087803b1580156131f957600080fd5b505af192505050801561322a57506040513d601f19601f82011682018060405250810190613227919061401d565b60015b6132d057613236614eb9565b806308c379a01415613293575061324b61545c565b806132565750613295565b806040517f08c379a000000000000000000000000000000000000000000000000000000000815260040161328a91906146d2565b60405180910390fd5b505b6040517f08c379a00000000000000000000000000000000000000000000000000000000081526004016132c7906146f4565b60405180910390fd5b63f23a6e6160e01b7bffffffffffffffffffffffffffffffffffffffffffffffffffffffff1916817bffffffffffffffffffffffffffffffffffffffffffffffffffffffff191614613357576040517f08c379a000000000000000000000000000000000000000000000000000000000815260040161334e90614754565b60405180910390fd5b505b505050505050565b600080836001016000848152602001908152602001600020541415905092915050565b60007f01ffc9a7000000000000000000000000000000000000000000000000000000007bffffffffffffffffffffffffffffffffffffffffffffffffffffffff1916827bffffffffffffffffffffffffffffffffffffffffffffffffffffffff1916149050919050565b505050505050565b6000613408836000018360001b6128aa565b905092915050565b6000613422836000018360001b613666565b905092915050565b60606000600283600261343d9190614b4a565b6134479190614ac3565b67ffffffffffffffff8111156134605761345f614e8a565b5b6040519080825280601f01601f1916602001820160405280156134925781602001600182028036833780820191505090505b5090507f3000000000000000000000000000000000000000000000000000000000000000816000815181106134ca576134c9614e5b565b5b60200101907effffffffffffffffffffffffffffffffffffffffffffffffffffffffffffff1916908160001a9053507f78000000000000000000000000000000000000000000000000000000000000008160018151811061352e5761352d614e5b565b5b60200101907effffffffffffffffffffffffffffffffffffffffffffffffffffffffffffff1916908160001a9053506000600184600261356e9190614b4a565b6135789190614ac3565b90505b6001811115613618577f3031323334353637383961626364656600000000000000000000000000000000600f8616601081106135ba576135b9614e5b565b5b1a60f81b8282815181106135d1576135d0614e5b565b5b60200101907effffffffffffffffffffffffffffffffffffffffffffffffffffffffffffff1916908160001a905350600485901c94508061361190614c98565b905061357b565b506000841461365c576040517f08c379a000000000000000000000000000000000000000000000000000000000815260040161365390614734565b60405180910390fd5b8091505092915050565b6000808360010160008481526020019081526020016000205490506000811461376e5760006001826136989190614ba4565b90506000600186600001805490506136b09190614ba4565b905081811461371f5760008660000182815481106136d1576136d0614e5b565b5b90600052602060002001549050808760000184815481106136f5576136f4614e5b565b5b90600052602060002001819055508387600101600083815260200190815260200160002081905550505b8560000180548061373357613732614e2c565b5b600190038181906000526020600020016000905590558560010160008681526020019081526020016000206000905560019350505050613774565b60009150505b92915050565b82805461378690614cc2565b90600052602060002090601f0160209004810192826137a857600085556137ef565b82601f106137c157805160ff19168380011785556137ef565b828001600101855582156137ef579182015b828111156137ee5782518255916020019190600101906137d3565b5b5090506137fc9190613800565b5090565b5b80821115613819576000816000905550600101613801565b5090565b600061383061382b8461498d565b614968565b9050808382526020820190508285602086028201111561385357613852614ee5565b5b60005b8581101561388357816138698882613981565b845260208401935060208301925050600181019050613856565b5050509392505050565b60006138a061389b846149b9565b614968565b905080838252602082019050828560208602820111156138c3576138c2614ee5565b5b60005b858110156138f357816138d98882613af8565b8452602084019350602083019250506001810190506138c6565b5050509392505050565b600061391061390b846149e5565b614968565b90508281526020810184848401111561392c5761392b614eea565b5b613937848285614c56565b509392505050565b600061395261394d84614a16565b614968565b90508281526020810184848401111561396e5761396d614eea565b5b613979848285614c56565b509392505050565b600081359050613990816154f2565b92915050565b60008083601f8401126139ac576139ab614ee0565b5b8235905067ffffffffffffffff8111156139c9576139c8614edb565b5b6020830191508360208202830111156139e5576139e4614ee5565b5b9250929050565b600082601f830112613a0157613a00614ee0565b5b8135613a1184826020860161381d565b91505092915050565b600082601f830112613a2f57613a2e614ee0565b5b8135613a3f84826020860161388d565b91505092915050565b600081359050613a5781615509565b92915050565b600081359050613a6c81615520565b92915050565b600081359050613a8181615537565b92915050565b600081519050613a9681615537565b92915050565b600082601f830112613ab157613ab0614ee0565b5b8135613ac18482602086016138fd565b91505092915050565b600082601f830112613adf57613ade614ee0565b5b8135613aef84826020860161393f565b91505092915050565b600081359050613b078161554e565b92915050565b600060208284031215613b2357613b22614ef4565b5b6000613b3184828501613981565b91505092915050565b60008060408385031215613b5157613b50614ef4565b5b6000613b5f85828601613981565b9250506020613b7085828601613981565b9150509250929050565b600080600080600060a08688031215613b9657613b95614ef4565b5b6000613ba488828901613981565b9550506020613bb588828901613981565b945050604086013567ffffffffffffffff811115613bd657613bd5614eef565b5b613be288828901613a1a565b935050606086013567ffffffffffffffff811115613c0357613c02614eef565b5b613c0f88828901613a1a565b925050608086013567ffffffffffffffff811115613c3057613c2f614eef565b5b613c3c88828901613a9c565b9150509295509295909350565b600080600080600060a08688031215613c6557613c64614ef4565b5b6000613c7388828901613981565b9550506020613c8488828901613981565b9450506040613c9588828901613af8565b9350506060613ca688828901613af8565b925050608086013567ffffffffffffffff811115613cc757613cc6614eef565b5b613cd388828901613a9c565b9150509295509295909350565b60008060408385031215613cf757613cf6614ef4565b5b6000613d0585828601613981565b9250506020613d1685828601613a48565b9150509250929050565b60008060408385031215613d3757613d36614ef4565b5b6000613d4585828601613981565b925050602083013567ffffffffffffffff811115613d6657613d65614eef565b5b613d7285828601613a9c565b9150509250929050565b60008060408385031215613d9357613d92614ef4565b5b6000613da185828601613981565b9250506020613db285828601613af8565b9150509250929050565b600080600060608486031215613dd557613dd4614ef4565b5b6000613de386828701613981565b9350506020613df486828701613af8565b925050604084013567ffffffffffffffff811115613e1557613e14614eef565b5b613e2186828701613a9c565b9150509250925092565b600080600060608486031215613e4457613e43614ef4565b5b6000613e5286828701613981565b9350506020613e6386828701613af8565b9250506040613e7486828701613af8565b9150509250925092565b60008060208385031215613e9557613e94614ef4565b5b600083013567ffffffffffffffff811115613eb357613eb2614eef565b5b613ebf85828601613996565b92509250509250929050565b60008060408385031215613ee257613ee1614ef4565b5b600083013567ffffffffffffffff811115613f0057613eff614eef565b5b613f0c858286016139ec565b925050602083013567ffffffffffffffff811115613f2d57613f2c614eef565b5b613f3985828601613a1a565b9150509250929050565b600060208284031215613f5957613f58614ef4565b5b6000613f6784828501613a5d565b91505092915050565b60008060408385031215613f8757613f86614ef4565b5b6000613f9585828601613a5d565b9250506020613fa685828601613981565b9150509250929050565b60008060408385031215613fc757613fc6614ef4565b5b6000613fd585828601613a5d565b9250506020613fe685828601613af8565b9150509250929050565b60006020828403121561400657614005614ef4565b5b600061401484828501613a72565b91505092915050565b60006020828403121561403357614032614ef4565b5b600061404184828501613a87565b91505092915050565b6000602082840312156140605761405f614ef4565b5b600082013567ffffffffffffffff81111561407e5761407d614eef565b5b61408a84828501613aca565b91505092915050565b6000602082840312156140a9576140a8614ef4565b5b60006140b784828501613af8565b91505092915050565b600080604083850312156140d7576140d6614ef4565b5b60006140e585828601613af8565b92505060206140f685828601613af8565b9150509250929050565b600061410c83836144df565b60208301905092915050565b61412181614bd8565b82525050565b600061413282614a57565b61413c8185614a85565b935061414783614a47565b8060005b8381101561417857815161415f8882614100565b975061416a83614a78565b92505060018101905061414b565b5085935050505092915050565b61418e81614bea565b82525050565b61419d81614bf6565b82525050565b60006141ae82614a62565b6141b88185614a96565b93506141c8818560208601614c65565b6141d181614ef9565b840191505092915050565b60006141e782614a6d565b6141f18185614aa7565b9350614201818560208601614c65565b61420a81614ef9565b840191505092915050565b600061422082614a6d565b61422a8185614ab8565b935061423a818560208601614c65565b80840191505092915050565b6000614253603483614aa7565b915061425e82614f17565b604082019050919050565b6000614276602f83614aa7565b915061428182614f66565b604082019050919050565b6000614299602083614aa7565b91506142a482614fb5565b602082019050919050565b60006142bc602883614aa7565b91506142c782614fde565b604082019050919050565b60006142df603283614aa7565b91506142ea8261502d565b604082019050919050565b6000614302602a83614aa7565b915061430d8261507c565b604082019050919050565b6000614325603183614aa7565b9150614330826150cb565b604082019050919050565b6000614348602583614aa7565b91506143538261511a565b604082019050919050565b600061436b602a83614aa7565b915061437682615169565b604082019050919050565b600061438e603883614aa7565b9150614399826151b8565b604082019050919050565b60006143b1600583614ab8565b91506143bc82615207565b600582019050919050565b60006143d4601783614ab8565b91506143df82615230565b601782019050919050565b60006143f7602983614aa7565b915061440282615259565b604082019050919050565b600061441a602983614aa7565b9150614425826152a8565b604082019050919050565b600061443d602883614aa7565b9150614448826152f7565b604082019050919050565b6000614460602183614aa7565b915061446b82615346565b604082019050919050565b6000614483601183614ab8565b915061448e82615395565b601182019050919050565b60006144a6602f83614aa7565b91506144b1826153be565b604082019050919050565b60006144c9603483614aa7565b91506144d48261540d565b604082019050919050565b6144e881614c4c565b82525050565b6144f781614c4c565b82525050565b60006145098285614215565b91506145158284614215565b9150614520826143a4565b91508190509392505050565b6000614537826143c7565b91506145438285614215565b915061454e82614476565b915061455a8284614215565b91508190509392505050565b600060208201905061457b6000830184614118565b92915050565b600060a0820190506145966000830188614118565b6145a36020830187614118565b81810360408301526145b58186614127565b905081810360608301526145c98185614127565b905081810360808301526145dd81846141a3565b90509695505050505050565b600060a0820190506145fe6000830188614118565b61460b6020830187614118565b61461860408301866144ee565b61462560608301856144ee565b818103608083015261463781846141a3565b90509695505050505050565b6000602082019050818103600083015261465d8184614127565b905092915050565b6000604082019050818103600083015261467f8185614127565b905081810360208301526146938184614127565b90509392505050565b60006020820190506146b16000830184614185565b92915050565b60006020820190506146cc6000830184614194565b92915050565b600060208201905081810360008301526146ec81846141dc565b905092915050565b6000602082019050818103600083015261470d81614246565b9050919050565b6000602082019050818103600083015261472d81614269565b9050919050565b6000602082019050818103600083015261474d8161428c565b9050919050565b6000602082019050818103600083015261476d816142af565b9050919050565b6000602082019050818103600083015261478d816142d2565b9050919050565b600060208201905081810360008301526147ad816142f5565b9050919050565b600060208201905081810360008301526147cd81614318565b9050919050565b600060208201905081810360008301526147ed8161433b565b9050919050565b6000602082019050818103600083015261480d8161435e565b9050919050565b6000602082019050818103600083015261482d81614381565b9050919050565b6000602082019050818103600083015261484d816143ea565b9050919050565b6000602082019050818103600083015261486d8161440d565b9050919050565b6000602082019050818103600083015261488d81614430565b9050919050565b600060208201905081810360008301526148ad81614453565b9050919050565b600060208201905081810360008301526148cd81614499565b9050919050565b600060208201905081810360008301526148ed816144bc565b9050919050565b600060208201905061490960008301846144ee565b92915050565b600060408201905061492460008301856144ee565b81810360208301526149368184614127565b90509392505050565b600060408201905061495460008301856144ee565b61496160208301846144ee565b9392505050565b6000614972614983565b905061497e8282614cf4565b919050565b6000604051905090565b600067ffffffffffffffff8211156149a8576149a7614e8a565b5b602082029050602081019050919050565b600067ffffffffffffffff8211156149d4576149d3614e8a565b5b602082029050602081019050919050565b600067ffffffffffffffff821115614a00576149ff614e8a565b5b614a0982614ef9565b9050602081019050919050565b600067ffffffffffffffff821115614a3157614a30614e8a565b5b614a3a82614ef9565b9050602081019050919050565b6000819050602082019050919050565b600081519050919050565b600081519050919050565b600081519050919050565b6000602082019050919050565b600082825260208201905092915050565b600082825260208201905092915050565b600082825260208201905092915050565b600081905092915050565b6000614ace82614c4c565b9150614ad983614c4c565b9250827fffffffffffffffffffffffffffffffffffffffffffffffffffffffffffffffff03821115614b0e57614b0d614d9f565b5b828201905092915050565b6000614b2482614c4c565b9150614b2f83614c4c565b925082614b3f57614b3e614dce565b5b828204905092915050565b6000614b5582614c4c565b9150614b6083614c4c565b9250817fffffffffffffffffffffffffffffffffffffffffffffffffffffffffffffffff0483118215151615614b9957614b98614d9f565b5b828202905092915050565b6000614baf82614c4c565b9150614bba83614c4c565b925082821015614bcd57614bcc614d9f565b5b828203905092915050565b6000614be382614c2c565b9050919050565b60008115159050919050565b6000819050919050565b60007fffffffff0000000000000000000000000000000000000000000000000000000082169050919050565b600073ffffffffffffffffffffffffffffffffffffffff82169050919050565b6000819050919050565b82818337600083830152505050565b60005b83811015614c83578082015181840152602081019050614c68565b83811115614c92576000848401525b50505050565b6000614ca382614c4c565b91506000821415614cb757614cb6614d9f565b5b600182039050919050565b60006002820490506001821680614cda57607f821691505b60208210811415614cee57614ced614dfd565b5b50919050565b614cfd82614ef9565b810181811067ffffffffffffffff82111715614d1c57614d1b614e8a565b5b80604052505050565b6000614d3082614c4c565b91507fffffffffffffffffffffffffffffffffffffffffffffffffffffffffffffffff821415614d6357614d62614d9f565b5b600182019050919050565b6000614d7982614c4c565b9150614d8483614c4c565b925082614d9457614d93614dce565b5b828206905092915050565b7f4e487b7100000000000000000000000000000000000000000000000000000000600052601160045260246000fd5b7f4e487b7100000000000000000000000000000000000000000000000000000000600052601260045260246000fd5b7f4e487b7100000000000000000000000000000000000000000000000000000000600052602260045260246000fd5b7f4e487b7100000000000000000000000000000000000000000000000000000000600052603160045260246000fd5b7f4e487b7100000000000000000000000000000000000000000000000000000000600052603260045260246000fd5b7f4e487b7100000000000000000000000000000000000000000000000000000000600052604160045260246000fd5b600060033d1115614ed85760046000803e614ed5600051614f0a565b90505b90565b600080fd5b600080fd5b600080fd5b600080fd5b600080fd5b600080fd5b6000601f19601f8301169050919050565b60008160e01c9050919050565b7f455243313135353a207472616e7366657220746f206e6f6e204552433131353560008201527f526563656976657220696d706c656d656e746572000000000000000000000000602082015250565b7f455243313135353a2063616c6c6572206973206e6f7420746f6b656e206f776e60008201527f6572206e6f7220617070726f7665640000000000000000000000000000000000602082015250565b7f537472696e67733a20686578206c656e67746820696e73756666696369656e74600082015250565b7f455243313135353a204552433131353552656365697665722072656a6563746560008201527f6420746f6b656e73000000000000000000000000000000000000000000000000602082015250565b7f435243313135354e61747572654175746f49643a206d7573742068617665206d60008201527f696e74657220726f6c6520746f206d696e740000000000000000000000000000602082015250565b7f455243313135353a2061646472657373207a65726f206973206e6f742061207660008201527f616c6964206f776e657200000000000000000000000000000000000000000000602082015250565b7f4352433732314e61747572654175746f49643a206d7573742068617665206d6960008201527f6e74657220726f6c6520746f206d696e74000000000000000000000000000000602082015250565b7f455243313135353a207472616e7366657220746f20746865207a65726f20616460008201527f6472657373000000000000000000000000000000000000000000000000000000602082015250565b7f455243313135353a20696e73756666696369656e742062616c616e636520666f60008201527f72207472616e7366657200000000000000000000000000000000000000000000602082015250565b7f4352433732314e61747572654175746f49643a20746f6b656e2046656174757260008201527f6520436f646520697320616c7265616479207365742075700000000000000000602082015250565b7f2e6a736f6e000000000000000000000000000000000000000000000000000000600082015250565b7f416363657373436f6e74726f6c3a206163636f756e7420000000000000000000600082015250565b7f455243313135353a2073657474696e6720617070726f76616c2073746174757360008201527f20666f722073656c660000000000000000000000000000000000000000000000602082015250565b7f455243313135353a206163636f756e747320616e6420696473206c656e67746860008201527f206d69736d617463680000000000000000000000000000000000000000000000602082015250565b7f455243313135353a2069647320616e6420616d6f756e7473206c656e6774682060008201527f6d69736d61746368000000000000000000000000000000000000000000000000602082015250565b7f455243313135353a206d696e7420746f20746865207a65726f2061646472657360008201527f7300000000000000000000000000000000000000000000000000000000000000602082015250565b7f206973206d697373696e6720726f6c6520000000000000000000000000000000600082015250565b7f416363657373436f6e74726f6c3a2063616e206f6e6c792072656e6f756e636560008201527f20726f6c657320666f722073656c660000000000000000000000000000000000602082015250565b7f435243313135354e61747572654175746f49643a206d7573742068617665206160008201527f646d696e20726f6c6520746f2073657420555249000000000000000000000000602082015250565b600060443d101561546c576154ef565b615474614983565b60043d036004823e80513d602482011167ffffffffffffffff8211171561549c5750506154ef565b808201805167ffffffffffffffff8111156154ba57505050506154ef565b80602083010160043d0385018111156154d75750505050506154ef565b6154e682602001850186614cf4565b82955050505050505b90565b6154fb81614bd8565b811461550657600080fd5b50565b61551281614bea565b811461551d57600080fd5b50565b61552981614bf6565b811461553457600080fd5b50565b61554081614c00565b811461554b57600080fd5b50565b61555781614c4c565b811461556257600080fd5b5056fea2646970667358221220eca878b32934f674bcafaed69d9d38fdb3a403db0d499857ea6bd4e5363a439d64736f6c63430008060033",
  "immutableReferences": {},
  "source": "// SPDX-License-Identifier: MIT\npragma solidity ^0.8.0;\n\nimport \"@confluxfans/contracts/token/CRC1155/presets/CRC1155PresetAutoId.sol\";\nimport \"@confluxfans/contracts/token/CRC1155/extensions/CRC1155Metadata.sol\";\nimport \"@confluxfans/contracts/InternalContracts/InternalContractsHandler.sol\";\nimport \"@openzeppelin/contracts/utils/Strings.sol\";\n\ncontract CRC1155NatureAutoId is AccessControlEnumerable, CRC1155Enumerable, CRC1155Metadata, InternalContractsHandler {\n    using Counters for Counters.Counter;\n    using Strings for uint256;\n\n    //tokenId => FeatureCode, the Feature code is generally md5 code for resource files such as images or videos.\n    mapping(uint256 => uint256) public tokenFeatureCode;\n\n    // Counter to auto generate token ID.\n    Counters.Counter private _tokenIdTracker;\n    bytes32 public constant MINTER_ROLE = keccak256(\"MINTER_ROLE\");\n    bytes32 public constant PAUSER_ROLE = keccak256(\"PAUSER_ROLE\");\n\n    constructor(\n        string memory name_,\n        string memory symbol_,\n        string memory uri_\n    ) CRC1155Metadata(name_, symbol_) ERC1155(uri_) {\n        _setupRole(DEFAULT_ADMIN_ROLE, _msgSender());\n\n        _setupRole(MINTER_ROLE, _msgSender());\n        _setupRole(PAUSER_ROLE, _msgSender());\n    }\n\n    //simple code for add a account as minter\n    function addMinter(address minter_) external {\n        grantRole(MINTER_ROLE, minter_);\n    }\n\n    function removeMinter(address minter_) external {\n        revokeRole(MINTER_ROLE, minter_);\n    }\n\n    /**\n     * @dev Update the URI for all tokens.\n     *\n     * Requirements:\n     *\n     * - the caller must have the `DEFAULT_ADMIN_ROLE`.\n     */\n    function setURI(string memory newuri) public virtual {\n        require(hasRole(DEFAULT_ADMIN_ROLE, _msgSender()), \"CRC1155NatureAutoId: must have admin role to set URI\");\n        _setURI(newuri);\n    }\n\n    /**\n     * @dev See {IERC1155MetadataURI-uri}.\n     *\n     * This implementation returns the same URI for *all* token types. It relies\n     * on the token type ID substitution mechanism\n     * https://eips.ethereum.org/EIPS/eip-1155#metadata[defined in the EIP].\n     *\n     * Clients calling this function must replace the `\\{id\\}` substring with the\n     * actual token type ID.\n     */\n    function uri(uint256 tokenId) public view virtual override(ERC1155, IERC1155MetadataURI) returns (string memory) {\n        return string(abi.encodePacked(ERC1155.uri(tokenId), tokenId.toString(), \".json\"));\n    }\n\n    /**\n     * @dev Creates `amount` new tokens for `to`, of token type `id`.\n     *\n     * See {ERC1155-_mint}.\n     *\n     * Requirements:\n     *\n     * - the caller must have the `MINTER_ROLE`.\n     */\n    // function mint(\n    //     address to,\n    //     uint256 amount,\n    //     bytes memory data\n    // ) public virtual {\n    //     require(hasRole(MINTER_ROLE, _msgSender()), \"CRC1155NatureAutoId: must have minter role to mint\");\n    //     _mint(to, _tokenIdTracker.current()+1, amount, data);\n    //     _tokenIdTracker.increment();\n    // }\n\n    // id1\n    function mint(\n        address to,\n        bytes memory data\n    ) public virtual {\n        require(hasRole(MINTER_ROLE, _msgSender()), \"CRC1155NatureAutoId: must have minter role to mint\");\n        _mint(to, _tokenIdTracker.current()+1, 1, data);\n        _tokenIdTracker.increment();\n    }\n\n    /**\n     * @dev xref:ROOT:erc1155.adoc#batch-operations[Batched] variant of {mint}.\n     */\n    // function mintBatch(\n    //     address to,\n    //     uint256[] memory amounts,\n    //     bytes memory data\n    // ) public virtual {\n    //     require(hasRole(MINTER_ROLE, _msgSender()), \"CRC1155NatureAutoId: must have minter role to mint\");\n    //     uint256[] memory tokenIds = new uint256[](amounts.length);\n    //     for (uint256 i = 0; i < amounts.length; i++) {\n    //         tokenIds[i] = _tokenIdTracker.current()+1;\n    //         _tokenIdTracker.increment();\n    //     }\n    //     _mintBatch(to, tokenIds, amounts, data);\n    // }\n    \n    // id1\n    function mintBatch(\n        address to,\n        uint256 amount,\n        bytes memory data\n    ) public virtual {\n        require(hasRole(MINTER_ROLE, _msgSender()), \"CRC1155NatureAutoId: must have minter role to mint\");\n        uint256[] memory tokenIds = new uint256[](amount);\n        uint256[] memory amounts = new uint256[](amount);\n        for (uint256 i = 0; i < amount; i++) {\n            tokenIds[i] = _tokenIdTracker.current() + 1;\n            _tokenIdTracker.increment();\n            amounts[i] = 1;\n        }\n        _mintBatch(to, tokenIds, amounts, data);\n    }\n\n\n    //chy:toamountidnftid1\n    function batchAddItemByNumber(address _to, uint256 _amount)\n        public\n    {\n        require(hasRole(MINTER_ROLE, _msgSender()), \"CRC1155NatureAutoId: must have minter role to mint\");\n        for (uint i = 0; i < _amount; i++) {\n            _mint(_to, _tokenIdTracker.current()+1, 1, \"\");\n            _tokenIdTracker.increment();\n        }\n    }\n\n    //chy:1idnftid\n    function batchAddItemByAddress(address[] calldata _initialOwners) \n        public\n    {\n        require(hasRole(MINTER_ROLE, _msgSender()), \"CRC1155NatureAutoId: must have minter role to mint\");\n        uint256 _length = _initialOwners.length;\n        for (uint i = 0; i < _length; i++) {\n            _mint(_initialOwners[i], _tokenIdTracker.current()+1, 1, \"\");\n            _tokenIdTracker.increment();\n        }\n    }\n\n    //Optional functionsThe feature code can only be set once for each id, and then it can never be change again\n    function setTokenFeatureCode(uint256 tokenId, uint256 featureCode) public virtual {\n        require(hasRole(MINTER_ROLE, _msgSender()), \"CRC721NatureAutoId: must have minter role to mint\");\n        require(tokenFeatureCode[tokenId] == 0, \"CRC721NatureAutoId: token Feature Code is already set up\");\n        tokenFeatureCode[tokenId] = featureCode;\n    }\n\n    /**\n     * @dev See {IERC165-supportsInterface}.\n     */\n    function supportsInterface(bytes4 interfaceId) public view virtual override(AccessControlEnumerable, CRC1155Enumerable, IERC165) returns (bool) {\n        return AccessControlEnumerable.supportsInterface(interfaceId) || CRC1155Enumerable.supportsInterface(interfaceId);\n    }\n}\n",
  "sourcePath": "E:/0FFFFF/project/conflux/1155demo/contracts/CRC1155NatureAutoId.sol",
  "compiler": {
    "name": "solc",
    "version": "0.8.6+commit.11564f7e.Emscripten.clang"
  },
  "schemaVersion": "3.3.4",
  "updatedAt": "2022-08-15T02:18:08.213Z",
  "devdoc": {
    "kind": "dev",
    "methods": {
      "balanceOf(address,uint256)": {
        "details": "See {IERC1155-balanceOf}. Requirements: - `account` cannot be the zero address."
      },
      "balanceOfBatch(address[],uint256[])": {
        "details": "See {IERC1155-balanceOfBatch}. Requirements: - `accounts` and `ids` must have the same length."
      },
      "exists(uint256)": {
        "details": "Indicates whether the specified `tokenId` exists or not."
      },
      "getRoleAdmin(bytes32)": {
        "details": "Returns the admin role that controls `role`. See {grantRole} and {revokeRole}. To change a role's admin, use {_setRoleAdmin}."
      },
      "getRoleMember(bytes32,uint256)": {
        "details": "Returns one of the accounts that have `role`. `index` must be a value between 0 and {getRoleMemberCount}, non-inclusive. Role bearers are not sorted in any particular way, and their ordering may change at any point. WARNING: When using {getRoleMember} and {getRoleMemberCount}, make sure you perform all queries on the same block. See the following https://forum.openzeppelin.com/t/iterating-over-elements-on-enumerableset-in-openzeppelin-contracts/2296[forum post] for more information."
      },
      "getRoleMemberCount(bytes32)": {
        "details": "Returns the number of accounts that have `role`. Can be used together with {getRoleMember} to enumerate all bearers of a role."
      },
      "grantRole(bytes32,address)": {
        "details": "Grants `role` to `account`. If `account` had not been already granted `role`, emits a {RoleGranted} event. Requirements: - the caller must have ``role``'s admin role. May emit a {RoleGranted} event."
      },
      "hasRole(bytes32,address)": {
        "details": "Returns `true` if `account` has been granted `role`."
      },
      "isApprovedForAll(address,address)": {
        "details": "See {IERC1155-isApprovedForAll}."
      },
      "mint(address,bytes)": {
        "details": "Creates `amount` new tokens for `to`, of token type `id`. See {ERC1155-_mint}. Requirements: - the caller must have the `MINTER_ROLE`."
      },
      "mintBatch(address,uint256,bytes)": {
        "details": "xref:ROOT:erc1155.adoc#batch-operations[Batched] variant of {mint}."
      },
      "name()": {
        "details": "Returns the token collection name."
      },
      "renounceRole(bytes32,address)": {
        "details": "Revokes `role` from the calling account. Roles are often managed via {grantRole} and {revokeRole}: this function's purpose is to provide a mechanism for accounts to lose their privileges if they are compromised (such as when a trusted device is misplaced). If the calling account had been revoked `role`, emits a {RoleRevoked} event. Requirements: - the caller must be `account`. May emit a {RoleRevoked} event."
      },
      "revokeRole(bytes32,address)": {
        "details": "Revokes `role` from `account`. If `account` had been granted `role`, emits a {RoleRevoked} event. Requirements: - the caller must have ``role``'s admin role. May emit a {RoleRevoked} event."
      },
      "safeBatchTransferFrom(address,address,uint256[],uint256[],bytes)": {
        "details": "See {IERC1155-safeBatchTransferFrom}."
      },
      "safeTransferFrom(address,address,uint256,uint256,bytes)": {
        "details": "See {IERC1155-safeTransferFrom}."
      },
      "setApprovalForAll(address,bool)": {
        "details": "See {IERC1155-setApprovalForAll}."
      },
      "setURI(string)": {
        "details": "Update the URI for all tokens. Requirements: - the caller must have the `DEFAULT_ADMIN_ROLE`."
      },
      "supportsInterface(bytes4)": {
        "details": "See {IERC165-supportsInterface}."
      },
      "symbol()": {
        "details": "Returns the token collection symbol."
      },
      "tokenByIndex(uint256)": {
        "details": "Returns the `index`-th tokenId stored by the contract."
      },
      "tokenCountOf(address)": {
        "details": "Returns the number of token ids held by `owner`."
      },
      "tokenOfOwnerByIndex(address,uint256)": {
        "details": "Returns the `index`-th tokenId held by `owner`."
      },
      "tokens(uint256,uint256)": {
        "details": "Returns token IDs in pagination view."
      },
      "tokensOf(address,uint256,uint256)": {
        "details": "Returns token IDs of specified `owner` in pagination view."
      },
      "totalSupply()": {
        "details": "Returns the number of different tokenIds stored by the contract."
      },
      "totalSupply(uint256)": {
        "details": "Returns the total amount of tokens for the specified `tokenId`."
      },
      "uri(uint256)": {
        "details": "See {IERC1155MetadataURI-uri}. This implementation returns the same URI for *all* token types. It relies on the token type ID substitution mechanism https://eips.ethereum.org/EIPS/eip-1155#metadata[defined in the EIP]. Clients calling this function must replace the `\\{id\\}` substring with the actual token type ID."
      }
    },
    "version": 1
  },
  "userdoc": {
    "kind": "user",
    "methods": {},
    "version": 1
  }
}