{
  "contractName": "ERC1155PresetMinterPauser",
  "abi": [
    {
      "inputs": [
        {
          "internalType": "string",
          "name": "uri",
          "type": "string"
        }
      ],
      "stateMutability": "nonpayable",
      "type": "constructor"
    },
    {
      "anonymous": false,
      "inputs": [
        {
          "indexed": true,
          "internalType": "address",
          "name": "account",
          "type": "address"
        },
        {
          "indexed": true,
          "internalType": "address",
          "name": "operator",
          "type": "address"
        },
        {
          "indexed": false,
          "internalType": "bool",
          "name": "approved",
          "type": "bool"
        }
      ],
      "name": "ApprovalForAll",
      "type": "event"
    },
    {
      "anonymous": false,
      "inputs": [
        {
          "indexed": false,
          "internalType": "address",
          "name": "account",
          "type": "address"
        }
      ],
      "name": "Paused",
      "type": "event"
    },
    {
      "anonymous": false,
      "inputs": [
        {
          "indexed": true,
          "internalType": "bytes32",
          "name": "role",
          "type": "bytes32"
        },
        {
          "indexed": true,
          "internalType": "bytes32",
          "name": "previousAdminRole",
          "type": "bytes32"
        },
        {
          "indexed": true,
          "internalType": "bytes32",
          "name": "newAdminRole",
          "type": "bytes32"
        }
      ],
      "name": "RoleAdminChanged",
      "type": "event"
    },
    {
      "anonymous": false,
      "inputs": [
        {
          "indexed": true,
          "internalType": "bytes32",
          "name": "role",
          "type": "bytes32"
        },
        {
          "indexed": true,
          "internalType": "address",
          "name": "account",
          "type": "address"
        },
        {
          "indexed": true,
          "internalType": "address",
          "name": "sender",
          "type": "address"
        }
      ],
      "name": "RoleGranted",
      "type": "event"
    },
    {
      "anonymous": false,
      "inputs": [
        {
          "indexed": true,
          "internalType": "bytes32",
          "name": "role",
          "type": "bytes32"
        },
        {
          "indexed": true,
          "internalType": "address",
          "name": "account",
          "type": "address"
        },
        {
          "indexed": true,
          "internalType": "address",
          "name": "sender",
          "type": "address"
        }
      ],
      "name": "RoleRevoked",
      "type": "event"
    },
    {
      "anonymous": false,
      "inputs": [
        {
          "indexed": true,
          "internalType": "address",
          "name": "operator",
          "type": "address"
        },
        {
          "indexed": true,
          "internalType": "address",
          "name": "from",
          "type": "address"
        },
        {
          "indexed": true,
          "internalType": "address",
          "name": "to",
          "type": "address"
        },
        {
          "indexed": false,
          "internalType": "uint256[]",
          "name": "ids",
          "type": "uint256[]"
        },
        {
          "indexed": false,
          "internalType": "uint256[]",
          "name": "values",
          "type": "uint256[]"
        }
      ],
      "name": "TransferBatch",
      "type": "event"
    },
    {
      "anonymous": false,
      "inputs": [
        {
          "indexed": true,
          "internalType": "address",
          "name": "operator",
          "type": "address"
        },
        {
          "indexed": true,
          "internalType": "address",
          "name": "from",
          "type": "address"
        },
        {
          "indexed": true,
          "internalType": "address",
          "name": "to",
          "type": "address"
        },
        {
          "indexed": false,
          "internalType": "uint256",
          "name": "id",
          "type": "uint256"
        },
        {
          "indexed": false,
          "internalType": "uint256",
          "name": "value",
          "type": "uint256"
        }
      ],
      "name": "TransferSingle",
      "type": "event"
    },
    {
      "anonymous": false,
      "inputs": [
        {
          "indexed": false,
          "internalType": "string",
          "name": "value",
          "type": "string"
        },
        {
          "indexed": true,
          "internalType": "uint256",
          "name": "id",
          "type": "uint256"
        }
      ],
      "name": "URI",
      "type": "event"
    },
    {
      "anonymous": false,
      "inputs": [
        {
          "indexed": false,
          "internalType": "address",
          "name": "account",
          "type": "address"
        }
      ],
      "name": "Unpaused",
      "type": "event"
    },
    {
      "inputs": [],
      "name": "DEFAULT_ADMIN_ROLE",
      "outputs": [
        {
          "internalType": "bytes32",
          "name": "",
          "type": "bytes32"
        }
      ],
      "stateMutability": "view",
      "type": "function"
    },
    {
      "inputs": [],
      "name": "MINTER_ROLE",
      "outputs": [
        {
          "internalType": "bytes32",
          "name": "",
          "type": "bytes32"
        }
      ],
      "stateMutability": "view",
      "type": "function"
    },
    {
      "inputs": [],
      "name": "PAUSER_ROLE",
      "outputs": [
        {
          "internalType": "bytes32",
          "name": "",
          "type": "bytes32"
        }
      ],
      "stateMutability": "view",
      "type": "function"
    },
    {
      "inputs": [
        {
          "internalType": "address",
          "name": "account",
          "type": "address"
        },
        {
          "internalType": "uint256",
          "name": "id",
          "type": "uint256"
        }
      ],
      "name": "balanceOf",
      "outputs": [
        {
          "internalType": "uint256",
          "name": "",
          "type": "uint256"
        }
      ],
      "stateMutability": "view",
      "type": "function"
    },
    {
      "inputs": [
        {
          "internalType": "address[]",
          "name": "accounts",
          "type": "address[]"
        },
        {
          "internalType": "uint256[]",
          "name": "ids",
          "type": "uint256[]"
        }
      ],
      "name": "balanceOfBatch",
      "outputs": [
        {
          "internalType": "uint256[]",
          "name": "",
          "type": "uint256[]"
        }
      ],
      "stateMutability": "view",
      "type": "function"
    },
    {
      "inputs": [
        {
          "internalType": "address",
          "name": "account",
          "type": "address"
        },
        {
          "internalType": "uint256",
          "name": "id",
          "type": "uint256"
        },
        {
          "internalType": "uint256",
          "name": "value",
          "type": "uint256"
        }
      ],
      "name": "burn",
      "outputs": [],
      "stateMutability": "nonpayable",
      "type": "function"
    },
    {
      "inputs": [
        {
          "internalType": "address",
          "name": "account",
          "type": "address"
        },
        {
          "internalType": "uint256[]",
          "name": "ids",
          "type": "uint256[]"
        },
        {
          "internalType": "uint256[]",
          "name": "values",
          "type": "uint256[]"
        }
      ],
      "name": "burnBatch",
      "outputs": [],
      "stateMutability": "nonpayable",
      "type": "function"
    },
    {
      "inputs": [
        {
          "internalType": "bytes32",
          "name": "role",
          "type": "bytes32"
        }
      ],
      "name": "getRoleAdmin",
      "outputs": [
        {
          "internalType": "bytes32",
          "name": "",
          "type": "bytes32"
        }
      ],
      "stateMutability": "view",
      "type": "function"
    },
    {
      "inputs": [
        {
          "internalType": "bytes32",
          "name": "role",
          "type": "bytes32"
        },
        {
          "internalType": "uint256",
          "name": "index",
          "type": "uint256"
        }
      ],
      "name": "getRoleMember",
      "outputs": [
        {
          "internalType": "address",
          "name": "",
          "type": "address"
        }
      ],
      "stateMutability": "view",
      "type": "function"
    },
    {
      "inputs": [
        {
          "internalType": "bytes32",
          "name": "role",
          "type": "bytes32"
        }
      ],
      "name": "getRoleMemberCount",
      "outputs": [
        {
          "internalType": "uint256",
          "name": "",
          "type": "uint256"
        }
      ],
      "stateMutability": "view",
      "type": "function"
    },
    {
      "inputs": [
        {
          "internalType": "bytes32",
          "name": "role",
          "type": "bytes32"
        },
        {
          "internalType": "address",
          "name": "account",
          "type": "address"
        }
      ],
      "name": "grantRole",
      "outputs": [],
      "stateMutability": "nonpayable",
      "type": "function"
    },
    {
      "inputs": [
        {
          "internalType": "bytes32",
          "name": "role",
          "type": "bytes32"
        },
        {
          "internalType": "address",
          "name": "account",
          "type": "address"
        }
      ],
      "name": "hasRole",
      "outputs": [
        {
          "internalType": "bool",
          "name": "",
          "type": "bool"
        }
      ],
      "stateMutability": "view",
      "type": "function"
    },
    {
      "inputs": [
        {
          "internalType": "address",
          "name": "account",
          "type": "address"
        },
        {
          "internalType": "address",
          "name": "operator",
          "type": "address"
        }
      ],
      "name": "isApprovedForAll",
      "outputs": [
        {
          "internalType": "bool",
          "name": "",
          "type": "bool"
        }
      ],
      "stateMutability": "view",
      "type": "function"
    },
    {
      "inputs": [],
      "name": "paused",
      "outputs": [
        {
          "internalType": "bool",
          "name": "",
          "type": "bool"
        }
      ],
      "stateMutability": "view",
      "type": "function"
    },
    {
      "inputs": [
        {
          "internalType": "bytes32",
          "name": "role",
          "type": "bytes32"
        },
        {
          "internalType": "address",
          "name": "account",
          "type": "address"
        }
      ],
      "name": "renounceRole",
      "outputs": [],
      "stateMutability": "nonpayable",
      "type": "function"
    },
    {
      "inputs": [
        {
          "internalType": "bytes32",
          "name": "role",
          "type": "bytes32"
        },
        {
          "internalType": "address",
          "name": "account",
          "type": "address"
        }
      ],
      "name": "revokeRole",
      "outputs": [],
      "stateMutability": "nonpayable",
      "type": "function"
    },
    {
      "inputs": [
        {
          "internalType": "address",
          "name": "from",
          "type": "address"
        },
        {
          "internalType": "address",
          "name": "to",
          "type": "address"
        },
        {
          "internalType": "uint256[]",
          "name": "ids",
          "type": "uint256[]"
        },
        {
          "internalType": "uint256[]",
          "name": "amounts",
          "type": "uint256[]"
        },
        {
          "internalType": "bytes",
          "name": "data",
          "type": "bytes"
        }
      ],
      "name": "safeBatchTransferFrom",
      "outputs": [],
      "stateMutability": "nonpayable",
      "type": "function"
    },
    {
      "inputs": [
        {
          "internalType": "address",
          "name": "from",
          "type": "address"
        },
        {
          "internalType": "address",
          "name": "to",
          "type": "address"
        },
        {
          "internalType": "uint256",
          "name": "id",
          "type": "uint256"
        },
        {
          "internalType": "uint256",
          "name": "amount",
          "type": "uint256"
        },
        {
          "internalType": "bytes",
          "name": "data",
          "type": "bytes"
        }
      ],
      "name": "safeTransferFrom",
      "outputs": [],
      "stateMutability": "nonpayable",
      "type": "function"
    },
    {
      "inputs": [
        {
          "internalType": "address",
          "name": "operator",
          "type": "address"
        },
        {
          "internalType": "bool",
          "name": "approved",
          "type": "bool"
        }
      ],
      "name": "setApprovalForAll",
      "outputs": [],
      "stateMutability": "nonpayable",
      "type": "function"
    },
    {
      "inputs": [
        {
          "internalType": "uint256",
          "name": "",
          "type": "uint256"
        }
      ],
      "name": "uri",
      "outputs": [
        {
          "internalType": "string",
          "name": "",
          "type": "string"
        }
      ],
      "stateMutability": "view",
      "type": "function"
    },
    {
      "inputs": [
        {
          "internalType": "address",
          "name": "to",
          "type": "address"
        },
        {
          "internalType": "uint256",
          "name": "id",
          "type": "uint256"
        },
        {
          "internalType": "uint256",
          "name": "amount",
          "type": "uint256"
        },
        {
          "internalType": "bytes",
          "name": "data",
          "type": "bytes"
        }
      ],
      "name": "mint",
      "outputs": [],
      "stateMutability": "nonpayable",
      "type": "function"
    },
    {
      "inputs": [
        {
          "internalType": "address",
          "name": "to",
          "type": "address"
        },
        {
          "internalType": "uint256[]",
          "name": "ids",
          "type": "uint256[]"
        },
        {
          "internalType": "uint256[]",
          "name": "amounts",
          "type": "uint256[]"
        },
        {
          "internalType": "bytes",
          "name": "data",
          "type": "bytes"
        }
      ],
      "name": "mintBatch",
      "outputs": [],
      "stateMutability": "nonpayable",
      "type": "function"
    },
    {
      "inputs": [],
      "name": "pause",
      "outputs": [],
      "stateMutability": "nonpayable",
      "type": "function"
    },
    {
      "inputs": [],
      "name": "unpause",
      "outputs": [],
      "stateMutability": "nonpayable",
      "type": "function"
    },
    {
      "inputs": [
        {
          "internalType": "bytes4",
          "name": "interfaceId",
          "type": "bytes4"
        }
      ],
      "name": "supportsInterface",
      "outputs": [
        {
          "internalType": "bool",
          "name": "",
          "type": "bool"
        }
      ],
      "stateMutability": "view",
      "type": "function"
    }
  ],
  "bytecode": "0x60806040523480156200001157600080fd5b50604051620052d0380380620052d08339818101604052810190620000379190620004f2565b8062000049816200011260201b60201c565b506000600560006101000a81548160ff021916908315150217905550620000896000801b6200007d6200012e60201b60201c565b6200013660201b60201c565b620000ca7f9f2df0fed2c77648de5860a4cc508cd0818c85b8b8a1ab4ceeef8d981c8956a6620000be6200012e60201b60201c565b6200013660201b60201c565b6200010b7f65d7a28e3265b37a6474929f336521b332c1681b933f6cb9f3376673440d862a620000ff6200012e60201b60201c565b6200013660201b60201c565b50620006c7565b80600490805190602001906200012a929190620003c4565b5050565b600033905090565b6200014882826200014c60201b60201c565b5050565b6200016382826200019460201b62000e791760201c565b6200018f81600160008581526020019081526020016000206200028560201b62000f591790919060201c565b505050565b620001a68282620002bd60201b60201c565b6200028157600160008084815260200190815260200160002060000160008373ffffffffffffffffffffffffffffffffffffffff1673ffffffffffffffffffffffffffffffffffffffff16815260200190815260200160002060006101000a81548160ff021916908315150217905550620002266200012e60201b60201c565b73ffffffffffffffffffffffffffffffffffffffff168173ffffffffffffffffffffffffffffffffffffffff16837f2f8788117e7eff1d82e926ec794901d17c78024a50270940304540a733656f0d60405160405180910390a45b5050565b6000620002b5836000018373ffffffffffffffffffffffffffffffffffffffff1660001b6200032760201b60201c565b905092915050565b600080600084815260200190815260200160002060000160008373ffffffffffffffffffffffffffffffffffffffff1673ffffffffffffffffffffffffffffffffffffffff16815260200190815260200160002060009054906101000a900460ff16905092915050565b60006200033b8383620003a160201b60201c565b620003965782600001829080600181540180825580915050600190039060005260206000200160009091909190915055826000018054905083600101600084815260200190815260200160002081905550600190506200039b565b600090505b92915050565b600080836001016000848152602001908152602001600020541415905092915050565b828054620003d290620005d8565b90600052602060002090601f016020900481019282620003f6576000855562000442565b82601f106200041157805160ff191683800117855562000442565b8280016001018555821562000442579182015b828111156200044157825182559160200191906001019062000424565b5b50905062000451919062000455565b5090565b5b808211156200047057600081600090555060010162000456565b5090565b60006200048b62000485846200056c565b62000543565b905082815260208101848484011115620004aa57620004a9620006a7565b5b620004b7848285620005a2565b509392505050565b600082601f830112620004d757620004d6620006a2565b5b8151620004e984826020860162000474565b91505092915050565b6000602082840312156200050b576200050a620006b1565b5b600082015167ffffffffffffffff8111156200052c576200052b620006ac565b5b6200053a84828501620004bf565b91505092915050565b60006200054f62000562565b90506200055d82826200060e565b919050565b6000604051905090565b600067ffffffffffffffff8211156200058a576200058962000673565b5b6200059582620006b6565b9050602081019050919050565b60005b83811015620005c2578082015181840152602081019050620005a5565b83811115620005d2576000848401525b50505050565b60006002820490506001821680620005f157607f821691505b6020821081141562000608576200060762000644565b5b50919050565b6200061982620006b6565b810181811067ffffffffffffffff821117156200063b576200063a62000673565b5b80604052505050565b7f4e487b7100000000000000000000000000000000000000000000000000000000600052602260045260246000fd5b7f4e487b7100000000000000000000000000000000000000000000000000000000600052604160045260246000fd5b600080fd5b600080fd5b600080fd5b600080fd5b6000601f19601f8301169050919050565b614bf980620006d76000396000f3fe608060405234801561001057600080fd5b50600436106101725760003560e01c8063731133e9116100de578063ca15c87311610097578063e63ab1e911610071578063e63ab1e914610445578063e985e9c514610463578063f242432a14610493578063f5298aca146104af57610172565b8063ca15c873146103db578063d53913931461040b578063d547741f1461042957610172565b8063731133e91461031b5780638456cb59146103375780639010d07c1461034157806391d1485414610371578063a217fddf146103a1578063a22cb465146103bf57610172565b80632f2ff15d116101305780632f2ff15d1461026f57806336568abe1461028b5780633f4ba83a146102a75780634e1273f4146102b15780635c975abb146102e15780636b20c454146102ff57610172565b8062fdd58e1461017757806301ffc9a7146101a75780630e89341c146101d75780631f7fdffa14610207578063248a9ca3146102235780632eb2c2d614610253575b600080fd5b610191600480360381019061018c9190613412565b6104cb565b60405161019e9190613f82565b60405180910390f35b6101c160048036038101906101bc919061364d565b610595565b6040516101ce9190613caa565b60405180910390f35b6101f160048036038101906101ec91906136a7565b6105a7565b6040516101fe9190613ce0565b60405180910390f35b610221600480360381019061021c9190613317565b61063b565b005b61023d600480360381019061023891906135a0565b6106bd565b60405161024a9190613cc5565b60405180910390f35b61026d60048036038101906102689190613126565b6106dc565b005b610289600480360381019061028491906135cd565b61077d565b005b6102a560048036038101906102a091906135cd565b61079e565b005b6102af610821565b005b6102cb60048036038101906102c69190613528565b61089b565b6040516102d89190613c51565b60405180910390f35b6102e96109b4565b6040516102f69190613caa565b60405180910390f35b6103196004803603810190610314919061328c565b6109cb565b005b610335600480360381019061033091906134a5565b610a68565b005b61033f610aea565b005b61035b6004803603810190610356919061360d565b610b64565b6040516103689190613b74565b60405180910390f35b61038b600480360381019061038691906135cd565b610b93565b6040516103989190613caa565b60405180910390f35b6103a9610bfd565b6040516103b69190613cc5565b60405180910390f35b6103d960048036038101906103d491906133d2565b610c04565b005b6103f560048036038101906103f091906135a0565b610c1a565b6040516104029190613f82565b60405180910390f35b610413610c3e565b6040516104209190613cc5565b60405180910390f35b610443600480360381019061043e91906135cd565b610c62565b005b61044d610c83565b60405161045a9190613cc5565b60405180910390f35b61047d600480360381019061047891906130e6565b610ca7565b60405161048a9190613caa565b60405180910390f35b6104ad60048036038101906104a891906131f5565b610d3b565b005b6104c960048036038101906104c49190613452565b610ddc565b005b60008073ffffffffffffffffffffffffffffffffffffffff168373ffffffffffffffffffffffffffffffffffffffff16141561053c576040517f08c379a000000000000000000000000000000000000000000000000000000000815260040161053390613de2565b60405180910390fd5b6002600083815260200190815260200160002060008473ffffffffffffffffffffffffffffffffffffffff1673ffffffffffffffffffffffffffffffffffffffff16815260200190815260200160002054905092915050565b60006105a082610f89565b9050919050565b6060600480546105b6906142be565b80601f01602080910402602001604051908101604052809291908181526020018280546105e2906142be565b801561062f5780601f106106045761010080835404028352916020019161062f565b820191906000526020600020905b81548152906001019060200180831161061257829003601f168201915b50505050509050919050565b61066c7f9f2df0fed2c77648de5860a4cc508cd0818c85b8b8a1ab4ceeef8d981c8956a661066761106b565b610b93565b6106ab576040517f08c379a00000000000000000000000000000000000000000000000000000000081526004016106a290613e62565b60405180910390fd5b6106b784848484611073565b50505050565b6000806000838152602001908152602001600020600101549050919050565b6106e461106b565b73ffffffffffffffffffffffffffffffffffffffff168573ffffffffffffffffffffffffffffffffffffffff16148061072a57506107298561072461106b565b610ca7565b5b610769576040517f08c379a000000000000000000000000000000000000000000000000000000000815260040161076090613d22565b60405180910390fd5b61077685858585856112a1565b5050505050565b610786826106bd565b61078f816115c6565b61079983836115da565b505050565b6107a661106b565b73ffffffffffffffffffffffffffffffffffffffff168173ffffffffffffffffffffffffffffffffffffffff1614610813576040517f08c379a000000000000000000000000000000000000000000000000000000000815260040161080a90613f62565b60405180910390fd5b61081d828261160e565b5050565b6108527f65d7a28e3265b37a6474929f336521b332c1681b933f6cb9f3376673440d862a61084d61106b565b610b93565b610891576040517f08c379a000000000000000000000000000000000000000000000000000000000815260040161088890613ea2565b60405180910390fd5b610899611642565b565b606081518351146108e1576040517f08c379a00000000000000000000000000000000000000000000000000000000081526004016108d890613f02565b60405180910390fd5b6000835167ffffffffffffffff8111156108fe576108fd614426565b5b60405190808252806020026020018201604052801561092c5781602001602082028036833780820191505090505b50905060005b84518110156109a957610979858281518110610951576109506143f7565b5b602002602001015185838151811061096c5761096b6143f7565b5b60200260200101516104cb565b82828151811061098c5761098b6143f7565b5b602002602001018181525050806109a290614321565b9050610932565b508091505092915050565b6000600560009054906101000a900460ff16905090565b6109d361106b565b73ffffffffffffffffffffffffffffffffffffffff168373ffffffffffffffffffffffffffffffffffffffff161480610a195750610a1883610a1361106b565b610ca7565b5b610a58576040517f08c379a0000000000000000000000000000000000000000000000000000000008152600401610a4f90613d22565b60405180910390fd5b610a638383836116a5565b505050565b610a997f9f2df0fed2c77648de5860a4cc508cd0818c85b8b8a1ab4ceeef8d981c8956a6610a9461106b565b610b93565b610ad8576040517f08c379a0000000000000000000000000000000000000000000000000000000008152600401610acf90613e62565b60405180910390fd5b610ae484848484611976565b50505050565b610b1b7f65d7a28e3265b37a6474929f336521b332c1681b933f6cb9f3376673440d862a610b1661106b565b610b93565b610b5a576040517f08c379a0000000000000000000000000000000000000000000000000000000008152600401610b5190613ec2565b60405180910390fd5b610b62611b28565b565b6000610b8b8260016000868152602001908152602001600020611b8b90919063ffffffff16565b905092915050565b600080600084815260200190815260200160002060000160008373ffffffffffffffffffffffffffffffffffffffff1673ffffffffffffffffffffffffffffffffffffffff16815260200190815260200160002060009054906101000a900460ff16905092915050565b6000801b81565b610c16610c0f61106b565b8383611ba5565b5050565b6000610c3760016000848152602001908152602001600020611d12565b9050919050565b7f9f2df0fed2c77648de5860a4cc508cd0818c85b8b8a1ab4ceeef8d981c8956a681565b610c6b826106bd565b610c74816115c6565b610c7e838361160e565b505050565b7f65d7a28e3265b37a6474929f336521b332c1681b933f6cb9f3376673440d862a81565b6000600360008473ffffffffffffffffffffffffffffffffffffffff1673ffffffffffffffffffffffffffffffffffffffff16815260200190815260200160002060008373ffffffffffffffffffffffffffffffffffffffff1673ffffffffffffffffffffffffffffffffffffffff16815260200190815260200160002060009054906101000a900460ff16905092915050565b610d4361106b565b73ffffffffffffffffffffffffffffffffffffffff168573ffffffffffffffffffffffffffffffffffffffff161480610d895750610d8885610d8361106b565b610ca7565b5b610dc8576040517f08c379a0000000000000000000000000000000000000000000000000000000008152600401610dbf90613d22565b60405180910390fd5b610dd58585858585611d27565b5050505050565b610de461106b565b73ffffffffffffffffffffffffffffffffffffffff168373ffffffffffffffffffffffffffffffffffffffff161480610e2a5750610e2983610e2461106b565b610ca7565b5b610e69576040517f08c379a0000000000000000000000000000000000000000000000000000000008152600401610e6090613d22565b60405180910390fd5b610e74838383611fc6565b505050565b610e838282610b93565b610f5557600160008084815260200190815260200160002060000160008373ffffffffffffffffffffffffffffffffffffffff1673ffffffffffffffffffffffffffffffffffffffff16815260200190815260200160002060006101000a81548160ff021916908315150217905550610efa61106b565b73ffffffffffffffffffffffffffffffffffffffff168173ffffffffffffffffffffffffffffffffffffffff16837f2f8788117e7eff1d82e926ec794901d17c78024a50270940304540a733656f0d60405160405180910390a45b5050565b6000610f81836000018373ffffffffffffffffffffffffffffffffffffffff1660001b61220f565b905092915050565b60007fd9b67a26000000000000000000000000000000000000000000000000000000007bffffffffffffffffffffffffffffffffffffffffffffffffffffffff1916827bffffffffffffffffffffffffffffffffffffffffffffffffffffffff1916148061105457507f0e89341c000000000000000000000000000000000000000000000000000000007bffffffffffffffffffffffffffffffffffffffffffffffffffffffff1916827bffffffffffffffffffffffffffffffffffffffffffffffffffffffff1916145b8061106457506110638261227f565b5b9050919050565b600033905090565b600073ffffffffffffffffffffffffffffffffffffffff168473ffffffffffffffffffffffffffffffffffffffff1614156110e3576040517f08c379a00000000000000000000000000000000000000000000000000000000081526004016110da90613f42565b60405180910390fd5b8151835114611127576040517f08c379a000000000000000000000000000000000000000000000000000000000815260040161111e90613f22565b60405180910390fd5b600061113161106b565b9050611142816000878787876122f9565b60005b84518110156111fc57838181518110611161576111606143f7565b5b6020026020010151600260008784815181106111805761117f6143f7565b5b6020026020010151815260200190815260200160002060008873ffffffffffffffffffffffffffffffffffffffff1673ffffffffffffffffffffffffffffffffffffffff16815260200190815260200160002060008282546111e291906140f0565b9250508190555080806111f490614321565b915050611145565b508473ffffffffffffffffffffffffffffffffffffffff16600073ffffffffffffffffffffffffffffffffffffffff168273ffffffffffffffffffffffffffffffffffffffff167f4a39dc06d4c0dbc64b70af90fd698a233a518aa5d07e595d983b8c0526c8f7fb8787604051611274929190613c73565b60405180910390a461128b8160008787878761230f565b61129a81600087878787612317565b5050505050565b81518351146112e5576040517f08c379a00000000000000000000000000000000000000000000000000000000081526004016112dc90613f22565b60405180910390fd5b600073ffffffffffffffffffffffffffffffffffffffff168473ffffffffffffffffffffffffffffffffffffffff161415611355576040517f08c379a000000000000000000000000000000000000000000000000000000000815260040161134c90613e22565b60405180910390fd5b600061135f61106b565b905061136f8187878787876122f9565b60005b84518110156115235760008582815181106113905761138f6143f7565b5b6020026020010151905060008583815181106113af576113ae6143f7565b5b6020026020010151905060006002600084815260200190815260200160002060008b73ffffffffffffffffffffffffffffffffffffffff1673ffffffffffffffffffffffffffffffffffffffff16815260200190815260200160002054905081811015611451576040517f08c379a000000000000000000000000000000000000000000000000000000000815260040161144890613e82565b60405180910390fd5b8181036002600085815260200190815260200160002060008c73ffffffffffffffffffffffffffffffffffffffff1673ffffffffffffffffffffffffffffffffffffffff16815260200190815260200160002081905550816002600085815260200190815260200160002060008b73ffffffffffffffffffffffffffffffffffffffff1673ffffffffffffffffffffffffffffffffffffffff168152602001908152602001600020600082825461150891906140f0565b925050819055505050508061151c90614321565b9050611372565b508473ffffffffffffffffffffffffffffffffffffffff168673ffffffffffffffffffffffffffffffffffffffff168273ffffffffffffffffffffffffffffffffffffffff167f4a39dc06d4c0dbc64b70af90fd698a233a518aa5d07e595d983b8c0526c8f7fb878760405161159a929190613c73565b60405180910390a46115b081878787878761230f565b6115be818787878787612317565b505050505050565b6115d7816115d261106b565b6124fe565b50565b6115e48282610e79565b6116098160016000858152602001908152602001600020610f5990919063ffffffff16565b505050565b611618828261259b565b61163d816001600085815260200190815260200160002061267c90919063ffffffff16565b505050565b61164a6126ac565b6000600560006101000a81548160ff0219169083151502179055507f5db9ee0a495bf2e6ff9c91a7834c1ba4fdd244a5e8aa4e537bd38aeae4b073aa61168e61106b565b60405161169b9190613b74565b60405180910390a1565b600073ffffffffffffffffffffffffffffffffffffffff168373ffffffffffffffffffffffffffffffffffffffff161415611715576040517f08c379a000000000000000000000000000000000000000000000000000000000815260040161170c90613e42565b60405180910390fd5b8051825114611759576040517f08c379a000000000000000000000000000000000000000000000000000000000815260040161175090613f22565b60405180910390fd5b600061176361106b565b9050611783818560008686604051806020016040528060008152506122f9565b60005b83518110156118d25760008482815181106117a4576117a36143f7565b5b6020026020010151905060008483815181106117c3576117c26143f7565b5b6020026020010151905060006002600084815260200190815260200160002060008973ffffffffffffffffffffffffffffffffffffffff1673ffffffffffffffffffffffffffffffffffffffff16815260200190815260200160002054905081811015611865576040517f08c379a000000000000000000000000000000000000000000000000000000000815260040161185c90613da2565b60405180910390fd5b8181036002600085815260200190815260200160002060008a73ffffffffffffffffffffffffffffffffffffffff1673ffffffffffffffffffffffffffffffffffffffff1681526020019081526020016000208190555050505080806118ca90614321565b915050611786565b50600073ffffffffffffffffffffffffffffffffffffffff168473ffffffffffffffffffffffffffffffffffffffff168273ffffffffffffffffffffffffffffffffffffffff167f4a39dc06d4c0dbc64b70af90fd698a233a518aa5d07e595d983b8c0526c8f7fb868660405161194a929190613c73565b60405180910390a46119708185600086866040518060200160405280600081525061230f565b50505050565b600073ffffffffffffffffffffffffffffffffffffffff168473ffffffffffffffffffffffffffffffffffffffff1614156119e6576040517f08c379a00000000000000000000000000000000000000000000000000000000081526004016119dd90613f42565b60405180910390fd5b60006119f061106b565b905060006119fd856126f5565b90506000611a0a856126f5565b9050611a1b836000898585896122f9565b846002600088815260200190815260200160002060008973ffffffffffffffffffffffffffffffffffffffff1673ffffffffffffffffffffffffffffffffffffffff1681526020019081526020016000206000828254611a7b91906140f0565b925050819055508673ffffffffffffffffffffffffffffffffffffffff16600073ffffffffffffffffffffffffffffffffffffffff168473ffffffffffffffffffffffffffffffffffffffff167fc3d58168c5ae7397731d063d5bbf3d657854427343f4c083240f7aacaa2d0f628989604051611af9929190613f9d565b60405180910390a4611b108360008985858961230f565b611b1f8360008989898961276f565b50505050505050565b611b30612956565b6001600560006101000a81548160ff0219169083151502179055507f62e78cea01bee320cd4e420270b5ea74000d11b0c9f74754ebdbfc544b05a258611b7461106b565b604051611b819190613b74565b60405180910390a1565b6000611b9a83600001836129a0565b60001c905092915050565b8173ffffffffffffffffffffffffffffffffffffffff168373ffffffffffffffffffffffffffffffffffffffff161415611c14576040517f08c379a0000000000000000000000000000000000000000000000000000000008152600401611c0b90613ee2565b60405180910390fd5b80600360008573ffffffffffffffffffffffffffffffffffffffff1673ffffffffffffffffffffffffffffffffffffffff16815260200190815260200160002060008473ffffffffffffffffffffffffffffffffffffffff1673ffffffffffffffffffffffffffffffffffffffff16815260200190815260200160002060006101000a81548160ff0219169083151502179055508173ffffffffffffffffffffffffffffffffffffffff168373ffffffffffffffffffffffffffffffffffffffff167f17307eab39ab6107e8899845ad3d59bd9653f200f220920489ca2b5937696c3183604051611d059190613caa565b60405180910390a3505050565b6000611d20826000016129cb565b9050919050565b600073ffffffffffffffffffffffffffffffffffffffff168473ffffffffffffffffffffffffffffffffffffffff161415611d97576040517f08c379a0000000000000000000000000000000000000000000000000000000008152600401611d8e90613e22565b60405180910390fd5b6000611da161106b565b90506000611dae856126f5565b90506000611dbb856126f5565b9050611dcb8389898585896122f9565b60006002600088815260200190815260200160002060008a73ffffffffffffffffffffffffffffffffffffffff1673ffffffffffffffffffffffffffffffffffffffff16815260200190815260200160002054905085811015611e63576040517f08c379a0000000000000000000000000000000000000000000000000000000008152600401611e5a90613e82565b60405180910390fd5b8581036002600089815260200190815260200160002060008b73ffffffffffffffffffffffffffffffffffffffff1673ffffffffffffffffffffffffffffffffffffffff16815260200190815260200160002081905550856002600089815260200190815260200160002060008a73ffffffffffffffffffffffffffffffffffffffff1673ffffffffffffffffffffffffffffffffffffffff1681526020019081526020016000206000828254611f1a91906140f0565b925050819055508773ffffffffffffffffffffffffffffffffffffffff168973ffffffffffffffffffffffffffffffffffffffff168573ffffffffffffffffffffffffffffffffffffffff167fc3d58168c5ae7397731d063d5bbf3d657854427343f4c083240f7aacaa2d0f628a8a604051611f97929190613f9d565b60405180910390a4611fad848a8a86868a61230f565b611fbb848a8a8a8a8a61276f565b505050505050505050565b600073ffffffffffffffffffffffffffffffffffffffff168373ffffffffffffffffffffffffffffffffffffffff161415612036576040517f08c379a000000000000000000000000000000000000000000000000000000000815260040161202d90613e42565b60405180910390fd5b600061204061106b565b9050600061204d846126f5565b9050600061205a846126f5565b905061207a838760008585604051806020016040528060008152506122f9565b60006002600087815260200190815260200160002060008873ffffffffffffffffffffffffffffffffffffffff1673ffffffffffffffffffffffffffffffffffffffff16815260200190815260200160002054905084811015612112576040517f08c379a000000000000000000000000000000000000000000000000000000000815260040161210990613da2565b60405180910390fd5b8481036002600088815260200190815260200160002060008973ffffffffffffffffffffffffffffffffffffffff1673ffffffffffffffffffffffffffffffffffffffff16815260200190815260200160002081905550600073ffffffffffffffffffffffffffffffffffffffff168773ffffffffffffffffffffffffffffffffffffffff168573ffffffffffffffffffffffffffffffffffffffff167fc3d58168c5ae7397731d063d5bbf3d657854427343f4c083240f7aacaa2d0f6289896040516121e0929190613f9d565b60405180910390a46122068488600086866040518060200160405280600081525061230f565b50505050505050565b600061221b83836129dc565b612274578260000182908060018154018082558091505060019003906000526020600020016000909190919091505582600001805490508360010160008481526020019081526020016000208190555060019050612279565b600090505b92915050565b60007f5a05180f000000000000000000000000000000000000000000000000000000007bffffffffffffffffffffffffffffffffffffffffffffffffffffffff1916827bffffffffffffffffffffffffffffffffffffffffffffffffffffffff191614806122f257506122f1826129ff565b5b9050919050565b612307868686868686612a79565b505050505050565b505050505050565b6123368473ffffffffffffffffffffffffffffffffffffffff16612ad7565b156124f6578373ffffffffffffffffffffffffffffffffffffffff1663bc197c8187878686866040518663ffffffff1660e01b815260040161237c959493929190613b8f565b602060405180830381600087803b15801561239657600080fd5b505af19250505080156123c757506040513d601f19601f820116820180604052508101906123c4919061367a565b60015b61246d576123d3614455565b806308c379a0141561243057506123e8614aba565b806123f35750612432565b806040517f08c379a00000000000000000000000000000000000000000000000000000000081526004016124279190613ce0565b60405180910390fd5b505b6040517f08c379a000000000000000000000000000000000000000000000000000000000815260040161246490613d02565b60405180910390fd5b63bc197c8160e01b7bffffffffffffffffffffffffffffffffffffffffffffffffffffffff1916817bffffffffffffffffffffffffffffffffffffffffffffffffffffffff1916146124f4576040517f08c379a00000000000000000000000000000000000000000000000000000000081526004016124eb90613d62565b60405180910390fd5b505b505050505050565b6125088282610b93565b6125975761252d8173ffffffffffffffffffffffffffffffffffffffff166014612afa565b61253b8360001c6020612afa565b60405160200161254c929190613b3a565b6040516020818303038152906040526040517f08c379a000000000000000000000000000000000000000000000000000000000815260040161258e9190613ce0565b60405180910390fd5b5050565b6125a58282610b93565b1561267857600080600084815260200190815260200160002060000160008373ffffffffffffffffffffffffffffffffffffffff1673ffffffffffffffffffffffffffffffffffffffff16815260200190815260200160002060006101000a81548160ff02191690831515021790555061261d61106b565b73ffffffffffffffffffffffffffffffffffffffff168173ffffffffffffffffffffffffffffffffffffffff16837ff6391f5c32d9c69d2a47ea670b442974b53935d1edc7fd64eb21e047a839171b60405160405180910390a45b5050565b60006126a4836000018373ffffffffffffffffffffffffffffffffffffffff1660001b612d36565b905092915050565b6126b46109b4565b6126f3576040517f08c379a00000000000000000000000000000000000000000000000000000000081526004016126ea90613d82565b60405180910390fd5b565b60606000600167ffffffffffffffff81111561271457612713614426565b5b6040519080825280602002602001820160405280156127425781602001602082028036833780820191505090505b509050828160008151811061275a576127596143f7565b5b60200260200101818152505080915050919050565b61278e8473ffffffffffffffffffffffffffffffffffffffff16612ad7565b1561294e578373ffffffffffffffffffffffffffffffffffffffff1663f23a6e6187878686866040518663ffffffff1660e01b81526004016127d4959493929190613bf7565b602060405180830381600087803b1580156127ee57600080fd5b505af192505050801561281f57506040513d601f19601f8201168201806040525081019061281c919061367a565b60015b6128c55761282b614455565b806308c379a014156128885750612840614aba565b8061284b575061288a565b806040517f08c379a000000000000000000000000000000000000000000000000000000000815260040161287f9190613ce0565b60405180910390fd5b505b6040517f08c379a00000000000000000000000000000000000000000000000000000000081526004016128bc90613d02565b60405180910390fd5b63f23a6e6160e01b7bffffffffffffffffffffffffffffffffffffffffffffffffffffffff1916817bffffffffffffffffffffffffffffffffffffffffffffffffffffffff19161461294c576040517f08c379a000000000000000000000000000000000000000000000000000000000815260040161294390613d62565b60405180910390fd5b505b505050505050565b61295e6109b4565b1561299e576040517f08c379a000000000000000000000000000000000000000000000000000000000815260040161299590613e02565b60405180910390fd5b565b60008260000182815481106129b8576129b76143f7565b5b9060005260206000200154905092915050565b600081600001805490509050919050565b600080836001016000848152602001908152602001600020541415905092915050565b60007f7965db0b000000000000000000000000000000000000000000000000000000007bffffffffffffffffffffffffffffffffffffffffffffffffffffffff1916827bffffffffffffffffffffffffffffffffffffffffffffffffffffffff19161480612a725750612a7182612e4a565b5b9050919050565b612a87868686868686612eb4565b612a8f6109b4565b15612acf576040517f08c379a0000000000000000000000000000000000000000000000000000000008152600401612ac690613dc2565b60405180910390fd5b505050505050565b6000808273ffffffffffffffffffffffffffffffffffffffff163b119050919050565b606060006002836002612b0d9190614146565b612b1791906140f0565b67ffffffffffffffff811115612b3057612b2f614426565b5b6040519080825280601f01601f191660200182016040528015612b625781602001600182028036833780820191505090505b5090507f300000000000000000000000000000000000000000000000000000000000000081600081518110612b9a57612b996143f7565b5b60200101907effffffffffffffffffffffffffffffffffffffffffffffffffffffffffffff1916908160001a9053507f780000000000000000000000000000000000000000000000000000000000000081600181518110612bfe57612bfd6143f7565b5b60200101907effffffffffffffffffffffffffffffffffffffffffffffffffffffffffffff1916908160001a90535060006001846002612c3e9190614146565b612c4891906140f0565b90505b6001811115612ce8577f3031323334353637383961626364656600000000000000000000000000000000600f861660108110612c8a57612c896143f7565b5b1a60f81b828281518110612ca157612ca06143f7565b5b60200101907effffffffffffffffffffffffffffffffffffffffffffffffffffffffffffff1916908160001a905350600485901c945080612ce190614294565b9050612c4b565b5060008414612d2c576040517f08c379a0000000000000000000000000000000000000000000000000000000008152600401612d2390613d42565b60405180910390fd5b8091505092915050565b60008083600101600084815260200190815260200160002054905060008114612e3e576000600182612d6891906141a0565b9050600060018660000180549050612d8091906141a0565b9050818114612def576000866000018281548110612da157612da06143f7565b5b9060005260206000200154905080876000018481548110612dc557612dc46143f7565b5b90600052602060002001819055508387600101600083815260200190815260200160002081905550505b85600001805480612e0357612e026143c8565b5b600190038181906000526020600020016000905590558560010160008681526020019081526020016000206000905560019350505050612e44565b60009150505b92915050565b60007f01ffc9a7000000000000000000000000000000000000000000000000000000007bffffffffffffffffffffffffffffffffffffffffffffffffffffffff1916827bffffffffffffffffffffffffffffffffffffffffffffffffffffffff1916149050919050565b505050505050565b6000612ecf612eca84613feb565b613fc6565b90508083825260208201905082856020860282011115612ef257612ef161447c565b5b60005b85811015612f225781612f088882612fde565b845260208401935060208301925050600181019050612ef5565b5050509392505050565b6000612f3f612f3a84614017565b613fc6565b90508083825260208201905082856020860282011115612f6257612f6161447c565b5b60005b85811015612f925781612f7888826130d1565b845260208401935060208301925050600181019050612f65565b5050509392505050565b6000612faf612faa84614043565b613fc6565b905082815260208101848484011115612fcb57612fca614481565b5b612fd6848285614252565b509392505050565b600081359050612fed81614b50565b92915050565b600082601f83011261300857613007614477565b5b8135613018848260208601612ebc565b91505092915050565b600082601f83011261303657613035614477565b5b8135613046848260208601612f2c565b91505092915050565b60008135905061305e81614b67565b92915050565b60008135905061307381614b7e565b92915050565b60008135905061308881614b95565b92915050565b60008151905061309d81614b95565b92915050565b600082601f8301126130b8576130b7614477565b5b81356130c8848260208601612f9c565b91505092915050565b6000813590506130e081614bac565b92915050565b600080604083850312156130fd576130fc61448b565b5b600061310b85828601612fde565b925050602061311c85828601612fde565b9150509250929050565b600080600080600060a086880312156131425761314161448b565b5b600061315088828901612fde565b955050602061316188828901612fde565b945050604086013567ffffffffffffffff81111561318257613181614486565b5b61318e88828901613021565b935050606086013567ffffffffffffffff8111156131af576131ae614486565b5b6131bb88828901613021565b925050608086013567ffffffffffffffff8111156131dc576131db614486565b5b6131e8888289016130a3565b9150509295509295909350565b600080600080600060a086880312156132115761321061448b565b5b600061321f88828901612fde565b955050602061323088828901612fde565b9450506040613241888289016130d1565b9350506060613252888289016130d1565b925050608086013567ffffffffffffffff81111561327357613272614486565b5b61327f888289016130a3565b9150509295509295909350565b6000806000606084860312156132a5576132a461448b565b5b60006132b386828701612fde565b935050602084013567ffffffffffffffff8111156132d4576132d3614486565b5b6132e086828701613021565b925050604084013567ffffffffffffffff81111561330157613300614486565b5b61330d86828701613021565b9150509250925092565b600080600080608085870312156133315761333061448b565b5b600061333f87828801612fde565b945050602085013567ffffffffffffffff8111156133605761335f614486565b5b61336c87828801613021565b935050604085013567ffffffffffffffff81111561338d5761338c614486565b5b61339987828801613021565b925050606085013567ffffffffffffffff8111156133ba576133b9614486565b5b6133c6878288016130a3565b91505092959194509250565b600080604083850312156133e9576133e861448b565b5b60006133f785828601612fde565b92505060206134088582860161304f565b9150509250929050565b600080604083850312156134295761342861448b565b5b600061343785828601612fde565b9250506020613448858286016130d1565b9150509250929050565b60008060006060848603121561346b5761346a61448b565b5b600061347986828701612fde565b935050602061348a868287016130d1565b925050604061349b868287016130d1565b9150509250925092565b600080600080608085870312156134bf576134be61448b565b5b60006134cd87828801612fde565b94505060206134de878288016130d1565b93505060406134ef878288016130d1565b925050606085013567ffffffffffffffff8111156135105761350f614486565b5b61351c878288016130a3565b91505092959194509250565b6000806040838503121561353f5761353e61448b565b5b600083013567ffffffffffffffff81111561355d5761355c614486565b5b61356985828601612ff3565b925050602083013567ffffffffffffffff81111561358a57613589614486565b5b61359685828601613021565b9150509250929050565b6000602082840312156135b6576135b561448b565b5b60006135c484828501613064565b91505092915050565b600080604083850312156135e4576135e361448b565b5b60006135f285828601613064565b925050602061360385828601612fde565b9150509250929050565b600080604083850312156136245761362361448b565b5b600061363285828601613064565b9250506020613643858286016130d1565b9150509250929050565b6000602082840312156136635761366261448b565b5b600061367184828501613079565b91505092915050565b6000602082840312156136905761368f61448b565b5b600061369e8482850161308e565b91505092915050565b6000602082840312156136bd576136bc61448b565b5b60006136cb848285016130d1565b91505092915050565b60006136e08383613b1c565b60208301905092915050565b6136f5816141d4565b82525050565b600061370682614084565b61371081856140b2565b935061371b83614074565b8060005b8381101561374c57815161373388826136d4565b975061373e836140a5565b92505060018101905061371f565b5085935050505092915050565b613762816141e6565b82525050565b613771816141f2565b82525050565b60006137828261408f565b61378c81856140c3565b935061379c818560208601614261565b6137a581614490565b840191505092915050565b60006137bb8261409a565b6137c581856140d4565b93506137d5818560208601614261565b6137de81614490565b840191505092915050565b60006137f48261409a565b6137fe81856140e5565b935061380e818560208601614261565b80840191505092915050565b60006138276034836140d4565b9150613832826144ae565b604082019050919050565b600061384a602f836140d4565b9150613855826144fd565b604082019050919050565b600061386d6020836140d4565b91506138788261454c565b602082019050919050565b60006138906028836140d4565b915061389b82614575565b604082019050919050565b60006138b36014836140d4565b91506138be826145c4565b602082019050919050565b60006138d66024836140d4565b91506138e1826145ed565b604082019050919050565b60006138f9602c836140d4565b91506139048261463c565b604082019050919050565b600061391c602a836140d4565b91506139278261468b565b604082019050919050565b600061393f6010836140d4565b915061394a826146da565b602082019050919050565b60006139626025836140d4565b915061396d82614703565b604082019050919050565b60006139856023836140d4565b915061399082614752565b604082019050919050565b60006139a86038836140d4565b91506139b3826147a1565b604082019050919050565b60006139cb602a836140d4565b91506139d6826147f0565b604082019050919050565b60006139ee603b836140d4565b91506139f98261483f565b604082019050919050565b6000613a116039836140d4565b9150613a1c8261488e565b604082019050919050565b6000613a346017836140e5565b9150613a3f826148dd565b601782019050919050565b6000613a576029836140d4565b9150613a6282614906565b604082019050919050565b6000613a7a6029836140d4565b9150613a8582614955565b604082019050919050565b6000613a9d6028836140d4565b9150613aa8826149a4565b604082019050919050565b6000613ac06021836140d4565b9150613acb826149f3565b604082019050919050565b6000613ae36011836140e5565b9150613aee82614a42565b601182019050919050565b6000613b06602f836140d4565b9150613b1182614a6b565b604082019050919050565b613b2581614248565b82525050565b613b3481614248565b82525050565b6000613b4582613a27565b9150613b5182856137e9565b9150613b5c82613ad6565b9150613b6882846137e9565b91508190509392505050565b6000602082019050613b8960008301846136ec565b92915050565b600060a082019050613ba460008301886136ec565b613bb160208301876136ec565b8181036040830152613bc381866136fb565b90508181036060830152613bd781856136fb565b90508181036080830152613beb8184613777565b90509695505050505050565b600060a082019050613c0c60008301886136ec565b613c1960208301876136ec565b613c266040830186613b2b565b613c336060830185613b2b565b8181036080830152613c458184613777565b90509695505050505050565b60006020820190508181036000830152613c6b81846136fb565b905092915050565b60006040820190508181036000830152613c8d81856136fb565b90508181036020830152613ca181846136fb565b90509392505050565b6000602082019050613cbf6000830184613759565b92915050565b6000602082019050613cda6000830184613768565b92915050565b60006020820190508181036000830152613cfa81846137b0565b905092915050565b60006020820190508181036000830152613d1b8161381a565b9050919050565b60006020820190508181036000830152613d3b8161383d565b9050919050565b60006020820190508181036000830152613d5b81613860565b9050919050565b60006020820190508181036000830152613d7b81613883565b9050919050565b60006020820190508181036000830152613d9b816138a6565b9050919050565b60006020820190508181036000830152613dbb816138c9565b9050919050565b60006020820190508181036000830152613ddb816138ec565b9050919050565b60006020820190508181036000830152613dfb8161390f565b9050919050565b60006020820190508181036000830152613e1b81613932565b9050919050565b60006020820190508181036000830152613e3b81613955565b9050919050565b60006020820190508181036000830152613e5b81613978565b9050919050565b60006020820190508181036000830152613e7b8161399b565b9050919050565b60006020820190508181036000830152613e9b816139be565b9050919050565b60006020820190508181036000830152613ebb816139e1565b9050919050565b60006020820190508181036000830152613edb81613a04565b9050919050565b60006020820190508181036000830152613efb81613a4a565b9050919050565b60006020820190508181036000830152613f1b81613a6d565b9050919050565b60006020820190508181036000830152613f3b81613a90565b9050919050565b60006020820190508181036000830152613f5b81613ab3565b9050919050565b60006020820190508181036000830152613f7b81613af9565b9050919050565b6000602082019050613f976000830184613b2b565b92915050565b6000604082019050613fb26000830185613b2b565b613fbf6020830184613b2b565b9392505050565b6000613fd0613fe1565b9050613fdc82826142f0565b919050565b6000604051905090565b600067ffffffffffffffff82111561400657614005614426565b5b602082029050602081019050919050565b600067ffffffffffffffff82111561403257614031614426565b5b602082029050602081019050919050565b600067ffffffffffffffff82111561405e5761405d614426565b5b61406782614490565b9050602081019050919050565b6000819050602082019050919050565b600081519050919050565b600081519050919050565b600081519050919050565b6000602082019050919050565b600082825260208201905092915050565b600082825260208201905092915050565b600082825260208201905092915050565b600081905092915050565b60006140fb82614248565b915061410683614248565b9250827fffffffffffffffffffffffffffffffffffffffffffffffffffffffffffffffff0382111561413b5761413a61436a565b5b828201905092915050565b600061415182614248565b915061415c83614248565b9250817fffffffffffffffffffffffffffffffffffffffffffffffffffffffffffffffff04831182151516156141955761419461436a565b5b828202905092915050565b60006141ab82614248565b91506141b683614248565b9250828210156141c9576141c861436a565b5b828203905092915050565b60006141df82614228565b9050919050565b60008115159050919050565b6000819050919050565b60007fffffffff0000000000000000000000000000000000000000000000000000000082169050919050565b600073ffffffffffffffffffffffffffffffffffffffff82169050919050565b6000819050919050565b82818337600083830152505050565b60005b8381101561427f578082015181840152602081019050614264565b8381111561428e576000848401525b50505050565b600061429f82614248565b915060008214156142b3576142b261436a565b5b600182039050919050565b600060028204905060018216806142d657607f821691505b602082108114156142ea576142e9614399565b5b50919050565b6142f982614490565b810181811067ffffffffffffffff8211171561431857614317614426565b5b80604052505050565b600061432c82614248565b91507fffffffffffffffffffffffffffffffffffffffffffffffffffffffffffffffff82141561435f5761435e61436a565b5b600182019050919050565b7f4e487b7100000000000000000000000000000000000000000000000000000000600052601160045260246000fd5b7f4e487b7100000000000000000000000000000000000000000000000000000000600052602260045260246000fd5b7f4e487b7100000000000000000000000000000000000000000000000000000000600052603160045260246000fd5b7f4e487b7100000000000000000000000000000000000000000000000000000000600052603260045260246000fd5b7f4e487b7100000000000000000000000000000000000000000000000000000000600052604160045260246000fd5b600060033d11156144745760046000803e6144716000516144a1565b90505b90565b600080fd5b600080fd5b600080fd5b600080fd5b600080fd5b6000601f19601f8301169050919050565b60008160e01c9050919050565b7f455243313135353a207472616e7366657220746f206e6f6e204552433131353560008201527f526563656976657220696d706c656d656e746572000000000000000000000000602082015250565b7f455243313135353a2063616c6c6572206973206e6f7420746f6b656e206f776e60008201527f6572206e6f7220617070726f7665640000000000000000000000000000000000602082015250565b7f537472696e67733a20686578206c656e67746820696e73756666696369656e74600082015250565b7f455243313135353a204552433131353552656365697665722072656a6563746560008201527f6420746f6b656e73000000000000000000000000000000000000000000000000602082015250565b7f5061757361626c653a206e6f7420706175736564000000000000000000000000600082015250565b7f455243313135353a206275726e20616d6f756e7420657863656564732062616c60008201527f616e636500000000000000000000000000000000000000000000000000000000602082015250565b7f455243313135355061757361626c653a20746f6b656e207472616e736665722060008201527f7768696c65207061757365640000000000000000000000000000000000000000602082015250565b7f455243313135353a2061646472657373207a65726f206973206e6f742061207660008201527f616c6964206f776e657200000000000000000000000000000000000000000000602082015250565b7f5061757361626c653a2070617573656400000000000000000000000000000000600082015250565b7f455243313135353a207472616e7366657220746f20746865207a65726f20616460008201527f6472657373000000000000000000000000000000000000000000000000000000602082015250565b7f455243313135353a206275726e2066726f6d20746865207a65726f206164647260008201527f6573730000000000000000000000000000000000000000000000000000000000602082015250565b7f455243313135355072657365744d696e7465725061757365723a206d7573742060008201527f68617665206d696e74657220726f6c6520746f206d696e740000000000000000602082015250565b7f455243313135353a20696e73756666696369656e742062616c616e636520666f60008201527f72207472616e7366657200000000000000000000000000000000000000000000602082015250565b7f455243313135355072657365744d696e7465725061757365723a206d7573742060008201527f686176652070617573657220726f6c6520746f20756e70617573650000000000602082015250565b7f455243313135355072657365744d696e7465725061757365723a206d7573742060008201527f686176652070617573657220726f6c6520746f20706175736500000000000000602082015250565b7f416363657373436f6e74726f6c3a206163636f756e7420000000000000000000600082015250565b7f455243313135353a2073657474696e6720617070726f76616c2073746174757360008201527f20666f722073656c660000000000000000000000000000000000000000000000602082015250565b7f455243313135353a206163636f756e747320616e6420696473206c656e67746860008201527f206d69736d617463680000000000000000000000000000000000000000000000602082015250565b7f455243313135353a2069647320616e6420616d6f756e7473206c656e6774682060008201527f6d69736d61746368000000000000000000000000000000000000000000000000602082015250565b7f455243313135353a206d696e7420746f20746865207a65726f2061646472657360008201527f7300000000000000000000000000000000000000000000000000000000000000602082015250565b7f206973206d697373696e6720726f6c6520000000000000000000000000000000600082015250565b7f416363657373436f6e74726f6c3a2063616e206f6e6c792072656e6f756e636560008201527f20726f6c657320666f722073656c660000000000000000000000000000000000602082015250565b600060443d1015614aca57614b4d565b614ad2613fe1565b60043d036004823e80513d602482011167ffffffffffffffff82111715614afa575050614b4d565b808201805167ffffffffffffffff811115614b185750505050614b4d565b80602083010160043d038501811115614b35575050505050614b4d565b614b44826020018501866142f0565b82955050505050505b90565b614b59816141d4565b8114614b6457600080fd5b50565b614b70816141e6565b8114614b7b57600080fd5b50565b614b87816141f2565b8114614b9257600080fd5b50565b614b9e816141fc565b8114614ba957600080fd5b50565b614bb581614248565b8114614bc057600080fd5b5056fea26469706673582212202c48f62b6845dde82e6afa55f1aae943c468d7842f6eb1e1060c69e75e558bc164736f6c63430008060033",
  "immutableReferences": {},
  "source": "// SPDX-License-Identifier: MIT\n// OpenZeppelin Contracts (last updated v4.5.0) (token/ERC1155/presets/ERC1155PresetMinterPauser.sol)\n\npragma solidity ^0.8.0;\n\nimport \"../ERC1155.sol\";\nimport \"../extensions/ERC1155Burnable.sol\";\nimport \"../extensions/ERC1155Pausable.sol\";\nimport \"../../../access/AccessControlEnumerable.sol\";\nimport \"../../../utils/Context.sol\";\n\n/**\n * @dev {ERC1155} token, including:\n *\n *  - ability for holders to burn (destroy) their tokens\n *  - a minter role that allows for token minting (creation)\n *  - a pauser role that allows to stop all token transfers\n *\n * This contract uses {AccessControl} to lock permissioned functions using the\n * different roles - head to its documentation for details.\n *\n * The account that deploys the contract will be granted the minter and pauser\n * roles, as well as the default admin role, which will let it grant both minter\n * and pauser roles to other accounts.\n *\n * _Deprecated in favor of https://wizard.openzeppelin.com/[Contracts Wizard]._\n */\ncontract ERC1155PresetMinterPauser is Context, AccessControlEnumerable, ERC1155Burnable, ERC1155Pausable {\n    bytes32 public constant MINTER_ROLE = keccak256(\"MINTER_ROLE\");\n    bytes32 public constant PAUSER_ROLE = keccak256(\"PAUSER_ROLE\");\n\n    /**\n     * @dev Grants `DEFAULT_ADMIN_ROLE`, `MINTER_ROLE`, and `PAUSER_ROLE` to the account that\n     * deploys the contract.\n     */\n    constructor(string memory uri) ERC1155(uri) {\n        _setupRole(DEFAULT_ADMIN_ROLE, _msgSender());\n\n        _setupRole(MINTER_ROLE, _msgSender());\n        _setupRole(PAUSER_ROLE, _msgSender());\n    }\n\n    /**\n     * @dev Creates `amount` new tokens for `to`, of token type `id`.\n     *\n     * See {ERC1155-_mint}.\n     *\n     * Requirements:\n     *\n     * - the caller must have the `MINTER_ROLE`.\n     */\n    function mint(\n        address to,\n        uint256 id,\n        uint256 amount,\n        bytes memory data\n    ) public virtual {\n        require(hasRole(MINTER_ROLE, _msgSender()), \"ERC1155PresetMinterPauser: must have minter role to mint\");\n\n        _mint(to, id, amount, data);\n    }\n\n    /**\n     * @dev xref:ROOT:erc1155.adoc#batch-operations[Batched] variant of {mint}.\n     */\n    function mintBatch(\n        address to,\n        uint256[] memory ids,\n        uint256[] memory amounts,\n        bytes memory data\n    ) public virtual {\n        require(hasRole(MINTER_ROLE, _msgSender()), \"ERC1155PresetMinterPauser: must have minter role to mint\");\n\n        _mintBatch(to, ids, amounts, data);\n    }\n\n    /**\n     * @dev Pauses all token transfers.\n     *\n     * See {ERC1155Pausable} and {Pausable-_pause}.\n     *\n     * Requirements:\n     *\n     * - the caller must have the `PAUSER_ROLE`.\n     */\n    function pause() public virtual {\n        require(hasRole(PAUSER_ROLE, _msgSender()), \"ERC1155PresetMinterPauser: must have pauser role to pause\");\n        _pause();\n    }\n\n    /**\n     * @dev Unpauses all token transfers.\n     *\n     * See {ERC1155Pausable} and {Pausable-_unpause}.\n     *\n     * Requirements:\n     *\n     * - the caller must have the `PAUSER_ROLE`.\n     */\n    function unpause() public virtual {\n        require(hasRole(PAUSER_ROLE, _msgSender()), \"ERC1155PresetMinterPauser: must have pauser role to unpause\");\n        _unpause();\n    }\n\n    /**\n     * @dev See {IERC165-supportsInterface}.\n     */\n    function supportsInterface(bytes4 interfaceId)\n        public\n        view\n        virtual\n        override(AccessControlEnumerable, ERC1155)\n        returns (bool)\n    {\n        return super.supportsInterface(interfaceId);\n    }\n\n    function _beforeTokenTransfer(\n        address operator,\n        address from,\n        address to,\n        uint256[] memory ids,\n        uint256[] memory amounts,\n        bytes memory data\n    ) internal virtual override(ERC1155, ERC1155Pausable) {\n        super._beforeTokenTransfer(operator, from, to, ids, amounts, data);\n    }\n}\n",
  "sourcePath": "@openzeppelin/contracts/token/ERC1155/presets/ERC1155PresetMinterPauser.sol",
  "compiler": {
    "name": "solc",
    "version": "0.8.6+commit.11564f7e.Emscripten.clang"
  },
  "schemaVersion": "3.3.4",
  "updatedAt": "2022-08-15T02:18:08.611Z",
  "devdoc": {
    "details": "{ERC1155} token, including:  - ability for holders to burn (destroy) their tokens  - a minter role that allows for token minting (creation)  - a pauser role that allows to stop all token transfers This contract uses {AccessControl} to lock permissioned functions using the different roles - head to its documentation for details. The account that deploys the contract will be granted the minter and pauser roles, as well as the default admin role, which will let it grant both minter and pauser roles to other accounts. _Deprecated in favor of https://wizard.openzeppelin.com/[Contracts Wizard]._",
    "kind": "dev",
    "methods": {
      "balanceOf(address,uint256)": {
        "details": "See {IERC1155-balanceOf}. Requirements: - `account` cannot be the zero address."
      },
      "balanceOfBatch(address[],uint256[])": {
        "details": "See {IERC1155-balanceOfBatch}. Requirements: - `accounts` and `ids` must have the same length."
      },
      "constructor": {
        "details": "Grants `DEFAULT_ADMIN_ROLE`, `MINTER_ROLE`, and `PAUSER_ROLE` to the account that deploys the contract."
      },
      "getRoleAdmin(bytes32)": {
        "details": "Returns the admin role that controls `role`. See {grantRole} and {revokeRole}. To change a role's admin, use {_setRoleAdmin}."
      },
      "getRoleMember(bytes32,uint256)": {
        "details": "Returns one of the accounts that have `role`. `index` must be a value between 0 and {getRoleMemberCount}, non-inclusive. Role bearers are not sorted in any particular way, and their ordering may change at any point. WARNING: When using {getRoleMember} and {getRoleMemberCount}, make sure you perform all queries on the same block. See the following https://forum.openzeppelin.com/t/iterating-over-elements-on-enumerableset-in-openzeppelin-contracts/2296[forum post] for more information."
      },
      "getRoleMemberCount(bytes32)": {
        "details": "Returns the number of accounts that have `role`. Can be used together with {getRoleMember} to enumerate all bearers of a role."
      },
      "grantRole(bytes32,address)": {
        "details": "Grants `role` to `account`. If `account` had not been already granted `role`, emits a {RoleGranted} event. Requirements: - the caller must have ``role``'s admin role. May emit a {RoleGranted} event."
      },
      "hasRole(bytes32,address)": {
        "details": "Returns `true` if `account` has been granted `role`."
      },
      "isApprovedForAll(address,address)": {
        "details": "See {IERC1155-isApprovedForAll}."
      },
      "mint(address,uint256,uint256,bytes)": {
        "details": "Creates `amount` new tokens for `to`, of token type `id`. See {ERC1155-_mint}. Requirements: - the caller must have the `MINTER_ROLE`."
      },
      "mintBatch(address,uint256[],uint256[],bytes)": {
        "details": "xref:ROOT:erc1155.adoc#batch-operations[Batched] variant of {mint}."
      },
      "pause()": {
        "details": "Pauses all token transfers. See {ERC1155Pausable} and {Pausable-_pause}. Requirements: - the caller must have the `PAUSER_ROLE`."
      },
      "paused()": {
        "details": "Returns true if the contract is paused, and false otherwise."
      },
      "renounceRole(bytes32,address)": {
        "details": "Revokes `role` from the calling account. Roles are often managed via {grantRole} and {revokeRole}: this function's purpose is to provide a mechanism for accounts to lose their privileges if they are compromised (such as when a trusted device is misplaced). If the calling account had been revoked `role`, emits a {RoleRevoked} event. Requirements: - the caller must be `account`. May emit a {RoleRevoked} event."
      },
      "revokeRole(bytes32,address)": {
        "details": "Revokes `role` from `account`. If `account` had been granted `role`, emits a {RoleRevoked} event. Requirements: - the caller must have ``role``'s admin role. May emit a {RoleRevoked} event."
      },
      "safeBatchTransferFrom(address,address,uint256[],uint256[],bytes)": {
        "details": "See {IERC1155-safeBatchTransferFrom}."
      },
      "safeTransferFrom(address,address,uint256,uint256,bytes)": {
        "details": "See {IERC1155-safeTransferFrom}."
      },
      "setApprovalForAll(address,bool)": {
        "details": "See {IERC1155-setApprovalForAll}."
      },
      "supportsInterface(bytes4)": {
        "details": "See {IERC165-supportsInterface}."
      },
      "unpause()": {
        "details": "Unpauses all token transfers. See {ERC1155Pausable} and {Pausable-_unpause}. Requirements: - the caller must have the `PAUSER_ROLE`."
      },
      "uri(uint256)": {
        "details": "See {IERC1155MetadataURI-uri}. This implementation returns the same URI for *all* token types. It relies on the token type ID substitution mechanism https://eips.ethereum.org/EIPS/eip-1155#metadata[defined in the EIP]. Clients calling this function must replace the `\\{id\\}` substring with the actual token type ID."
      }
    },
    "version": 1
  },
  "userdoc": {
    "kind": "user",
    "methods": {},
    "version": 1
  }
}