{
  "contractName": "InternalContracts",
  "abi": [
    {
      "inputs": [],
      "name": "ADMIN_CONTROL",
      "outputs": [
        {
          "internalType": "contract AdminControl",
          "name": "",
          "type": "AdminControl"
        }
      ],
      "stateMutability": "view",
      "type": "function"
    },
    {
      "inputs": [],
      "name": "CONFLUX_CONTEXT",
      "outputs": [
        {
          "internalType": "contract ConfluxContext",
          "name": "",
          "type": "ConfluxContext"
        }
      ],
      "stateMutability": "view",
      "type": "function"
    },
    {
      "inputs": [],
      "name": "CROSS_SPACE_CALL",
      "outputs": [
        {
          "internalType": "contract CrossSpaceCall",
          "name": "",
          "type": "CrossSpaceCall"
        }
      ],
      "stateMutability": "view",
      "type": "function"
    },
    {
      "inputs": [],
      "name": "PARAMS_CONTROL",
      "outputs": [
        {
          "internalType": "contract ParamsControl",
          "name": "",
          "type": "ParamsControl"
        }
      ],
      "stateMutability": "view",
      "type": "function"
    },
    {
      "inputs": [],
      "name": "POS_REGISTER",
      "outputs": [
        {
          "internalType": "contract PoSRegister",
          "name": "",
          "type": "PoSRegister"
        }
      ],
      "stateMutability": "view",
      "type": "function"
    },
    {
      "inputs": [],
      "name": "SPONSOR_CONTROL",
      "outputs": [
        {
          "internalType": "contract SponsorWhitelistControl",
          "name": "",
          "type": "SponsorWhitelistControl"
        }
      ],
      "stateMutability": "view",
      "type": "function"
    },
    {
      "inputs": [],
      "name": "STAKING",
      "outputs": [
        {
          "internalType": "contract Staking",
          "name": "",
          "type": "Staking"
        }
      ],
      "stateMutability": "view",
      "type": "function"
    }
  ],
  "bytecode": "0x61047e610053600b82828239805160001a607314610046577f4e487b7100000000000000000000000000000000000000000000000000000000600052600060045260246000fd5b30600052607381538281f3fe73000000000000000000000000000000000000000030146080604052600436106100875760003560e01c806397610f301161006557806397610f30146100e6578063c33dfd8b14610104578063c785cedf14610122578063d624ae331461014057610087565b8063040a000e1461008c5780635ddd094f146100aa5780637b0e2081146100c8575b600080fd5b61009461015e565b6040516100a191906102db565b60405180910390f35b6100b2610176565b6040516100bf919061028a565b60405180910390f35b6100d061018e565b6040516100dd91906102f6565b60405180910390f35b6100ee6101a6565b6040516100fb9190610311565b60405180910390f35b61010c6101be565b60405161011991906102a5565b60405180910390f35b61012a6101d6565b604051610137919061026f565b60405180910390f35b6101486101ee565b60405161015591906102c0565b60405180910390f35b73088800000000000000000000000000000000000581565b73088800000000000000000000000000000000000481565b73088800000000000000000000000000000000000181565b73088800000000000000000000000000000000000281565b73088800000000000000000000000000000000000681565b73088800000000000000000000000000000000000081565b73088800000000000000000000000000000000000781565b61020f8161034c565b82525050565b61021e81610370565b82525050565b61022d81610394565b82525050565b61023c816103b8565b82525050565b61024b816103dc565b82525050565b61025a81610400565b82525050565b61026981610424565b82525050565b60006020820190506102846000830184610206565b92915050565b600060208201905061029f6000830184610215565b92915050565b60006020820190506102ba6000830184610224565b92915050565b60006020820190506102d56000830184610233565b92915050565b60006020820190506102f06000830184610242565b92915050565b600060208201905061030b6000830184610251565b92915050565b60006020820190506103266000830184610260565b92915050565b600073ffffffffffffffffffffffffffffffffffffffff82169050919050565b60006103578261035e565b9050919050565b60006103698261032c565b9050919050565b600061037b82610382565b9050919050565b600061038d8261032c565b9050919050565b600061039f826103a6565b9050919050565b60006103b18261032c565b9050919050565b60006103c3826103ca565b9050919050565b60006103d58261032c565b9050919050565b60006103e7826103ee565b9050919050565b60006103f98261032c565b9050919050565b600061040b82610412565b9050919050565b600061041d8261032c565b9050919050565b600061042f82610436565b9050919050565b60006104418261032c565b905091905056fea264697066735822122040de26a80dd275c6e0f115c50d4c3d88e5755246fd6e5c52c3df03bf023f753c64736f6c63430008060033",
  "immutableReferences": {},
  "source": "// SPDX-License-Identifier: MIT\n\npragma solidity ^0.8.0;\n\nimport \"./AdminControl.sol\";\nimport \"./SponsorWhitelistControl.sol\";\nimport \"./Staking.sol\";\nimport \"./ConfluxContext.sol\";\nimport \"./PoSRegister.sol\";\nimport \"./CrossSpaceCall.sol\";\nimport \"./ParamsControl.sol\";\n\n/**\n * @dev This library includes initialized Internal Contract instance.\n */\nlibrary InternalContracts {\n    /**\n     * @dev adminControl\n     */\n    AdminControl public constant ADMIN_CONTROL = AdminControl(0x0888000000000000000000000000000000000000);\n\n    /**\n     * @dev sponsorControl\n     */\n    SponsorWhitelistControl public constant SPONSOR_CONTROL =\n        SponsorWhitelistControl(0x0888000000000000000000000000000000000001);\n\n    /**\n     * @dev staking\n     */\n    Staking public constant STAKING = Staking(0x0888000000000000000000000000000000000002);\n\n    /**\n     * @dev ConfluxContext\n     */\n    ConfluxContext public constant CONFLUX_CONTEXT = ConfluxContext(0x0888000000000000000000000000000000000004);\n\n    /**\n     * @dev PoSRegister\n     */\n    PoSRegister public constant POS_REGISTER = PoSRegister(0x0888000000000000000000000000000000000005);\n\n    /**\n     * @dev CrossSpaceCall\n     */\n    CrossSpaceCall public constant CROSS_SPACE_CALL = CrossSpaceCall(0x0888000000000000000000000000000000000006);\n\n    /**\n     * @dev CrossSpaceCall\n     */\n    ParamsControl public constant PARAMS_CONTROL = ParamsControl(0x0888000000000000000000000000000000000007);\n}\n",
  "sourcePath": "@confluxfans\\contracts\\InternalContracts\\InternalContractsLib.sol",
  "compiler": {
    "name": "solc",
    "version": "0.8.6+commit.11564f7e.Emscripten.clang"
  },
  "schemaVersion": "3.3.4",
  "updatedAt": "2022-08-15T02:18:08.308Z",
  "devdoc": {
    "details": "This library includes initialized Internal Contract instance.",
    "kind": "dev",
    "methods": {},
    "stateVariables": {
      "ADMIN_CONTROL": {
        "details": "adminControl"
      },
      "CONFLUX_CONTEXT": {
        "details": "ConfluxContext"
      },
      "CROSS_SPACE_CALL": {
        "details": "CrossSpaceCall"
      },
      "PARAMS_CONTROL": {
        "details": "CrossSpaceCall"
      },
      "POS_REGISTER": {
        "details": "PoSRegister"
      },
      "SPONSOR_CONTROL": {
        "details": "sponsorControl"
      },
      "STAKING": {
        "details": "staking"
      }
    },
    "version": 1
  },
  "userdoc": {
    "kind": "user",
    "methods": {},
    "version": 1
  }
}